:1000000000200020C90D0000F50D0000F50D0000D6
:10001000F50D0000F50D0000F50D0000F50D0000D8
:10002000F50D0000F50D0000F50D0000F50D0000C8
:10003000F50D0000F50D0000F50D0000D5020000E3
:10004000F50D0000F50D0000F50D0000F50D0000A8
:10005000F50D0000F50D0000F50D0000F50D000098
:10006000F50D0000F50D0000F50D0000F50D000088
:10007000F50D0000F50D0000F50D0000F50D000078
:10008000F50D0000F50D0000F50D0000F50D000068
:10009000F50D000010B5064C2378002B07D1054B59
:1000A000002B02D0044800E000BF0123237010BDE4
:1000B00074000020000000005014000008B5084B38
:1000C000002B03D00748084900E000BF0748036839
:1000D000002B03D0064B002B00D0984708BDC0462C
:1000E0000000000050140000780000207000002084
:1000F00000000000164B002B00D1144B9D464022FF
:1001000092029A1A924600218B460F461348144ACF
:10011000121A01F0C9F80F4B002B00D098470E4B74
:10012000002B00D098470020002104000D000D484E
:10013000002802D00C4800E000BF01F08FF820003A
:10014000290000F0E7F801F073F8C046000008004D
:1001500000200020000000000000000074000020CB
:10016000980000200000000000000000B0B582B040
:1001700000AF021C3960FB1D1A70FB1D1B787F2B22
:1001800032D93049FB1D1B781A1C0F231340083B42
:1001900098082C4AFB1D1B781C1C0F232340083B8E
:1001A0009B0806339B00D3185B68FA1D1278141C59
:1001B00003222240D200FF24251C95402A1CD24352
:1001C0001A403B689C01FF231C40FB1D1B781D1C33
:1001D00003232B40DB00251C9D402B1C1A43831D51
:1001E0009B00CB185A6029E0174BFA1D127852B2C7
:1001F00092081549F81D007840B28008C030800090
:100200004158F81D0078041C03202040C000FF2442
:10021000251C8540281CC043084039688C01FF21FB
:100220000C40F91D09780D1C03212940C900251C2B
:100230008D40291C0143C0329200D150BD4602B00E
:10024000B0BDC04600ED00E000E100E080B582B046
:1002500000AF78607B685A1E0C4B9A4201D901238B
:1002600010E00B4B7A68013A5A6001235B42181C7C
:100270000321FFF77BFF064B00229A60044B072205
:100280001A600023181CBD4602B080BDFFFFFF00AE
:1002900010E000E080B582B000AF094B1B687B60C6
:1002A0007B681B0E812B08D8064B074A1A60074B48
:1002B000064A1168064A0A401A60BD4602B080BD6F
:1002C000FC81E00F18600C4005000004E4800C4045
:1002D000FFFFFFFE80B500AF034B1B685A1C024BAB
:1002E0001A60BD4680BDC0469000002080B584B035
:1002F00000AF7860064B1B68FB60C046044B1A6871
:10030000FB68D21A7B689A42F8D3BD4604B080BD20
:100310009000002080B582B000AF00237B60FFF723
:10032000B9FF0F4B181C00F001FA031C181CFA232C
:10033000990000F02DFF031C181CFFF787FF031C1A
:10034000002B00D0FEE700F0B7FE7B6801337B6036
:100350007B68181C00F0E2FEFA20FFF7C7FFF4E705
:100360005000020080B582B000AF78603960FEE7CF
:1003700080B586B000AFF860B9607A60FB681B6832
:100380007B61BB680122101C9840031CDB437A6927
:100390001A40796801231940BB68081C9840031C67
:1003A0001A43FB681A60BD4606B080BD80B582B0B6
:1003B00000AF1C4B5A69E023DB00134080229200FF
:1003C000934216D080229200934206D8002B16D07A
:1003D0008022520093420FD017E0C0229200934235
:1003E00004D0E022D20093420CD00EE00E4B7B6092
:1003F00013E00E4B7B6010E00D4B7B600DE00D4B6E
:100400007B600AE00C4B7B6007E00C4B181C9421CE
:10041000FFF7A8FF00237B60C0467B68181CBD4621
:1004200002B080BD00800C4040420F00C0CF6A0087
:10043000C0D8A700809FD500406F40012413000062
:1004400090B583B000AFFC1C174B181C00F038FAB5
:10045000031C2370FB1C1B78072B13D0082B16D111
:1004600000F0E8FC031C7B60104B1A68E0235B0281
:1004700013409B0B01337868191C00F089FE031CA4
:100480007B600CE0FFF792FF031C7B6007E0084BEA
:10049000181CC221FFF766FF00237B60C0467B6803
:1004A000181CBD4603B090BD06000C0000800C4037
:1004B0002413000080B584B000AF78600023BB60D7
:1004C0007B68424A93420DD0414A93420AD0414A46
:1004D000934207D0404A5023FF33101C191CFFF7EA
:1004E00041FF00E0C0467B68181C00F0E9F9031CDE
:1004F000FB607B68354A93420BD0354A93420FD05C
:10050000344A934213D1354B9A6A03231340FB605C
:1005100015E0324B9A6A0C2313409B08FB600EE0F7
:100520002E4B9A6A302313401B09FB6007E02A4ACE
:100530007A23FF33101C191CFFF714FFC046FB6819
:10054000012B05D014D3022B07D0032B0AD02DE0AA
:1005500000F0E8FC031CBB6032E000F0F3FC031C7D
:10056000BB602DE000F048FC031C5B08BB6027E08B
:100570000023BB607A68174B9A4203D07A68134B0A
:100580009A4212D1154B9A6A7968124B994201D15D
:10059000102300E01423111CD9400B1C002B04D0A5
:1005A00000F0C8FC031CBB600AE009E00A4AB02363
:1005B000FF33101C191CFFF7D5FE0023BB60C0469B
:1005C000BB68181CBD4604B080BDC04603001A00BD
:1005D00004001C00020018002413000000800C40DE
:1005E00080B582B000AF7860074B5A6D012313408D
:1005F00000D005E0C046044B1B6D7A681340FAD169
:10060000BD4602B080BDC04600800C4090B583B0AE
:1006100000AFFC1C124B181C00F052F9031C237095
:10062000FB1C1B78032B08D0082B0BD0022B0ED100
:1006300000F088FC031C7B600CE000F073FC031CE2
:100640007B6007E000F0F6FB031C7B6002E0002308
:100650007B60C0467B68181CBD4603B090BDC04699
:100660000733200080B586B000AF78600A1CFB1C01
:100670001A7000233B617B681A0A0F2313400A2B70
:1006800020D89A001F4BD3181B689F461E4B7B61D6
:100690001FE01E4B7B611CE01D4B7B6119E01D4B75
:1006A0007B6101233B6114E01B4B7B6110233B61A9
:1006B0000FE01A4B7B6180235B003B6109E0184B24
:1006C0007B6106E0174A184B101C191CFFF74AFE05
:1006D00014E07B681A0B1F231340FB603B69002B5F
:1006E00003D03B69181CFFF77BFFFB1C1B78796963
:1006F000FA68081C111C1A1CFFF73AFEBD4606B02A
:1007000080BDC0463813000040800C4008800C407B
:1007100044800C4058800C4060800C4064800C4049
:1007200078800C4024130000FB05000080B584B0E5
:1007300000AF78607A68F8239B031340E02212032D
:10074000934200D19AE0E0221203934214D880220F
:100750009202934258D080229202934202D8002BF8
:1007600024D095E08022D202934231D0C0221203DD
:10077000934200D17DE08BE0C0225203934248D0E7
:10078000C0225203934208D880225203934247D09A
:10079000A022520393425BD07AE0D02252039342CC
:1007A0004FD08022920393426DD071E000F042FB63
:1007B000031CFB603D4B1A68E0235B0213409B0B5C
:1007C0000133F868191C00F0E3FC031CFB6068E0CF
:1007D00000F030FB031CFB60344B1A68E0235B0223
:1007E00013409B0B0133F868191C00F0D1FC031C6B
:1007F000FB602E4B9B681A1C0F231340FA68111CD8
:10080000D9400B1CFB604CE000F0F6FA031CFB60C7
:1008100047E0274B181CFFF74DFE031CFB6040E030
:10082000234B181CFFF746FE031CFB601F4B9B6EFF
:100830001A1C0F231340FA68111CD9400B1CFB60D3
:100840002FE01C4B181CFFF735FE031CFB6028E053
:10085000184B181CFFF72EFE031CFB60134B1B6F7D
:100860001A1C03231340FA68111CD9400B1CFB60AF
:1008700017E0FFF7E5FD031CFB6012E0FFF796FDB4
:10088000031CFB600DE0FFF7C1FE031CFB6008E0EA
:10089000094A0A4B101C191CFFF764FD0023FB607A
:1008A000C046FB68181CBD4604B080BD00800C40EB
:1008B0000200180003001A0024130000D1060000F3
:1008C00080B584B000AF78603B1C0F3301221A70F2
:1008D0007A680F231340BB60BB68072B00D9CEE0BA
:1008E000BB689A006F4BD3181B689F466E4BDA6A41
:1008F0006E4B134080225201934216D08022520147
:10090000934204D880221201934213D01CE080222B
:100910009201934204D08022D20493420FD013E07C
:100920003B1C0F3302221A7013E03B1C0F330322CF
:100930001A700EE03B1C0F3304221A7009E03B1CB6
:100940000F330A221A7004E03B1C0F3305221A7081
:10095000C0469FE0544B9A6A03231340022B08D0F1
:10096000032B0BD0012B0ED13B1C0F3303221A702B
:1009700015E03B1C0F3302221A7010E03B1C0F33B2
:1009800006221A700BE0484B9A6A80235B021340E0
:1009900004D03B1C0F330B221A7000E0C04679E0F4
:1009A000414B9A6A0C231340082B08D00C2B0BD018
:1009B000042B0ED13B1C0F3303221A7015E03B1C95
:1009C0000F3302221A7010E03B1C0F3306221A70FC
:1009D0000BE0354B9A6A80235B03134004D03B1C29
:1009E0000F330B221A7000E0C04653E02E4B9A6A78
:1009F00030231340102B02D0202B05D009E03B1CE4
:100A00000F3303221A7009E03B1C0F3302221A70C5
:100A100004E03B1C0F3301221A70C0463AE03B1C35
:100A20000F3307221A703B1C0F3307221A7031E074
:100A30001D4BDA6AE023DB021340802292029342CC
:100A400012D08022D202934204D0802252029342DA
:100A500005D00EE03B1C0F3309221A700EE03B1C40
:100A60000F3302221A7009E03B1C0F3303221A7065
:100A700004E03B1C0F3301221A70C0460AE00C4A06
:100A80000C4B101C191CFFF76DFC3B1C0F33002294
:100A90001A70C0463B1C0F331B78181CBD4604B0AF
:100AA00080BDC0466413000000800C40003C000480
:100AB000241300008209000090B583B000AF021C2F
:100AC0003960FB1D1A70FB1D1B78002B21D0FB1D0C
:100AD0001B78012B1AD0FB1D1B78022B14D0FB1D99
:100AE0001B78032B0ED0FB1D1B78042B07D0FB1D9E
:100AF0001B78052B01D13F230CE000230AE0F023F3
:100B00009B0107E0F02305E0124B03E0D323DB0158
:100B100000E0114B3A68191C11410A1C01231340D3
:100B200005D10E4A0E4B101C191CFFF71BFC0D487B
:100B3000FB1D1A783B6801210C1C9C40231C191CCE
:100B4000131CDB009B189B00C31810335960BD4673
:100B500003B090BD1FEF00000707000084130000E2
:100B60008B0200000060004090B583B000AF021C13
:100B70003960FB1D1A70FB1D1B78002B21D0FB1D5B
:100B80001B78012B1AD0FB1D1B78022B14D0FB1DE8
:100B90001B78032B0ED0FB1D1B78042B07D0FB1DED
:100BA0001B78052B01D13F230CE000230AE0F02342
:100BB0009B0107E0F02305E0124B03E0D323DB01A8
:100BC00000E0114B3A68191C11410A1C0123134023
:100BD00005D10E4A0E4B101C191CFFF7C3FB0D4824
:100BE000FB1D1A783B6801210C1C9C40231C191C1E
:100BF000131CDB009B189B00C31810331960BD4603
:100C000003B090BD1FEF0000070700008413000031
:100C1000BA02000000600040B0B584B000AFB96017
:100C20007B603B1C0F33011C19703B1C0E331A7088
:100C30003B1C0F331B78002B26D03B1C0F331B783B
:100C4000012B1ED03B1C0F331B78022B17D03B1CF3
:100C50000F331B78032B10D03B1C0F331B78042B56
:100C600008D03B1C0F331B78052B01D13F230CE030
:100C700000230AE0F0239B0107E0F02305E04D4B41
:100C800003E0D323DB0100E04B4BBA68191C114190
:100C90000A1C0123134004D1484B181CE321FFF721
:100CA00061FB3B1C0E331B78002B13D07B68002BA1
:100CB00008D03B1C0F331A78BB68101C191CFFF7B7
:100CC00053FF07E03B1C0F331A78BB68101C191C3C
:100CD000FFF7F2FEBB68072B25D839483B1C0F33C2
:100CE0001A78374C3B1C0F3319780B1CDB005B1850
:100CF0009B00E3185B68B96889000F24251C8D40B0
:100D0000291CC94319403B1C0E331C78BB689B004F
:100D1000251C9D402B1C1943131CDB009B189B00BA
:100D2000C31859602AE026483B1C0F331A78244C1C
:100D30003B1C0F3319780B1CDB005B189B00E3187E
:100D400008331B68B9681F4C091989000F24251C3A
:100D50008D40291CC94319403B1C0E331C78BB68CD
:100D6000184D5B199B00251C9D402B1C1943131C1F
:100D7000DB009B189B00C318083319603B1C0E3323
:100D80001B78002B13D17B68002B08D03B1C0F3342
:100D90001A78BB68101C191CFFF7E6FE07E03B1C25
:100DA0000F331A78BB68101C191CFFF785FEBD466F
:100DB00004B0B0BD1FEF000007070000D41300000F
:100DC00000600040F8FFFF3F064880470649074A99
:100DD000074B9B1A03DD043BC858D050FBDCFFF7E0
:100DE00089F900001D0F00005C14000000000020C5
:100DF00074000020FEE7C04680B582B000AF00F06E
:100E000019F8031C7B60094B5B681A1C0F23134005
:100E10007A68111CD9400B1C7B60054B7A681A60FC
:100E20007B68181CBD4602B080BDC04600800C40E7
:100E30009400002080B582B000AF2E4BDA6A2E4BB2
:100E4000134080225201934215D0802252019342D6
:100E500004D880221201934211D017E0802292011F
:100E6000934204D08022D20493420CD00EE0234B54
:100E70001B687B6039E080231B027B6035E0204BE0
:100E80001B687B6031E01F4B7B602EE0194BDA68FA
:100E9000E023DB00134080229200934218D080228E
:100EA0009200934206D8002B18D080225200934221
:100EB00011D016E0C0229200934206D08022D200C8
:100EC00093420ED1104B7B600EE0104B7B600BE029
:100ED0000F4B7B6008E00F4B7B6005E00E4B7B60A7
:100EE00002E000237B60C046C0467B68181CBD46FC
:100EF00002B080BD00800C40003C000404000020D3
:100F00000000002000366E01406F4001809FD50038
:100F1000C0D8A70040B56400804F120080B500AF74
:100F2000BD4680BD80B500AF80231B02181CBD46A6
:100F300080BDC04680B500AFFA239B00181CBD469B
:100F400080BDC04680B500AF024B1B68181CBD4673
:100F500080BDC0460400002090B583B000AF021CE5
:100F60003960FB1D1A70FB1D1B78002B21D0FB1D67
:100F70001B78012B1AD0FB1D1B78022B14D0FB1DF4
:100F80001B78032B0ED0FB1D1B78042B07D0FB1DF9
:100F90001B78052B01D13F230CE000230AE0F0234E
:100FA0009B0107E0F02305E0124B03E0D323DB01B4
:100FB00000E0114B3A68191C11410A1C012313402F
:100FC00005D10E4A0E4B101C191CFFF7CBF90D482A
:100FD000FB1D1A783B6801210C1C9C40231C191C2A
:100FE000131CDB009B189B00C31810335960BD46CF
:100FF00003B090BD1FEF000007070000E8130000DA
:101000008B0200000060004090B583B000AF021C6E
:101010003960FB1D1A70FB1D1B78002B21D0FB1DB6
:101020001B78012B1AD0FB1D1B78022B14D0FB1D43
:101030001B78032B0ED0FB1D1B78042B07D0FB1D48
:101040001B78052B01D13F230CE000230AE0F0239D
:101050009B0107E0F02305E0124B03E0D323DB0103
:1010600000E0114B3A68191C11410A1C012313407E
:1010700005D10E4A0E4B101C191CFFF773F90D48D1
:10108000FB1D1A783B6801210C1C9C40231C191C79
:10109000131CDB009B189B00C31810331960BD465E
:1010A00003B090BD1FEF000007070000E813000029
:1010B000BA0200000060004080B582B000AF144B5F
:1010C000181C0121FFF7CEFA124B181C0121FFF763
:1010D000C9FA00237B6012E00F4B7A68D200D25C21
:1010E0000D497B68DB00CB1804331B68101C191CEE
:1010F00004220023FFF790FD7B6801337B607B684F
:10110000012BE9DD0023181CBD4602B080BDC0469E
:1011100040810400008204003814000080B584B0CF
:1011200000AF78600023FB600123BB6026E07B6892
:10113000BA6813400ED0154BFA68D200D25C13493E
:10114000FB68DB00CB1804331B68101C191CFFF76D
:101150005BFF0DE00D4BFA68D200D25C0B49FB68D7
:10116000DB00CB1804331B68101C191CFFF7F4FEBE
:10117000FB680133FB60BB685B00BB60FB68012B55
:10118000D5DD0023181CBD4604B080BD3814000016
:10119000002934D00123002210B488422CD301242A
:1011A0002407A14204D2814202D209011B01F8E7BF
:1011B000E400A14204D2814202D249005B00F8E778
:1011C000884201D3401A1A434C08A04202D3001BA4
:1011D0005C0822438C08A04202D3001B9C082243D7
:1011E000CC08A04202D3001BDC082243002803D015
:1011F0001B0901D00909E3E7101C10BC7047002847
:1012000001D00020C04307B4024802A14018029058
:1012100003BDC046190000000029F0D003B5FFF758
:10122000B9FF0EBC4243891A1847C0467047C046F2
:10123000084B10B5041C002B02D0002100E000BFB9
:10124000054B1868836A002B00D09847201C00F0DB
:1012500033F8C046000000004C14000070B50E4B7F
:101260000E4D0024ED1AAD101E1CAC4204D0A3009C
:10127000F35898470134F8E700F020F8084B094D7F
:101280000024ED1AAD101E1CAC4204D0A300F3588C
:1012900098470134F8E770BD68000020680000201E
:1012A000680000206C000020031C8218934202D0CA
:1012B00019700133FAE77047FEE7C046F8B5C0463B
:1012C000F8BC08BC9E467047F8B5C046F8BC08BCE0
:1012D0009E4670472F4170706C69636174696F6ED0
:1012E000732F53696D706C69636974795374756495
:1012F000696F5F76332F646576656C6F7065722FEA
:1013000073646B732F65666D33322F76322F656D84
:101310006C69622F696E632F656D5F636D752E68F2
:10132000000000002E2E2F656D6C69622F656D5FC9
:10133000636D752E63000000C40600009206000075
:10134000980600008C060000C4060000C4060000D9
:101350009E060000A8060000B2060000C4060000B9
:10136000BE0600007E0A0000EC08000054090000E0
:10137000A0090000EC0900007E0A00001E0A00001F
:10138000300A00002F4170706C69636174696F6E80
:10139000732F53696D706C696369747953747564E4
:1013A000696F5F76332F646576656C6F7065722F39
:1013B00073646B732F65666D33322F76322F656DD4
:1013C0006C69622F696E632F656D5F6770696F2E40
:1013D000680000002E2E2F656D6C69622F656D5FB1
:1013E0006770696F2E6300002F4170706C696361D4
:1013F00074696F6E732F53696D706C69636974796A
:1014000053747564696F5F76332F646576656C6FAE
:101410007065722F73646B732F65666D33322F7630
:10142000322F656D6C69622F696E632F656D5F6722
:1014300070696F2E680000000500000004000000C5
:101440000500000005000000430000000800002027
:041450000000000098
:08145400A0ECFF7F0100000085
:10145C0000366E010080000000000000000000005B
:10146C000000000000000000000000000000000070
:10147C000000000000000000481400000000000004
:10148C000000000000000000000000000000000050
:10149C000000000000000000000000000000000040
:1014AC000000000000000000000000000000000030
:1014BC000000000000000000BD00000095000000CE
:0414CC00000000001C
:0400000300000DC923
:00000001FF
