:1000000000000220990F0000C50F0000C50F00007E
:10001000C50F0000C50F0000C50F0000C50F000090
:10002000C50F0000C50F0000C50F0000C50F000080
:10003000C50F0000C50F0000C50F000099030000A8
:10004000C50F0000C50F0000C50F0000C50F000060
:10005000C50F0000C50F0000C50F0000C50F000050
:10006000C50F0000C50F0000C50F0000C50F000040
:10007000C50F0000C50F0000C50F0000C50F000030
:10008000C50F0000C50F0000C50F0000C50F000020
:10009000C50F0000C50F0000C50F0000C50F000010
:1000A000C50F0000C50F0000C50F0000C50F000000
:1000B000C50F0000C50F0000C50F0000C50F0000F0
:1000C000C50F0000C50F0000C50F0000C50F0000E0
:1000D000C50F0000C50F0000C50F000010B5054C8E
:1000E000237833B9044B13B10448AFF300800123E4
:1000F000237010BD7800002000000000BC2100002B
:1001000008B5064B1BB106480649AFF30080064808
:10011000036813B1054B03B1984708BD0000000008
:10012000BC2100007C0000207400002000000000C2
:10013000154B002B08BF134B9D46A3F5803A0021B9
:100140008B460F461348144A121A01F0D1F80F4B90
:10015000002B00D098470E4B002B00D09847002072
:10016000002104000D000D48002802D00C48AFF318
:10017000008001F097F82000290000F02FF901F02D
:100180007DF800BF00000800000002200000000011
:100190000000000078000020BC00002000000000EB
:1001A0000000000080B500AF214B1A6840F2E73331
:1001B0009A4234D11E4B00221A601E4B19681E4B06
:1001C0001A681E4B1B681E4801F09AF81B4B1B68EF
:1001D0003B2B1DD1194B00221A60174B1B683B2B80
:1001E00010D1154B00221A60124B1B68172B03D13C
:1001F000104B00221A6011E00E4B1B685A1C0D4B6D
:100200001A600BE00C4B1B685A1C0B4B1A600BE07E
:100210000A4B1B685A1C094B1A6005E004E0044BAA
:100220001B685A1C024B1A600123184680BD00BF90
:10023000A8000020A4000020AC000020A0000020A6
:100240000C21000080B400AF034B1B681846BD466C
:100250005DF8047B704700BFA400002080B400AFAD
:10026000034B1B681846BD465DF8047B704700BF12
:10027000AC00002080B400AF034B1B681846BD469D
:100280005DF8047B704700BFA000002080B485B0FB
:1002900000AFF860B9607A60064BFA681A60064BE6
:1002A000BA681A60054B7A681A601437BD465DF863
:1002B000047B7047A4000020AC000020A0000020B8
:1002C00080B483B000AF03463960FB7197F9073003
:1002D000002B0BDA0D49FB7903F00F03043B3A685E
:1002E000D2B25201D2B20B441A7609E0084997F90A
:1002F00007303A68D2B25201D2B20B4483F80023DD
:100300000C37BD465DF8047B704700BF00ED00E090
:1003100000E100E080B582B000AF78607B68013B0F
:10032000B3F1807F01D301230FE00A4B7A68013AD1
:100330005A604FF0FF300721FFF7C2FF054B002244
:100340009A60044B07221A60002318460837BD46FE
:1003500080BD00BF10E000E080B582B000AF0C4B64
:100360001B687B603B46184600F0DCFD7B681B0E7B
:100370000F2B0AD93B78032B07D1064B054A12688D
:1003800022F0500242F010021A600837BD4680BDCC
:10039000FC81E00FC0800C4080B500AF034B1B68B0
:1003A0005A1C024B1A60FFF7FDFE80BDB000002012
:1003B00080B485B000AF7860074B1B68FB6000BF5E
:1003C000054B1A68FB68D21A7B689A42F8D3143737
:1003D000BD465DF8047B7047B000002080B582B058
:1003E00000AFFFF7B9FF2748012100F093FA00F0B2
:1003F00031FF254800F006FB0246244BA3FB021305
:100400009B091846FFF786FF0346002B00D0FEE746
:1004100000237B6009E07B68032019460422002347
:1004200000F0F8FC7B6801337B607B68062BF2DD13
:10043000022000210422002300F0ECFC13203B21C9
:100440003722FFF723FFFFF7FDFE0346184600F0B3
:1004500077F8FA20FFF7ACFFFFF700FF03461846D6
:1004600000F06EF8FA20FFF7A3FFFFF703FF034643
:10047000184600F065F8FA20FFF79AFF002000F018
:100480005FF8E0E700D2040050000200D34D621094
:1004900080B483B000AF03463960FB71FB79002B59
:1004A0000DD0FB79012B0AD0FB79022B07D0FB7909
:1004B000032B04D0FB79042B01D0FB79052B0948D1
:1004C000FA793B68012101FA03F319461346DB0070
:1004D00013449B000344103359600C37BD465DF84C
:1004E000047B70470060004080B483B000AF0346D7
:1004F0003960FB71FB79002B0DD0FB79012B0AD001
:10050000FB79022B07D0FB79032B04D0FB79042B5A
:1005100001D0FB79052B0948FA793B68012101FAE2
:1005200003F319461346DB0013449B0003441033C6
:1005300019600C37BD465DF8047B704700600040D1
:1005400080B584B000AF78600023FB601AE07B6860
:1005500003F00103BB60BB68002B05D1FB680320DF
:100560001946FFF795FF07E0BB68012B04D1FB6834
:1005700003201946FFF7B8FF7B685B107B60FB68C0
:100580000133FB60FB68062BE1DD7B68002B04D1A7
:1005900002200021FFF77CFF06E07B68012B03D1DE
:1005A00002200021FFF7A0FF1037BD4680BD00BF2D
:1005B00080B487B000AFF860B9607A60FB6803F17F
:1005C0000473DA00BB6813449B007B617B697A6823
:1005D0001A601C37BD465DF8047B704780B487B055
:1005E00000AF78607B68002B04D07B68B3F5004FC8
:1005F00000D800BF7B683B613B69B3FA83F3FB60C3
:10060000FB68DBB2C3F11F037B617B6918461C37B3
:10061000BD465DF8047B704780B400AF054BDB6CD2
:1006200003F47F031B0CDBB21846BD465DF8047B68
:10063000704700BFB081E00F80B483B000AF1A4BA9
:100640005B6903F4E063B3F5007F14D0B3F5007F7A
:1006500005D8002B15D0B3F5807F0FD01AE0B3F585
:10066000C06F14D0B3F5E06F0ED0B3F5407F11D159
:100670000E4B7B6011E00E4B7B600EE00D4B7B6000
:100680000BE00D4B7B6008E00C4B7B6005E00C4BF6
:100690007B6002E000237B6000BF7B6818460C375C
:1006A000BD465DF8047B704700800C4040420F005F
:1006B000C0CF6A00C0D8A700809FD500406F40011E
:1006C000003FAB0180B582B000AF124800F09AFA4B
:1006D0000346FB70FB78072B0FD0082B11D100F0DD
:1006E000A5FC78600C4B1B6803F4E0339B0B0133D3
:1006F0007A68B2FBF3F37B6006E0FFF79DFF78605A
:1007000002E000237B6000BF7B6818460837BD46C7
:1007100080BD00BF06000C0000800C4080B584B096
:1007200000AF78600023BB607B683A4A934203D0F5
:10073000394A934200D000E000BF786800F062FAC6
:100740000346FB607B68334A934203D0324A9342AC
:1007500006D00CE0314B9B6A03F00303FB6006E01C
:100760002E4B9B6A03F00C039B08FB6000BFFB68E9
:10077000032B47D801A252F823F000BFCD07000099
:100780008D070000950700009D07000000F0CCFCDD
:10079000B8603AE000F0DCFCB86036E01F4B5B6804
:1007A00003F48073002B05D11C4B1B6803F08043BE
:1007B000002B05D000F016FC03469B08BB6024E02C
:1007C00000F010FC03465B08BB601EE00023BB602A
:1007D0007A68104B9A4203D07A680F4B9A4210D134
:1007E0000E4B9A6A79680B4B994201D1102300E0B5
:1007F000142322FA03F3002B03D000F09FFCB8600F
:1008000003E002E00023BB6000BFBB68184610375E
:10081000BD4680BD0200180003001A0000800C4095
:1008200080B582B000AFFFF7F7FE0346482B23D018
:100830004A2B23D1144B1B699BB203F03F039BB29D
:100840001B02FB80104B9B699BB203F0F0039AB232
:10085000FB881343FB800C4BDB6903F0F0031B099F
:100860009AB2FB881343FB80FB88B3F5017F01D369
:10087000064B04E0064B02E0054B00E0002318465F
:100880000837BD4680BD00BFD0FF0FE000366E01C7
:100890000048E80180B483B000AF7860094B5B6D1D
:1008A00003F00103002B00D006E000BF054B1A6DDA
:1008B0007B681340002BF9D10C37BD465DF8047BF3
:1008C000704700BF00800C4080B582B000AF104878
:1008D00000F098F90346FB70FB78032B07D0082B38
:1008E00009D0022B0BD100F033FC78600AE000F055
:1008F0001BFC786006E000F099FB786002E00023C2
:100900007B6000BF7B6818460837BD4680BD00BFCE
:100910000723200090B587B000AF78600B46FB70CE
:1009200000233B617B681B0A03F00F03013B092B8B
:1009300052D801A252F823F08F0900009509000057
:1009400061090000D9090000D90900009B090000D5
:10095000A5090000D9090000D9090000AF0900006D
:100960001F4B7B611F4800F04DF80446FFF758FF0E
:1009700003469C420AD91C481E210122FFF718FE9B
:100980001A4808210122FFF713FE13E012E0184B6A
:100990007B610FE0174B7B610CE0174B7B61012300
:1009A0003B6107E0154B7B6110233B6102E0144B78
:1009B0007B6100BF7B681B0B03F01F03FB603B697F
:1009C000002B02D03869FFF765FFFB787869F9687A
:1009D0001A46FFF7EDFD00E000BF1C37BD4690BD95
:1009E00040800C405000020000800C4004800C400D
:1009F00008800C4044800C4058800C4060800C40C3
:100A000078800C4090B585B000AF78607B6803F4C7
:100A10007813B3F5A01F00F0C080B3F5A01F1AD85B
:100A2000B3F5402F00F0D480B3F5402F08D8B3F5CC
:100A3000003F51D0B3F5802F38D0002B28D0D3E021
:100A4000B3F5801F51D0B3F5901F5CD0B3F5602F84
:100A500000F0C280C8E0B3F5001F00F0C180B3F51C
:100A6000001F0BD8B3F5C01F3AD0B3F5D01F00F06C
:100A70008F80B3F5B01F00F09D80B5E0B3F5181F6F
:100A800062D0B3F5201F76D0B3F5101F49D0ABE08C
:100A900000F0CCFAF860584B1B6803F4E0339B0B72
:100AA0000133FA68B2FBF3F3FB60A0E000F0BEFA9A
:100AB000F860514B1B6803F4E0339B0B0133FA6879
:100AC000B2FBF3F3FB604C4B9B6803F00F03FA6837
:100AD00022FA03F3FB608AE000F084FAF86086E013
:100AE0004648FFF71BFEF86081E04448FFF716FE1A
:100AF000F860414B9B6E03F0F0031B09FA6822FA81
:100B000003F3FB6073E03D48FFF708FEF8603A4BE3
:100B10009B6E03F470631B0AFA6822FA03F3FB600E
:100B200065E03648FFF7FAFDF860334B9B6E03F43F
:100B300040531C0B1020FFF751FD03462344FA6875
:100B400022FA03F3FB6052E02C48FFF7E7FDF86060
:100B5000294B9B6E03F440531B0BFA6822FA03F3F4
:100B6000FB60254BDB6F03F007030133FA68B2FB30
:100B7000F3F3FB603BE02148FFF7D0FDF8601E4B2C
:100B80009B6E03F00303FA6822FA03F3FB602EE086
:100B90001B48FFF7C3FDF86029E01948FFF7BEFDC9
:100BA000F860154B1B6F03F00303FA6822FA03F396
:100BB000FB601CE01248FFF7B1FDF8600E4B1B6FA5
:100BC00003F030031B09FA6822FA03F3FB600EE01E
:100BD000FFF778FDF8600AE0FFF72EFDF86006E009
:100BE000FFF772FEF86002E00023FB6000BFFB68C5
:100BF00018461437BD4690BD00800C400200180016
:100C000003001A0080B485B000AF78600123FB7345
:100C10007B6803F00F03BB60BB68013B062B00F24F
:100C2000958001A252F823F0450C00007B0C0000D7
:100C3000B70C00004D0D00004D0D0000F30C00003E
:100C4000190D0000464BDB6A03F47053B3F5805F67
:100C500009D0B3F5005F03D0B3F5006F06D008E00C
:100C60000223FB7308E00323FB7305E00423FB73FB
:100C700002E00523FB7300BF6BE0394B9B6A03F076
:100C80000303022B06D0032B07D0012B08D103232B
:100C9000FB730FE00223FB730CE00623FB7309E0F8
:100CA0002F4B9B6A03F48033002B02D00923FB7384
:100CB00000E000BF4DE02A4B9B6A03F00C03082BB9
:100CC00006D00C2B07D0042B08D10323FB730FE0B5
:100CD0000223FB730CE00623FB7309E0204B9B6AA5
:100CE00003F48013002B02D00923FB7300E000BF44
:100CF0002FE00723FB731A4B1B6803F08053002B74
:100D000003D0B3F1805F03D023E00723FB7302E03D
:100D10000823FB7300BF1CE0114BDB6A03F4603354
:100D2000B3F5803F08D0B3F5003F08D0B3F5004FCE
:100D300008D10823FB7308E00223FB7305E00323BB
:100D4000FB7302E00123FB7300BF02E00023FB738F
:100D500000BFFB7B18461437BD465DF8047B704727
:100D600000800C4080B483B000AF03463960FB7153
:100D7000FB79002B0DD0FB79012B0AD0FB79022BDC
:100D800007D0FB79032B04D0FB79042B01D0FB792E
:100D9000052B0948FA793B68012101FA03F319464A
:100DA0001346DB0013449B000344103359600C3797
:100DB000BD465DF8047B70470060004080B483B09E
:100DC00000AF03463960FB71FB79002B0DD0FB7936
:100DD000012B0AD0FB79022B07D0FB79032B04D01F
:100DE000FB79042B01D0FB79052B0948FA793B6884
:100DF000012101FA03F319461346DB0013449B005B
:100E00000344103319600C37BD465DF8047B70470E
:100E10000060004090B585B000AFB9607B600346CC
:100E2000FB731346BB73FB7B002B0DD0FB7B012BAD
:100E30000AD0FB7B022B07D0FB7B032B04D0FB7B70
:100E4000042B01D0FB7B052BBB7B002B0DD07B68DB
:100E5000002B05D0FB7B1846B968FFF7AFFF04E015
:100E6000FB7B1846B968FFF77DFFBB68072B1DD8D1
:100E70002B48FA7B2A4CF97B0B46DB000B449B008A
:100E800023445968BB689B000F2404FA03F3DB4337
:100E90001940BC7BBB689B0004FA03F3194313465B
:100EA000DB0013449B000344596024E01C48FA7B98
:100EB0001B4CF97B0B46DB000B449B00234408339F
:100EC0001968BB6803F18043083B9B000F2404FAB8
:100ED00003F3DB431940BC7BBB6803F18043083B51
:100EE0009B0004FA03F319431346DB0013449B00F1
:100EF000034408331960BB7B002B0DD17B68002BAA
:100F000005D0FB7B1846B968FFF758FF04E0FB7B70
:100F10001846B968FFF726FF1437BD4690BD00BFDD
:100F20000060004080B485B000AF7860194B5B6909
:100F3000DBB203F00F03DBB29B00FB73154B1B69A5
:100F400003F0C0039B09DAB2FB7B1343FB737B689E
:100F5000FA7B9A700F4B1B69DBB203F03F03DAB2E6
:100F60007B685A700B4B9B69DBB223F00F03FB735A
:100F7000084BDB6903F0F0031B09DAB2FB7B134378
:100F8000FB737B68FA7B1A701437BD465DF8047BEF
:100F9000704700BFD0FF0FE0064880470649074A68
:100FA000074B9A42BEBF51F8040B42F8040BF8E716
:100FB000FFF7BEF81D110000C8210000000000204E
:100FC00078000020FEE700BF80B400AF044BDB6C6C
:100FD0001B0EDBB21846BD465DF8047B704700BFB0
:100FE000B081E00F80B582B000AF00F01FF87860EC
:100FF0000C4B1B6803F4E0339B0B01337A68B2FBA4
:10100000F3F37B60074B5B6803F00F037A6822FA07
:1010100003F37B60044B7A681A607B6818460837D4
:10102000BD4680BD00800C40B400002080B582B079
:1010300000AF2F4BDB6A03F47053B3F5805F0AD027
:10104000B3F5005F03D0B3F5006F08D00BE0294B78
:101050001B687B6047E04FF400437B6043E0264B16
:101060001B687B603FE0224BDB6803F4E063B3F571
:10107000007F1BD0B3F5007F05D8002B24D0B3F53B
:10108000807F16D02BE0B3F5806F09D0B3F5A06F49
:1010900003D0B3F5407F06D021E0184B7B6021E000
:1010A000174B7B601EE0174B7B601BE0164B7B6091
:1010B00018E0FFF789FF0346122B02D9134B7B6020
:1010C00010E0134B7B600DE0FFF77EFF0346122B11
:1010D00002D9104B7B6005E00F4B7B6002E00023E0
:1010E0007B6000BF00BF7B6818460837BD4680BDE7
:1010F00000800C400400002000000020003FAB01F5
:10110000406F4001809FD500C0D8A70040B5640063
:10111000C0CF6A00804F120040420F0080B400AF81
:10112000BD465DF8047B704780B400AF4FF40043C8
:101130001846BD465DF8047B704700BF80B400AF21
:101140004FF47A731846BD465DF8047B704700BFC4
:1011500080B400AF034B1B681846BD465DF8047BA6
:10116000704700BF0400002080B400AF314B314A0B
:10117000526C42F400525A642F4B2F4AD2F820216D
:1011800042F00402C3F820212B4B2B4AD2F8202135
:1011900022F44072C3F82021274B274AD2F8B82006
:1011A00022F47062C3F8B820234B234AD2F8B82047
:1011B00042F48062C3F8B8201E4B10221A6200BFAE
:1011C0001C4BDB6A03F02003002BF9D01B4B1B4A9E
:1011D000126842F001021A60184B184AD26842F0B5
:1011E0008072DA60164B174A1A60174B0F221A6189
:1011F000154B0222C3F8F020134B4FF48072C3F852
:1012000004234FF06043114AC3F8B02F4FF06043FE
:101210000F4AC3F8802E4FF060434FF06042D2F87F
:10122000002E42F00102C3F8002EBD465DF8047B9B
:10123000704700BF00800C4000600040F0ED00E00F
:10124000001000E0FF130140000004E055CEACC5E3
:101250000900010080B582B000AF4FF07E637B6073
:101260007B681B68002B01D1002302E0FFF77CFFA5
:10127000012318460837BD4680BD00BF08B5074B9F
:10128000044613B10021AFF30080054B1868836A50
:1012900003B19847204600F02BFF00BF000000007C
:1012A0002421000070B50E4B0E4D0024ED1AAD1038
:1012B0001E46AC4204D056F8242090470134F8E78B
:1012C00000F018FF084D094B0024ED1AAD101E4622
:1012D000AC4204D056F8242090470134F8E770BDA2
:1012E0006C0000206C000020700000206C000020CA
:1012F00002440346934202D003F8011BFAE7704709
:101300000FB40A4B13B51C6824B1A36913B9204666
:1013100000F084FC05AB2046A168049A019300F01C
:101320002FF802B0BDE8104004B0704768000020FC
:10133000936810B5013B002B936005DA9469A342D2
:1013400008DBCBB20A2B05D01368581C106019704B
:10135000C8B210BDBDE8104000F09CBAF8B5054613
:101360000E461446D718BC4208D0284614F8011B74
:101370003246FFF7DDFF431CF5D100E00020F8BD49
:101380002DE9F0439DB00D4617460393064618B16C
:1013900083690BB900F042FC734B9D4201D1756823
:1013A00008E0724B9D4201D1B56803E0704B9D424D
:1013B00008BFF568AB8918070AD52B6943B100232C
:1013C000099320238DF8293030238DF82A3038E016
:1013D0003046294600F0B2FA0028F0D04FF0FF3036
:1013E000BEE0039A111D12680391002A70DB079278
:1013F000013423782E2B7DD05E4F2178384603228E
:1014000000F0C2FC30B1C71B4020B840049B01343F
:1014100003430493217858480622671C8DF828104E
:1014200000F0B2FC002800F08980544B002B7CD1E6
:10143000039B073323F0070308330393099B4344BB
:1014400009933B461C4613F8012B1AB9B4EB070964
:101450000ED002E0252AF5D1F8E7304629463A4673
:101460004B46FFF77BFF013075D0099B4B44099336
:101470002378002B6FD000234FF0FF3204930793A3
:10148000059206938DF853301A9304F101093C4FED
:101490004C4638462178052200F076FC09F1010916
:1014A000049B28B1C71B0120B84003430493EEE717
:1014B000D90644BF20228DF853201A0744BF2B229F
:1014C0008DF8532022782A2A8BD0079B214605E0ED
:1014D000524243F002030792049389E70C462278B4
:1014E0000131303A092A03D80A2000FB0323F5E72B
:1014F00007937EE763782A2B09D1039B02341A1DD8
:101500001B680392002BB8BF4FF0FF330BE0611C48
:1015100000230C4622780131303A092A03D80A20E8
:1015200000FB0323F5E7059366E703AB0093304622
:1015300004A92A46134BAFF3008007E003AB0093E6
:10154000304604A92A460F4B00F090F8B0F1FF3F57
:1015500080467FF473AFAB895B063FF53FAF0998D8
:101560001DB0BDE8F08300BF5C2100007C210000BD
:101570009C2100002E21000032210000000000000C
:10158000282100005D1300002DE9F84315461F4691
:101590008A680B6906469A42A8BF13462B6091F8E9
:1015A00043200C46DDF820800AB101332B6023680C
:1015B000990602D52B6802332B60236813F00609C5
:1015C0001DD094F843302268003318BF01239206DF
:1015D0001FD5E118302081F843005A1C94F84510BB
:1015E0002244023382F8431013E03046394604F1B6
:1015F00019020123C047013007D009F10109E2684F
:101600002B68D31A9945F0DBDBE74FF0FF30BDE8DC
:10161000F8833046394604F14302C0470130F4D024
:1016200023682A6803F00603E168042B08BFC2EBB5
:1016300001052369A2680CBF25EAE57500259A42D9
:10164000C4BFC3EB0203ED184FF00009A9450ADA45
:101650003046394604F11A020123C0470130D4D084
:1016600009F10109F2E70020BDE8F8832DE9FF4701
:101670000E7E80466E2E0C4691469A460C9D01F1D8
:10168000430000F0A58011D8632E22D009D8002E87
:1016900000F0AF80582E40F0BF8081F845607B4A53
:1016A0004FE0642E1ED0692E1CD0B5E0732E00F0E2
:1016B000A48009D86F2E2BD0702E40F0AD800B681F
:1016C00043F020030B6038E0752E21D0782E34D003
:1016D000A2E02B6801F142071A1D1B682A6081F8FD
:1016E00042309DE022682B6812F0800F03D01A1D53
:1016F0002A601D6805E05106F9D51A1D2A60B3F964
:101700000050002D39DA2D236D4284F8433034E047
:1017100022682B6812F0800F03D01A1D2A601D6802
:1017200004E05206F9D51A1D2A601D88237E574A07
:101730006F2B14BF0A2308231BE07823544A84F834
:1017400045302368296813F0800F01F104062E60EC
:1017500001D00D6802E05F06FBD50D88DE0744BFAF
:1017600043F0200323601DB9236823F02003236086
:101770001023002184F8431001E0444A0A236668DC
:10178000002EA66003DB216821F00401216005B969
:101790006EB104F14201B5FBF3F603FB1655555D3E
:1017A0000F4601F801593546002EF4D100E00746F6
:1017B000082B0AD12368DD0707D5626823699A429E
:1017C00003DC302307F8013C013FC01B20612CE003
:1017D00009682B6811F0800F626904D0191D296017
:1017E0001B681A6005E04906F8D5191D29601B68B9
:1017F0001A8000232361074617E02B681A1D2A6010
:101800001F68384600F0B9FB63682061984288BFC2
:1018100023612369636005E004F1420784F84260B4
:1018200001232361002384F84330CDF800A0404613
:10183000214603AA4B46FFF7A7FE013002D14FF025
:10184000FF301FE0404649463A462369D047013001
:10185000F5D023689B0705D4E068039B9842B8BF86
:1018600018460FE00025E268039BD31A9D42F3DA85
:101870004046494604F119020123D0470130DED029
:101880000135F0E704B0BDE8F08700BF3921000062
:101890004A21000070B50E461446054618B183690A
:1018A0000BB900F0BBF9224B9C4201D16C6808E0F7
:1018B000204B9C4201D1AC6803E01F4B9C4208BF07
:1018C000EC68A369A360A3891A0709D523693BB112
:1018D00023692068F6B2C01A636998420FDB08E0FA
:1018E0002846214600F02AF80028F1D04FF0FF30BA
:1018F00070BD2846214600F013F90028F6D1A368F0
:101900000130013BA36023685A1C22601E7063698A
:10191000984204D0A389DB0707D50A2E05D12846B3
:10192000214600F0FDF80028E0D1304670BD00BF30
:101930005C2100007C2100009C210000324B70B52E
:101940001D6806460C4625B1AB6913B9284600F060
:1019500065F92E4B9C4201D16C6808E02C4B9C42EF
:1019600001D1AC6803E02B4B9C4208BFEC68A28914
:1019700093B2190720D4DD0605D4092342F04002B2
:101980003360A2813BE0580712D5616B41B104F18D
:101990004403994202D0304600F004FA0023636306
:1019A000A38923F02403A3810023636023692360B8
:1019B000A38943F00803A38123694BB9A38903F4E6
:1019C0002073B3F5007F03D03046214600F090F934
:1019D000A38913F0010205D00022A260626952427D
:1019E000A26103E0990758BF6269A26022694AB9FF
:1019F00003F0800080B230B143F04003A3814FF088
:101A0000FF3070BD002070BD680000205C21000028
:101A10007C2100009C2100008A892DE9F0410546C7
:101A200010070C4657D44B68002B02DC0B6C002BC4
:101A300018DDE66AB6B102F48052002392B22F6834
:101A40002B600AB1626D10E0216A28460123B0477D
:101A5000411C024609D12B683BB11D2B01D0162B2E
:101A600046D12F600020BDE8F081A3895B0705D532
:101A70006368D21A636B0BB1236CD21AE66A2846EC
:101A8000216A0023B047461CA28905D12B681BB1EF
:101A90001D2B01D0162B19D1002363602369D104BB
:101AA000236004D5421C01D12B6803B96065616BCA
:101AB0002F600029D6D004F14403994202D0284671
:101AC00000F070F900206063BDE8F08142F0400250
:101AD000A281BDE8F0810E69002EC3D00B680E60B4
:101AE000C6EB030893070CBF4B6900238B6012E021
:101AF000A3894FF0FF3043F04003A381BDE8F0819C
:101B0000A76A2846216A32464346B8470028EFDDD7
:101B10000644C0EB0808B8F1000FF1DCA2E70000B2
:101B200038B50B6905460C46DBB118B183690BB9B2
:101B300000F074F80C4B9C4201D16C6808E00B4B30
:101B40009C4201D1AC6803E0094B9C4208BFEC68A1
:101B5000B4F90C302BB128462146BDE83840FFF7D8
:101B60005BBF002038BD00BF5C2100007C2100006D
:101B70009C210000F8B5074600F1480494B1A5681F
:101B80006668013E0CD4AB89012B07D9B5F90E303C
:101B9000013303D038462946FFF7C2FF6835F0E726
:101BA0002468EBE7F8BD0000002310B5044603608D
:101BB0004360836081814366C281036143618361C5
:101BC00019465C300822FFF793FB054B24626362E1
:101BD000044BA362044BE362044B236310BD00BFBC
:101BE000F51E0000171F00004F1F0000731F0000AC
:101BF00070B54B1E68255D430E4605F1740100F07B
:101C000015F9044640B1002180E842000C30A06084
:101C100005F16802FFF76CFB204670BD836910B5C3
:101C2000044633BB8364C3640365124B124A1B68CA
:101C30008262984204BF0123836100F01FF8606054
:101C4000204600F01BF8A060204600F017F80421A1
:101C5000E06000226068FFF7A7FFA0680921012269
:101C6000FFF7A2FFE06812210222FFF79DFF012388
:101C7000A36110BD24210000751B0000F8B51B4BAB
:101C800007461E68B36913B93046FFF7C7FF4836E9
:101C9000B4687368013B04D4B4F90C5075B168346E
:101CA000F8E733682BB938460421FFF7A1FF30600D
:101CB00008B13668ECE70C233B60F8BD4FF6FF73C4
:101CC000E3810123A38165662560A56065602561C8
:101CD0006561A56104F15C0029460822FFF708FB55
:101CE0006563A563A564E5642046F8BD2421000072
:101CF000F0B58B8991B09E0705460C4625D4B1F905
:101D00000E10002908DAA389002713F0800F14BFF2
:101D100040264FF480660DE001AA00F059F9002832
:101D2000F1DB029F4FF4806607F47047B7F500516E
:101D30004F424F412846314600F078F860B9A389F8
:101D40009A051DD443F00203A38104F147032360E5
:101D500023610123636113E00A4BAB62A389206016
:101D600043F08003A381206166614FB12846B4F936
:101D70000E1000F03FF918B1A38943F00103A381CD
:101D800011B0F0BD751B000010B5C9B202449042FD
:101D9000034605D01C7801308C42F8D1184610BD9E
:101DA000002010BD30B500293CD051F8042C0B1F89
:101DB0001D49002AB8BF9B180A680C4612B95A6020
:101DC0000B6030BD93420DD219685818904203D170
:101DD0005A581144426819605A60236030BD9942D4
:101DE00003D80A4651680029F9D1146815199D4293
:101DF0000AD11B682344D0188842136012D10868A6
:101E0000034413604B680CE002D90C23036030BD1F
:101E100018681C188C4203D10C684968204418606B
:101E20005960536030BD00BF9800002070B5CD1CD4
:101E300025F0030508350C2D38BF0C25002D06466E
:101E40003FDB8D423DD3214B1C6818462146A1B192
:101E50000B685B1B0ED40B2B03D90B60CC18CD5039
:101E60001FE08C4202D1626802601AE04B68636036
:101E70000C4616E00C464968E9E7154C23681BB987
:101E8000304600F027F820602946304600F022F85E
:101E9000431C014615D0C41C24F0030484420AD11B
:101EA000256004F10B00231D20F00700C31A0BD09E
:101EB0005A42E25070BD3046611A00F00BF8013012
:101EC000EED10C233360002070BD00BF98000020CD
:101ED0009400002038B5064C0023054608462360D0
:101EE00000F0E4F8431C02D1236803B12B6038BD35
:101EF000B800002010B50C46B1F90E1000F09CF8A7
:101F0000002803DB636D0344636510BDA38923F4DC
:101F10008053A38110BD2DE9F0411D468B890746F2
:101F2000DB050C46164605D5B1F90E10002202233A
:101F300000F070F8A389384623F48053A381B4F9E4
:101F40000E1032462B46BDE8F04100F01FB810B528
:101F50000C46B1F90E1000F05DF8431CA38903D1C3
:101F600023F48053A38110BD43F48053A3816065A3
:101F700010BDB1F90E1000F01BB8034613F8012B89
:101F8000002AFBD1181A01387047000038B5074CF9
:101F9000054600202060084611461A4600F0A0F8C9
:101FA000431C02D1236803B12B6038BDB800002068
:101FB00038B5064C002305460846236000F04EF86D
:101FC000431C02D1236803B12B6038BDB800002048
:101FD00038B5074C0023054608461146236000F03B
:101FE00045F8431C02D1236803B12B6038BD00BF04
:101FF000B800002038B5064C00230546084623608B
:1020000000F03CF8431C02D1236803B12B6038BDBB
:10201000B800002038B5074C05460020206008466F
:1020200011461A4600F032F8431C02D1236803B16E
:102030002B6038BDB800002038B5074C054600209D
:102040002060084611461A4600F028F8431C02D1C9
:10205000236803B12B6038BDB8000020024B582222
:102060001A604FF0FF307047B8000020024B582232
:102070001A604FF0FF307047B8000020024B582222
:102080001A600020704700BFB8000020024B5822A1
:102090001A604FF0FF307047B8000020024B582202
:1020A0001A604FF0FF307047B8000020094A1368EB
:1020B00063B118446946884202D8106018467047D8
:1020C000054B0C221A604FF0FF307047034B136032
:1020D000EFE700BF9C000020B8000020C0000020F7
:1020E000024B58221A604FF0FF307047B8000020B2
:1020F000FEE700BFF8B500BFF8BC08BC9E467047BD
:10210000F8B500BFF8BC08BC9E46704755706461C6
:1021100074652025643A25643A25640A00000000AD
:102120004300000008000020232D302B2000686CA5
:102130004C006566674546470030313233343536EA
:102140003738394142434445460030313233343523
:10215000363738396162636465660000000000004C
:10216000000000000000000000000000000000006F
:10217000000000000000000000000000000000005F
:10218000000000000000000000000000000000004F
:10219000000000000000000000000000000000003F
:1021A000000000000000000000000000000000002F
:1021B000000000000000000000000000000000001F
:0821C00070DFFF7F0100000049
:1021C800006CDC0200800000000000005C210000C0
:1021D8007C2100009C21000000000000000000009D
:1021E80000000000000000002021000000000000A6
:1021F80000000000000000000000000000000000D7
:1022080000000000000000000000000000000000C6
:1022180000000000000000000000000000000000B6
:10222800000000000000000008000020010100007C
:08223800DD00000000000000C1
:0400000300000F9951
:00000001FF
