:10000000002000200D0F0000390F0000390F000004
:10001000390F0000390F0000390F0000390F0000C0
:10002000390F0000390F0000390F0000390F0000B0
:10003000390F0000390F0000390F0000C90300001C
:10004000390F0000390F0000390F0000390F000090
:10005000390F0000390F0000390F0000390F000080
:10006000390F0000390F0000390F0000390F000070
:10007000390F0000390F0000390F0000390F000060
:10008000390F0000390F0000390F0000390F000050
:10009000390F000010B5064C2378002B07D1054B13
:1000A000002B02D0044800E000BF0123237010BDE4
:1000B00074000020000000003412000008B5084B56
:1000C000002B03D00748084900E000BF0748036839
:1000D000002B03D0064B002B00D0984708BDC0462C
:1000E00000000000341200007800002070000020A2
:1000F00000000000164B002B00D1144B9D464022FF
:1001000092029A1A924600218B460F461348144ACF
:10011000121A01F04FF80F4B002B00D098470E4BEE
:10012000002B00D098470020002104000D000D484E
:10013000002802D00C4800E000BF01F015F82000B4
:10014000290000F063F900F0F9FFC0460000080044
:1001500000200020000000000000000074000020CB
:10016000A8000020000000000000000080B500AFE3
:100170001B4B1A681B4B9A422AD1194B00221A605A
:10018000194B1B683B2B1DD1174B00221A60174BD4
:100190001B683B2B10D1154B00221A60144B1B68B7
:1001A000172B03D1124B00221A6016E0104B1B686C
:1001B0005A1C0F4B1A6010E00C4B1B685A1C0B4B5F
:1001C0001A600AE0084B1B685A1C074B1A6004E0CF
:1001D000034B1B685A1C024B1A60BD4680BDC046CB
:1001E00098000020E7030000900000209C00002001
:1001F0009400002080B500AF024B1B68181CBD4660
:1002000080BDC0469400002080B500AF024B1B6843
:10021000181CBD4680BDC0469C00002080B500AFC4
:10022000024B1B68181CBD4680BDC04690000020D4
:1002300080B584B000AFF860B9607A60054BFA68A9
:100240001A60054BBA681A60044B7A681A60BD469A
:1002500004B080BD940000209C000020900000208D
:10026000B0B582B000AF021C3960FB1D1A70FB1DD7
:100270001B787F2B32D93049FB1D1B781A1C0F23AA
:100280001340083B98082C4AFB1D1B781C1C0F23AD
:100290002340083B9B0806339B00D3185B68FA1D7C
:1002A0001278141C03222240D200FF24251C954002
:1002B0002A1CD2431A403B689C01FF231C40FB1DB3
:1002C0001B781D1C03232B40DB00251C9D402B1C91
:1002D0001A43831D9B00CB185A6029E0174BFA1D67
:1002E000127852B292081549F81D007840B2800881
:1002F000C03080004158F81D0078041C03202040C5
:10030000C000FF24251C8540281CC04308403968D4
:100310008C01FF210C40F91D09780D1C0321294097
:10032000C900251C8D40291C0143C0329200D150C8
:10033000BD4602B0B0BDC04600ED00E000E100E007
:1003400080B582B000AF78607B685A1E0C4B9A4231
:1003500001D9012310E00B4B7A68013A5A6001235E
:100360005B42181C0321FFF77BFF064B00229A60BB
:10037000044B07221A600023181CBD4602B080BD42
:10038000FFFFFF0010E000E080B582B000AF094B36
:100390001B687B607B681B0E812B08D8064B074AC5
:1003A0001A60074B064A1168064A0A401A60BD46A1
:1003B00002B080BDFC81E00F18600C400500000415
:1003C000E4800C40FFFFFFFE80B500AF044B1B68CC
:1003D0005A1C034B1A60FFF7C9FEBD4680BDC046DC
:1003E000A000002080B584B000AF7860064B1B6889
:1003F000FB60C046044B1A68FB68D21A7B689A42BD
:10040000F8D3BD4604B080BDA000002080B582B006
:1004100000AFFFF7B9FF2A4B181C012100F04EFA7C
:10042000284B181C00F0A4FA031C181CFA2399008E
:1004300000F034FE031C181CFFF782FF031C002B86
:1004400000D0FEE700237B6009E07B680320191CD5
:100450000422002300F0AAFC7B6801337B607B68E8
:10046000062BF2DD022000210422002300F09EFC76
:1004700013203B213722FFF7DBFEFFF7BBFE031CF7
:10048000181C00F08DF8FA20FFF7ACFFFFF7BCFE58
:10049000031C181C00F084F8FA20FFF7A3FFFFF7F5
:1004A000BDFE031C181C00F07BF8FA20FFF79AFF32
:1004B000002000F075F8FA20FFF794FFDDE7C04652
:1004C000008204005000020090B585B000AF021C0D
:1004D000B9603B1C0F331A703B1C0F331B78002B89
:1004E00011D03B1C0F331B78012B0CD03B1C0F335E
:1004F0001B78022B07D03B1C0F331B78032B02D039
:100500003B1C0F331B780A483B1C0F331A78BB681F
:1005100001210C1C9C40231C191C131CDB009B1884
:100520009B00C31810335960BD4605B090BDC0464E
:100530000060004090B585B000AF021CB9603B1C64
:100540000F331A703B1C0F331B78002B11D03B1C50
:100550000F331B78012B0CD03B1C0F331B78022B65
:1005600007D03B1C0F331B78032B02D03B1C0F33EF
:100570001B780A483B1C0F331A78BB6801210C1CFE
:100580009C40231C191C131CDB009B189B00C318E8
:1005900010331960BD4605B090BDC04600600040F4
:1005A00080B584B000AF78600023FB601AE07A6801
:1005B00001231340BB60BB68002B05D1FB680320FF
:1005C000191CFFF781FF07E0BB68012B04D1FB6812
:1005D0000320191CFFF7AEFF7B685B107B60FB6894
:1005E0000133FB60FB68062BE1DD7B68002B04D147
:1005F00002200021FFF768FF06E07B68012B03D192
:1006000002200021FFF796FFBD4604B080BDC04622
:1006100080B586B000AFF860B9607A60FB681B688F
:100620007B61BB680122101C9840031CDB437A6984
:100630001A40796801231940BB68081C9840031CC4
:100640001A43FB681A60BD4606B080BD80B582B013
:1006500000AF1A4B5A69E023DB001340802292005E
:10066000934216D080229200934206D8002B16D0D7
:100670008022520093420FD017E0C0229200934292
:1006800004D0E022D20093420CD00EE00C4B7B60F1
:100690000EE00C4B7B600BE00B4B7B6008E00B4BE0
:1006A0007B6005E00A4B7B6002E000237B60C04674
:1006B0007B68181CBD4602B080BDC04600800C405F
:1006C00040420F00C0CF6A00C0D8A700809FD5006D
:1006D000406F400190B583B000AFFC1C154B181C57
:1006E00000F006FA031C2370FB1C1B78072B13D0A9
:1006F000082B16D100F040FC031C7B600E4B1A68DF
:10070000E0235B0213409B0B01337868191C00F057
:10071000C5FC031C7B6007E0FFF798FF031C7B60B0
:1007200002E000237B60C0467B68181CBD4603B016
:1007300090BDC04606000C0000800C4080B584B01F
:1007400000AF78600023BB607B68374A934206D0D5
:10075000364A934203D0364A934200D000E0C04666
:100760007B68181C00F0C4F9031CFB607B682E4AF0
:1007700093420CD02D4A934210D02D4A934200D080
:1007800013E02C4B9A6A03231340FB600DE0294BC6
:100790009A6A0C2313409B08FB6006E0254B9A6A7B
:1007A000302313401B09FB60C046FB68012B05D0BA
:1007B00014D3022B07D0032B0AD02DE000F054FCF9
:1007C000031CBB602BE000F05FFC031CBB6026E059
:1007D00000F0B4FB031C5B08BB6020E00023BB609F
:1007E0007A68134B9A4203D07A680F4B9A4212D11F
:1007F000104B9A6A79680E4B994201D1102300E0A0
:100800001423111CD9400B1C002B04D000F034FC25
:10081000031CBB6003E002E00023BB60C046BB6872
:10082000181CBD4604B080BD03001A0004001C0063
:100830000200180000800C4080B582B000AF7860E4
:10084000074B5A6D0123134000D005E0C046044B0E
:100850001B6D7A681340FAD1BD4602B080BDC04618
:1008600000800C4090B583B000AFFC1C124B181CEC
:1008700000F03EF9031C2370FB1C1B78032B08D0EF
:10088000082B0BD0022B0ED100F0FEFB031C7B606B
:100890000CE000F0E9FB031C7B6007E000F06CFB60
:1008A000031C7B6002E000237B60C0467B68181C51
:1008B000BD4603B090BDC0460733200080B586B06A
:1008C00000AF78600A1CFB1C1A7000233B617B6838
:1008D0001A0A0F2313400A2B36D89A001C4BD31840
:1008E0001B689F461B4B7B6118E01B4B7B6115E02F
:1008F0001A4B7B6112E01A4B7B6101233B610DE0D7
:10090000184B7B6110233B6108E0174B7B61802310
:100910005B003B6102E0154B7B61C0467B681A0BB4
:100920001F231340FB603B69002B03D03B69181C5D
:10093000FFF782FFFB1C1B787969FA68081C111C01
:100940001A1CFFF765FE00E0C046BD4606B080BD3C
:10095000E011000040800C4008800C4044800C40B6
:1009600058800C4060800C4064800C4078800C40C3
:1009700080B584B000AF78607A68F8239B03134099
:10098000E0221203934200D19AE0E0221203934244
:1009900014D880229202934258D08022920293422D
:1009A00002D8002B24D095E08022D202934231D08D
:1009B000C0221203934200D17DE08BE0C02252039B
:1009C000934248D0C0225203934208D88022520357
:1009D000934247D0A022520393425BD07AE0D022C8
:1009E000520393424FD08022920393426DD071E024
:1009F00000F0C2FA031CFB603A4B1A68E0235B026A
:100A000013409B0B0133F868191C00F047FB031CD3
:100A1000FB6062E000F0B0FA031CFB60314B1A6827
:100A2000E0235B0213409B0B0133F868191C00F0B4
:100A300035FB031CFB602B4B9B681A1C0F231340D8
:100A4000FA68111CD9400B1CFB6046E000F076FAF6
:100A5000031CFB6041E0244B181CFFF76FFE031CD6
:100A6000FB603AE0204B181CFFF768FE031CFB609C
:100A70001C4B9B6E1A1C0F231340FA68111CD940A3
:100A80000B1CFB6029E0194B181CFFF757FE031CD9
:100A9000FB6022E0154B181CFFF750FE031CFB60A7
:100AA000104B1B6F1A1C03231340FA68111CD9400A
:100AB0000B1CFB6011E0FFF70DFE031CFB600CE05C
:100AC000FFF7C4FD031CFB6007E0FFF7CBFE031C30
:100AD000FB6002E00023FB60C046FB68181CBD46BB
:100AE00004B080BD00800C400200180003001A0012
:100AF00080B584B000AF78603B1C0F3301221A70C0
:100B00007A680F231340BB60BB68072B00D9CEE087
:100B1000BB689A006C4BD3181B689F466B4BDA6A14
:100B20006B4B134080225201934216D08022520117
:100B3000934204D880221201934213D01CE08022F9
:100B40009201934204D08022D20493420FD013E04A
:100B50003B1C0F3302221A7013E03B1C0F3303229D
:100B60001A700EE03B1C0F3304221A7009E03B1C84
:100B70000F330A221A7004E03B1C0F3305221A704F
:100B8000C04699E0514B9A6A03231340022B08D0C8
:100B9000032B0BD0012B0ED13B1C0F3303221A70F9
:100BA00015E03B1C0F3302221A7010E03B1C0F3380
:100BB00006221A700BE0454B9A6A80235B021340B1
:100BC00004D03B1C0F330B221A7000E0C04673E0C8
:100BD0003E4B9A6A0C231340082B08D00C2B0BD0E9
:100BE000042B0ED13B1C0F3303221A7015E03B1C63
:100BF0000F3302221A7010E03B1C0F3306221A70CA
:100C00000BE0324B9A6A80235B03134004D03B1CF9
:100C10000F330B221A7000E0C0464DE02B4B9A6A4E
:100C200030231340102B02D0202B05D009E03B1CB1
:100C30000F3303221A7009E03B1C0F3302221A7093
:100C400004E03B1C0F3301221A70C04634E03B1C09
:100C50000F3307221A703B1C0F3307221A702BE048
:100C60001A4BDA6AE023DB0213408022920293429D
:100C700012D08022D202934204D0802252029342A8
:100C800005D00EE03B1C0F3309221A700EE03B1C0E
:100C90000F3302221A7009E03B1C0F3303221A7033
:100CA00004E03B1C0F3301221A70C04604E03B1CD9
:100CB0000F3300221A70C0463B1C0F331B78181CE0
:100CC000BD4604B080BDC0460C12000000800C4040
:100CD000003C000490B585B000AF021CB9603B1C1D
:100CE0000F331A703B1C0F331B78002B11D03B1CA9
:100CF0000F331B78012B0CD03B1C0F331B78022BBE
:100D000007D03B1C0F331B78032B02D03B1C0F3347
:100D10001B780A483B1C0F331A78BB6801210C1C56
:100D20009C40231C191C131CDB009B189B00C31840
:100D300010335960BD4605B090BDC046006000400C
:100D400090B585B000AF021CB9603B1C0F331A7020
:100D50003B1C0F331B78002B11D03B1C0F331B782F
:100D6000012B0CD03B1C0F331B78022B07D03B1CF4
:100D70000F331B78032B02D03B1C0F331B780A4820
:100D80003B1C0F331A78BB6801210C1C9C40231CB0
:100D9000191C131CDB009B189B00C318103319602F
:100DA000BD4605B090BDC04600600040B0B586B0FD
:100DB00000AF3961FB603B1C1733011C19703B1CF1
:100DC00016331A703B1C17331B78002B11D03B1CB9
:100DD00017331B78012B0CD03B1C17331B78022BCD
:100DE00007D03B1C17331B78032B02D03B1C173357
:100DF0001B783B1C16331B78002B13D0FB68002B91
:100E000008D03B1C17331A783B69101C191CFFF7DC
:100E100097FF07E03B1C17331A783B69101C191C1D
:100E2000FFF758FF3B69072B25D836483B1C173383
:100E30001A78344C3B1C173319780B1CDB005B18F9
:100E40009B00E3185B68396989000F24251C8D40DD
:100E5000291CC94319403B1C16331C783B699B0075
:100E6000251C9D402B1C1943131CDB009B189B0069
:100E7000C31859602AE023483B1C17331A78214CC9
:100E80003B1C173319780B1CDB005B189B00E31825
:100E900008331B6839691C4C091989000F24251C6B
:100EA0008D40291CC94319403B1C16331C783B69F3
:100EB000154D5B199B00251C9D402B1C1943131CD1
:100EC000DB009B189B00C318083319603B1C1633CA
:100ED0001B78002B13D1FB68002B08D03B1C173369
:100EE0001A783B69101C191CFFF72AFF07E03B1C0E
:100EF00017331A783B69101C191CFFF7EBFEBD462F
:100F000006B0B0BD00600040F8FFFF3F06488047D4
:100F10000649074A074B9B1A03DD043BC858D050CB
:100F2000FBDCFFF7E7F80000611000004012000052
:100F30000000002074000020FEE7C04680B582B0AB
:100F400000AF00F019F8031C7B60094B5B681A1CAA
:100F50000F2313407A68111CD9400B1C7B60054B92
:100F60007A681A607B68181CBD4602B080BDC04616
:100F700000800C40A400002080B582B000AF2E4B52
:100F8000DA6A2E4B134080225201934215D0802200
:100F90005201934204D880221201934211D017E0EB
:100FA00080229201934204D08022D20493420CD03A
:100FB0000EE0234B1B687B6039E080231B027B60C3
:100FC00035E0204B1B687B6031E01F4B7B602EE0DF
:100FD000194BDA68E023DB00134080229200934231
:100FE00018D080229200934206D8002B18D080227D
:100FF0005200934211D016E0C0229200934206D0D4
:101000008022D20093420ED1104B7B600EE0104B39
:101010007B600BE00F4B7B6008E00F4B7B6005E0D3
:101020000E4B7B6002E000237B60C046C0467B68BD
:10103000181CBD4602B080BD00800C40003C00047E
:10104000040000200000002000366E01406F4001C7
:10105000809FD500C0D8A70040B56400804F120023
:1010600080B500AFBD4680BD80B500AF80231B02B8
:10107000181CBD4680BDC04680B500AFFA239B005A
:10108000181CBD4680BDC04680B500AF024B1B6832
:10109000181CBD4680BDC04604000020002934D085
:1010A0000123002210B488422CD301242407A1423A
:1010B00004D2814202D209011B01F8E7E400A142F7
:1010C00004D2814202D249005B00F8E7884201D392
:1010D000401A1A434C08A04202D3001B5C0822436A
:1010E0008C08A04202D3001B9C082243CC08A042DB
:1010F00002D3001BDC082243002803D01B0901D0C7
:101100000909E3E7101C10BC7047002801D000203B
:10111000C04307B4024802A14018029003BDC04674
:10112000190000000029F0D003B5FFF7B9FF0EBC8D
:101130004243891A1847C0467047C046084B10B54D
:10114000041C002B02D0002100E000BF054B1868F2
:10115000836A002B00D09847201C00F033F8C0466B
:10116000000000003012000070B50E4B0E4D002440
:10117000ED1AAD101E1CAC4204D0A300F3589847E2
:101180000134F8E700F020F8084B094D0024ED1A6F
:10119000AD101E1CAC4204D0A300F3589847013494
:1011A000F8E770BD6800002068000020680000209B
:1011B0006C000020031C8218934202D01970013386
:1011C000FAE77047FEE7C046F8B5C046F8BC08BC71
:1011D0009E467047F8B5C046F8BC08BC9E467047AE
:1011E00048090000EA080000F0080000E4080000D8
:1011F0004809000048090000F60800000009000046
:101200000A0900004809000016090000AE0C0000A1
:101210001C0B0000840B0000D00B00001C0C000015
:10122000AE0C00004E0C0000600C000043000000FB
:0812300008000020000000008E
:08123800BCEEFF7F0100000085
:1012400000366E0100800000000000000000000079
:10125000000000000000000000000000000000008E
:1012600000000000000000002C1200000000000040
:10127000000000000000000000000000000000006E
:10128000000000000000000000000000000000005E
:10129000000000000000000000000000000000004E
:1012A0000000000000000000BD00000095000000EC
:0412B000000000003A
:0400000300000F0DDD
:00000001FF
