:1000000000200020A1400000CD400000CD400000B5
:10001000CD400000CD400000CD400000CD400000AC
:10002000CD400000CD400000CD400000CD4000009C
:10003000CD400000CD400000CD400000CD060000C6
:10004000CD400000CD070000CD400000CD400000B5
:10005000CD400000CD400000D9070000CD40000099
:10006000CD400000CD400000CD400000CD4000005C
:10007000CD400000CD400000CD400000CD4000004C
:10008000CD400000CD400000CD400000CD4000003C
:10009000CD40000010B5064C2378002B07D1054B4E
:1000A000002B02D0044800E000BF0123237010BDE4
:1000B0009000002000000000705F000008B5084BB1
:1000C000002B03D00748084900E000BF0748036839
:1000D000002B03D0064B002B00D0984708BDC0462C
:1000E00000000000705F0000940000208C000020E1
:1000F00000000000164B002B00D1144B9D464022FF
:1001000092029A1A924600218B460F461348144ACF
:10011000121A04F01EFA0F4B002B00D098470E4B1A
:10012000002B00D098470020002104000D000D484E
:10013000002802D00C4800E000BF04F0DBF92000EA
:10014000290000F04FFB04F0CBF8C0460000080087
:1001500000200020000000000000000090000020AF
:1001600028020020000000000000000080B500AF61
:100170000B4B1B78DBB2002B03D1094B01221A7009
:100180000BE0074B1B78DBB2012B03D1044B02229F
:100190001A7002E0024B00221A70BD4680BDC046B4
:1001A000AC00002080B500AF024B1B78DBB2181CFE
:1001B000BD4680BDAC00002080B582B000AF02F02B
:1001C000BDFC031C7B607B68002B00D0FEE7002099
:1001D00001F0EEFD031C7B607B68002B00D0FEE786
:1001E000064B181C02F010F9031C7B607B68002B87
:1001F00000D0FEE7BD4602B080BDC046B000002082
:10020000B0B588B002AF021CFB1D1A70FB1D1B7835
:10021000002B0FD01D4A1E4B101C191C02F06AFC4B
:100220001A4B00225A60194B1A4A9A60174B181C35
:1002300002F0B4F900F016F9051C00F01DF9041CD9
:1002400000F024F9011C3A1C0832134B0091101CD9
:10025000191C2A1C231C04F0EBF93B1C0833181C46
:1002600004F054FA031C09493A1C08323420009067
:1002700001200190081C111C1A1C012302F0D2FB62
:1002800002F01EF8BD4606B0B0BDC046B00000206A
:100290001C5A0000FFFFFF005450000080B586B0DC
:1002A00002AFF860B9607A60BB68022B0AD0032BFA
:1002B0000FD0012B14D1194A194B101C191C02F034
:1002C00019FC14E0154A174B101C191C02F012FC03
:1002D0000DE0124A144B101C191C02F00BFC06E036
:1002E0000E4A0F4B101C191C02F004FCC046FB68A0
:1002F000181C04F00BFA031C7A68D0000749FA684E
:10030000009001200190081C111C1A1C012302F00E
:1003100089FB01F0D5FFBD4604B080BDB0000020D0
:10032000FC5400002C5800001C5A000080B588B016
:1003300000AF78600023FB6134E07A68012313404A
:10034000BB61BB69002B12D1391C0831184AFB690B
:10035000081C111C1A1C04F06BF9FB6904333A1CCD
:100360000832101C02211A1CFFF798FF14E0BB6929
:10037000012B11D1391C08310E4AFB69081C111CD4
:100380001A1C04F055F9FB6904333A1C0832101C9E
:1003900002211A1CFFF782FF7B685B107B60FB6900
:1003A0000133FB61FB69072BC7DDBD4608B080BD8B
:1003B000645000007450000080B500AF054B064A41
:1003C0005A60044B00229A60024B181C02F0E6F8B7
:1003D000BD4680BDB0000020FFFFFF0080B500AF2C
:1003E0001B4B1A681B4B9A422AD1194B00221A60E8
:1003F000194B1B683B2B1DD1174B00221A60174B62
:100400001B683B2B10D1154B00221A60144B1B6844
:10041000172B03D1124B00221A6016E0104B1B68F9
:100420005A1C0F4B1A6010E00C4B1B685A1C0B4BEC
:100430001A600AE0084B1B685A1C074B1A6004E05C
:10044000034B1B685A1C024B1A60BD4680BDC04658
:10045000F8010020E7030000F0010020FC0100206B
:10046000F401002080B500AF024B1B68181CBD468C
:1004700080BDC046F401002080B500AF024B1B6870
:10048000181CBD4680BDC046FC01002080B500AFF1
:10049000024B1B68181CBD4680BDC046F001002001
:1004A00080B584B000AFF860B9607A60054BFA6837
:1004B0001A60054BBA681A60044B7A681A60BD4628
:1004C00004B080BDF4010020FC010020F0010020F8
:1004D00080B582B000AF021CFB1D1A70064BFA1DDE
:1004E0001278111C1F220A400121081C9040021C96
:1004F0001A60BD4602B080BD00E100E080B582B068
:1005000000AF021CFB1D1A70084AFB1D1B78191C4A
:100510001F230B400121081C9840031C191CC023F9
:100520005B00D150BD4602B080BDC04600E100E096
:10053000B0B582B000AF021C3960FB1D1A70FB1D04
:100540001B787F2B32D93049FB1D1B781A1C0F23D7
:100550001340083B98082C4AFB1D1B781C1C0F23DA
:100560002340083B9B0806339B00D3185B68FA1DA9
:100570001278141C03222240D200FF24251C95402F
:100580002A1CD2431A403B689C01FF231C40FB1DE0
:100590001B781D1C03232B40DB00251C9D402B1CBE
:1005A0001A43831D9B00CB185A6029E0174BFA1D94
:1005B000127852B292081549F81D007840B28008AE
:1005C000C03080004158F81D0078041C03202040F2
:1005D000C000FF24251C8540281CC0430840396802
:1005E0008C01FF210C40F91D09780D1C03212940C5
:1005F000C900251C8D40291C0143C0329200D150F6
:10060000BD4602B0B0BDC04600ED00E000E100E034
:1006100080B582B000AF78607B685A1E0C4B9A425E
:1006200001D9012310E00B4B7A68013A5A6001238B
:100630005B42181C0321FFF77BFF064B00229A60E8
:10064000044B07221A600023181CBD4602B080BD6F
:10065000FFFFFF0010E000E080B582B000AF094B63
:100660001B687B607B681B0E812B08D8064B074AF2
:100670001A60074B064A1168064A0A401A60BD46CE
:1006800002B080BDFC81E00F18600C400500000442
:10069000E4800C40FFFFFFFE80B582B000AF7860C1
:1006A000034A8E235B007968D150BD4602B080BDFD
:1006B0000060004080B500AF034A8A235B00D35836
:1006C000181CBD4680BDC0460060004080B500AF2C
:1006D000054B1B685A1C044B1A6000F0F9F8FFF731
:1006E0007DFEBD4680BDC0460402002080B584B0BA
:1006F00002AF234B181C012100F00AFC0220092143
:100700000222012301F0C2F80123009302200921F3
:100710000022012301F028F802200A2102220123ED
:1007200001F0B4F80123009302200A2100220123E2
:1007300001F01AF80120FFF7E1FE0120FFF7C8FEE3
:100740000620FFF7DBFE0620FFF7C2FE00237B60DA
:1007500009E07B680320191C0422002301F096F8AD
:100760007B6801337B607B68062BF2DD0220002171
:100770000422002301F08AF8BD4602B080BDC046C5
:100780000082040080B582B000AFFFF793FF031C26
:100790007B607B68181CFFF77FFF7A6880239B00D3
:1007A000134004D0FFF7E2FC064B01221A707A686E
:1007B0008023DB00134002D0034B33221A60BD4676
:1007C00002B080BD000000200802002080B500AF0C
:1007D000FFF7D8FFBD4680BD80B500AFFFF7D2FF61
:1007E000BD4680BD80B588B004AFFFF735FF00F08F
:1007F00065F82E4B181C00F0E5FB031C181CFA23AF
:10080000990003F01DFD031C181CFFF701FF031CDA
:10081000002B00D0FEE7FFF7CFFCFFF767FF1320A8
:100820003B213722FFF73CFE214BAA221A60FFF73B
:10083000B9FC031C002B05D11E4B1B78181CFFF7BD
:10084000DFFC30E0FFF7AEFC031C012B0ED1194B8F
:100850001B78002B04D0FFF7AFFD164B00221A7057
:10086000134B1B68181CFFF761FD1CE0114B1B7834
:10087000002B04D0FFF7A0FD0E4B00221A703A1C8B
:100880000D4B012100910421019106210291101CC0
:10089000191C13223B2303F0CBFE3B1C181C022126
:1008A0000422FFF7FBFC00F013F8FCE75000020005
:1008B00008020020000000208450000080B500AF36
:1008C000024BFA22D2001A60BD4680BD0C02002005
:1008D00080B500AF0A4B1B68002B0AD1FFF76CFDF7
:1008E000084B181C02210822FFF7D8FCFFF77AFFFB
:1008F00004E0034B1B685A1E014B1A60BD4680BDC5
:100900000C0200209C50000080B584B000AF7860DD
:100910000023FB6080231B06BB6005E0FB680133FE
:10092000FB60BB685B08BB607B68BA681340F5D0AE
:10093000FB68181CBD4604B080BDC04680B586B0BB
:1009400000AFF860B9607A60FB681B687B61BB68C8
:100950000122101C9840031CDB437A691A40796815
:1009600001231940BB68081C9840031C1A43FB680C
:100970001A60BD4606B080BD80B582B000AF786019
:1009800039607B681A683B68DA4001231340181C01
:10099000BD4602B080BDC04680B584B000AF78606F
:1009A0007B68002B05D07A6880231B029A4200D80E
:1009B000C0467B68181CFFF7A7FF031C1F22D31A31
:1009C000FB60FB68181CBD4604B080BD80B582B0DA
:1009D00000AF78607B680122111C99400B1C181C29
:1009E000BD4602B080BDC04680B582B000AF1A4B94
:1009F0005A69E023DB00134080229200934216D014
:100A000080229200934206D8002B16D080225200FA
:100A100093420FD017E0C0229200934204D0E0220C
:100A2000D20093420CD00EE00C4B7B600EE00C4BDE
:100A30007B600BE00B4B7B6008E00B4B7B6005E0C1
:100A40000A4B7B6002E000237B60C0467B68181C79
:100A5000BD4602B080BDC04600800C4040420F0041
:100A6000C0CF6A00C0D8A700809FD500406F40016A
:100A700090B583B000AFFC1C154B181C00F062FB56
:100A8000031C2370FB1C1B78072B13D0082B16D1DB
:100A900003F044FB031C7B600E4B1A68E0235B02EF
:100AA00013409B0B01337868191C03F0C9FB031C2E
:100AB0007B6007E0FFF798FF031C7B6002E00023E8
:100AC0007B60C0467B68181CBD4603B090BDC04625
:100AD00006000C0000800C4080B584B000AF786048
:100AE000184BDA6B3B1C0B33511E8A411A70154BA5
:100AF000154ADA63134B5A6807231340FB607A6880
:100B0000124B9A4206D87A68114B9A4202D90123B5
:100B1000FB6001E00023FB600A4B0A4A5268072190
:100B2000101C8843011CFA680A435A603B1C0B33B3
:100B30001B78002B02D0034B0022DA63BD4604B0C1
:100B400080BDC04600000C40711B00000048E80159
:100B50000024F40080B500AF03F0D8FA031C181C81
:100B6000FFF7BAFFBD4680BD80B584B000AF7860A6
:100B70000023BB607B68374A934206D0364A9342D3
:100B800003D0364A934200D000E0C0467B68181C70
:100B900000F0D8FA031CFB607B682E4A93420CD00D
:100BA0002D4A934210D02D4A934200D013E02C4B93
:100BB0009A6A03231340FB600DE0294B9A6A0C23C9
:100BC00013409B08FB6006E0254B9A6A30231340D4
:100BD0001B09FB60C046FB68012B05D014D3022B18
:100BE00007D0032B0AD02DE003F010FB031CBB60E1
:100BF0002BE003F01BFB031CBB6026E003F068FA4C
:100C0000031C5B08BB6020E00023BB607A68134BC9
:100C10009A4203D07A680F4B9A4212D1104B9A6ACB
:100C200079680E4B994201D1102300E01423111C66
:100C3000D9400B1C002B04D003F0F0FA031CBB605E
:100C400003E002E00023BB60C046BB68181CBD4641
:100C500004B080BD03001A0004001C00020018004C
:100C600000800C4080B582B000AF7860074B5A6DB1
:100C70000123134000D005E0C046044B1B6D7A6889
:100C80001340FAD1BD4602B080BDC04600800C4082
:100C900090B583B000AFFC1C124B181C00F052FA48
:100CA000031C2370FB1C1B78032B08D0082B0BD0D4
:100CB000022B0ED103F0BAFA031C7B600CE003F0A8
:100CC000A5FA031C7B6007E003F028FA031C7B6095
:100CD00002E000237B60C0467B68181CBD4603B061
:100CE00090BDC0460733200080B584B000AF786067
:100CF0007B681A090F231340BB60BB68082B4ED8D2
:100D0000BB689A002A4BD3181B689F46294B1A6868
:100D1000E0235B0213409B0B0133FB6042E0254B59
:100D20009A680F231340FB60FB68181CFFF74EFE08
:100D3000031CFB6036E01F4B5A680F231340FB6017
:100D4000FB68181CFFF742FE031CFB602AE07A6870
:100D5000194B9A420BD1174B9A6E0F231340FB602D
:100D6000FB68181CFFF732FE031CFB6002E0012346
:100D7000FB60C04616E07A68104B9A420BD10D4BCF
:100D80001A6F03231340FB60FB68181CFFF71EFE5D
:100D9000031CFB6002E00123FB60C04602E001236C
:100DA000FB60C046FB68181CBD4604B080BDC04651
:100DB000AC50000000800C4070061000800714004A
:100DC00080B584B000AF786039607B681A090F2362
:100DD0001340FB60FB68082B00D98AE0FB689A008F
:100DE000464BD3181B689F463B68002B03D03B68DB
:100DF000082B00D8C046FFF7ADFE414B404A1168B2
:100E0000404A11403A68013A92030A431A6003F0DB
:100E10005FF9031CBB60BB68181CFFF75DFE69E04F
:100E20003B68002B05D03A6880239B009A4200D88B
:100E3000C0463B68181CFFF7AFFD031C3B60304BFE
:100E40002F4A92680F21101C8843011C3A680A43FC
:100E50009A604FE0FFF77EFE3B68181CFFF79CFD91
:100E6000031C3B60264B264A52680F21101C884306
:100E7000011C3A680A435A6003F02AF9031CBB605C
:100E8000BB68181CFFF728FE34E07A681E4B9A42B4
:100E900000D013E00420FFF7E5FE3B68181CFFF7C5
:100EA0007BFD031C3B60164B154A926E0F21101CF4
:100EB0008843011C3A680A439A66C0461AE07A6879
:100EC000124B9A4200D013E04020FFF7CBFE3B6864
:100ED000181CFFF761FD031C3B60094B084A126FA9
:100EE0000321101C8843011C3A680A431A67C04654
:100EF00000E0C046BD4604B080BDC046D0500000F2
:100F000000800C40FF3FFEFF7006100080071400B9
:100F100080B586B000AF78600A1CFB1C1A700023F5
:100F20003B617B681A0A0F2313400A2B36D89A00BC
:100F30001C4BD3181B689F461B4B7B6118E01B4B57
:100F40007B6115E01A4B7B6112E01A4B7B61012338
:100F50003B610DE0184B7B6110233B6108E0174BB0
:100F60007B6180235B003B6102E0154B7B61C046E7
:100F70007B681A0B1F231340FB603B69002B03D0D7
:100F80003B69181CFFF76EFEFB1C1B787969FA6839
:100F9000081C111C1A1CFFF7D1FC00E0C046BD461E
:100FA00006B080BDF450000040800C4008800C402A
:100FB00044800C4058800C4060800C4064800C40A1
:100FC00078800C4080B584B000AF78607A68F823F0
:100FD0009B031340E0221203934200D19AE0E022E7
:100FE0001203934214D880229202934258D0802256
:100FF0009202934202D8002B24D095E08022D202A4
:10100000934231D0C0221203934200D17DE08BE0A5
:10101000C0225203934248D0C0225203934208D8C0
:1010200080225203934247D0A022520393425BD0C6
:101030007AE0D022520393424FD08022920393420F
:101040006DD071E003F06AF8031CFB603A4B1A683C
:10105000E0235B0213409B0B0133F868191C03F07B
:10106000EFF8031CFB6062E003F058F8031CFB6020
:10107000314B1A68E0235B0213409B0B0133F86885
:10108000191C03F0DDF8031CFB602B4B9B681A1C3A
:101090000F231340FA68111CD9400B1CFB6046E07B
:1010A00003F016F8031CFB6041E0244B181CFFF70B
:1010B0005BFD031CFB603AE0204B181CFFF754FD5E
:1010C000031CFB601C4B9B6E1A1C0F231340FA6819
:1010D000111CD9400B1CFB6029E0194B181CFFF7B1
:1010E00043FD031CFB6022E0154B181CFFF73CFD81
:1010F000031CFB60104B1B6F1A1C03231340FA6880
:10110000111CD9400B1CFB6011E0FFF7B1FC031C64
:10111000FB600CE0FFF768FC031CFB6007E0FFF7D7
:10112000B7FD031CFB6002E00023FB60C046FB68C8
:10113000181CBD4604B080BD00800C4002001800A1
:1011400003001A0080B584B000AF78603B1C0F33F9
:1011500001221A707A680F231340BB60BB68072B0B
:1011600000D9CEE0BB689A006C4BD3181B689F4631
:101170006B4BDA6A6B4B134080225201934216D0BC
:1011800080225201934204D880221201934213D04C
:101190001CE080229201934204D08022D204934228
:1011A0000FD013E03B1C0F3302221A7013E03B1CDC
:1011B0000F3303221A700EE03B1C0F3304221A7007
:1011C00009E03B1C0F330A221A7004E03B1C0F336A
:1011D00005221A70C04699E0514B9A6A03231340C6
:1011E000022B08D0032B0BD0012B0ED13B1C0F334D
:1011F00003221A7015E03B1C0F3302221A7010E014
:101200003B1C0F3306221A700BE0454B9A6A802371
:101210005B02134004D03B1C0F330B221A7000E01A
:10122000C04673E03E4B9A6A0C231340082B08D04B
:101230000C2B0BD0042B0ED13B1C0F3303221A7046
:1012400015E03B1C0F3302221A7010E03B1C0F33D9
:1012500006221A700BE0324B9A6A80235B0313401C
:1012600004D03B1C0F330B221A7000E0C0464DE047
:101270002B4B9A6A30231340102B02D0202B05D021
:1012800009E03B1C0F3303221A7009E03B1C0F33AB
:1012900002221A7004E03B1C0F3301221A70C04670
:1012A00034E03B1C0F3307221A703B1C0F3307221C
:1012B0001A702BE01A4BDA6AE023DB02134080221B
:1012C0009202934212D08022D202934204D0802212
:1012D0005202934205D00EE03B1C0F3309221A70D4
:1012E0000EE03B1C0F3302221A7009E03B1C0F3347
:1012F00003221A7004E03B1C0F3301221A70C0460F
:1013000004E03B1C0F3300221A70C0463B1C0F3315
:101310001B78181CBD4604B080BDC046205100009B
:1013200000800C40003C000480B588B000AF7860BD
:101330000A1CFB1C1A700323FB613B1C1B3303229A
:101340001A7000233B617A680F231340FB60FB682F
:10135000072B00D9F3E0FB689A007D4BD3181B687C
:101360009F46FB1C1B780B2B00D9EAE09A00794BB7
:10137000D3181B689F460423FB613B1C1B330022D0
:101380001A701BE00323FB613B1C1B3301221A7004
:1013900014E03B1C1B3302221A700223FB610DE098
:1013A0000123FB613B1C1B3303221A7006E005235B
:1013B000FB613B1C1B3305221A70C0463B1C1B33D0
:1013C0001B78181C0121012200F0D0F8FFF7C2FBA6
:1013D000614BFA695A6200F031F902F079FE031CA0
:1013E000BB60BB68181CFFF777FBADE0FB1C1B78EC
:1013F0000B2B00D9A7E09A00584BD3181B689F46C7
:1014000000237B611DE000200121012200F0AEF8E5
:1014100002237B6115E001200121012200F0A6F8E2
:1014200001237B610DE04E4B181C02210122FFF7C6
:1014300085FA03237B6104E000237B6101233B6188
:10144000C046FB68022B0BD1434B434A916A454A85
:1014500011407A6911433A6912040A439A6273E0AF
:101460003D4B3D4A916A404A11407A6992001143CE
:101470003A6912050A439A6266E0FB1C1B78022B4C
:1014800007D0032B0DD0012B00D05DE000237B6142
:101490000FE000200121012200F068F802237B61A7
:1014A00007E001200121012200F060F801237B61A7
:1014B000C046294B284A926A3021101C8843011CDF
:1014C0007A6912010A439A623EE0FB1C1B78032BE7
:1014D00014D0092B22D0022B00D035E000200121AE
:1014E000012200F043F81C4B40225A62C0461A4BBE
:1014F000DA6A80235B021340F9D01FE0012001214A
:10150000012200F033F8144B60225A62C046124B9D
:10151000DA6A80239B021340F9D00FE005200121F5
:10152000012200F023F80C4B80225A62C0460A4B7D
:10153000DA6A8023DB021340F9D0C04604E0C046DB
:1015400002E0C04600E0C046BD4608B080BDC046CF
:10155000405100006051000000800C40905100009C
:1015600040800C40FCFFFEFFF3FFEFFF80B586B02C
:1015700000AFFB1D1870BB1D19707B1D1A70FB1D81
:101580001B78062B4ED89A00294BD3181B689F4610
:1015900001233B610223FB6001237B6126E00423DE
:1015A0003B610823FB6003237B611FE010233B6149
:1015B0002023FB6005237B6118E040233B618023EF
:1015C000FB6007237B6111E080235B003B6180238C
:1015D0009B00FB6009237B6108E08023DB003B610B
:1015E00080231B01FB6016237B61C046BB1D1B785B
:1015F000002B11D00F4B3A691A627B1D1B78002B10
:101600000DD0C0460C4A7B69101C191CFFF7B4F9B9
:10161000031C002BF6D002E0064BFA681A6200F0B9
:101620000DF802E0C04600E0C046BD4606B080BDF1
:10163000C051000000800C402C800C4080B500AFF1
:10164000024BDA6A024B1A60BD4680BD00800C4036
:10165000DC00002080B586B000AFF860B9607A6029
:10166000FB681B687B61BB680122101C9840031C4F
:10167000DB437A691A40796801231940BB68081C6A
:101680009840031C1A43FB681A60BD4606B080BD33
:1016900090B585B000AF021CB9603B1C0F331A70C7
:1016A0003B1C0F331B78002B11D03B1C0F331B78D6
:1016B000012B0CD03B1C0F331B78022B07D03B1C9B
:1016C0000F331B78032B02D03B1C0F331B780A48C7
:1016D0003B1C0F331A78BB6801210C1C9C40231C57
:1016E000191C131CDB009B189B00C3181033596096
:1016F000BD4605B090BDC0460060004090B585B0C5
:1017000000AF021CB9603B1C0F331A703B1C0F3337
:101710001B78002B11D03B1C0F331B78012B0CD0F6
:101720003B1C0F331B78022B07D03B1C0F331B785D
:10173000032B02D03B1C0F331B780A483B1C0F3392
:101740001A78BB6801210C1C9C40231C191C131C1B
:10175000DB009B189B00C31810331960BD4605B011
:1017600090BDC0460060004090B587B000AFB96042
:10177000111C1A1C3B1C0F3318703B1C0E331970C4
:101780003B1C0D331A703B1C0F331B78002B11D000
:101790003B1C0F331B78012B0CD03B1C0F331B78E9
:1017A000022B07D03B1C0F331B78032B02D03B1CB2
:1017B0000F331B78BB68072B19D8304A2F49802379
:1017C0005B00CB58B96889000F20041C8C40211C99
:1017D000C94319403B1C0F331878BB689B00041C9D
:1017E0009C40231C194380235B00D1501BE0BB6845
:1017F000083B7B61214A214982235B00CB587969F0
:1018000089000F20041C8C40211CC94319403B1C3B
:101810000F3318787B699B00041C9C40231C1943E0
:1018200082235B00D1503B1C0E331B781449BA68ED
:10183000081C111C1A1CFFF70DFF3B1C0D331B78F5
:101840001049BA68081C111C1A1CFFF703FF0B4A49
:10185000BB680121081C9840031C191C8E235B00E7
:10186000D1503B1C28331B780749BA68081C111C4F
:101870001A1CFFF7EFFEBD4607B090BD00600040A8
:10188000086100400C61004010610040B0B586B0B6
:1018900000AF3961FB603B1C1733011C19703B1C06
:1018A00016331A703B1C17331B78002B11D03B1CCE
:1018B00017331B78012B0CD03B1C17331B78022BE2
:1018C00007D03B1C17331B78032B02D03B1C17336C
:1018D0001B783B1C16331B78002B13D0FB68002BA6
:1018E00008D03B1C17331A783B69101C191CFFF7F2
:1018F00005FF07E03B1C17331A783B69101C191CC5
:10190000FFF7C6FE3B69072B25D836483B1C17332B
:101910001A78344C3B1C173319780B1CDB005B180E
:101920009B00E3185B68396989000F24251C8D40F2
:10193000291CC94319403B1C16331C783B699B008A
:10194000251C9D402B1C1943131CDB009B189B007E
:10195000C31859602AE023483B1C17331A78214CDE
:101960003B1C173319780B1CDB005B189B00E3183A
:1019700008331B6839691C4C091989000F24251C80
:101980008D40291CC94319403B1C16331C783B6908
:10199000154D5B199B00251C9D402B1C1943131CE6
:1019A000DB009B189B00C318083319603B1C1633DF
:1019B0001B78002B13D1FB68002B08D03B1C17337E
:1019C0001A783B69101C191CFFF798FE07E03B1CB6
:1019D00017331A783B69101C191CFFF759FEBD46D6
:1019E00006B0B0BD00600040F8FFFF3F80B584B096
:1019F00000AFF860B9607A60094BB968FC229203C5
:101A000011407868072202400A43802149051143AA
:101A1000FA6804329200D150BD4604B080BDC04681
:101A200000C00C4080B586B000AFF860B9607A6045
:101A3000FB681B687B61BB680122101C9840031C7B
:101A4000DB437A691A40796801231940BB68081C96
:101A50009840031C1A43FB681A60BD4606B080BD5F
:101A600080B584B000AF786039607B68012B04D802
:101A70003B681B0E1B0600D1C0467B68002B02D0C2
:101A8000012B03D008E0064BFB6002E0054BFB6036
:101A9000C046FB683A681A60BD4604B080BDC046C7
:101AA000080008400C00084080B582B000AF021C5E
:101AB000FB1D1A70FB1D1B78044A101C00211A1C08
:101AC000FFF7B0FFBD4602B080BDC0460000084031
:101AD00080B582B000AF021CFB1D1A70FB1D1B7885
:101AE000002B03D0044B01221A6202E0024B0022B9
:101AF0001A62BD4602B080BD0000084080B584B0C7
:101B000000AF78607B681B78002B02D00123FB605C
:101B100001E00023FB607B685B78002B03D0FB684F
:101B200002221343FB607B689B78002B03D0FB6889
:101B300004221343FB60034BFA681A60BD4604B0ED
:101B400080BDC0460000084080B500AF0020FFF710
:101B5000ABFF0120FFF7A8FFBD4680BD80B584B074
:101B600000AFF860B9607A60FB681B68BA68D2435E
:101B70001A407B681A43FB681A60BD4604B080BDFA
:101B800080B586B000AFF860B9607A60BB68002BA2
:101B900005D1194B181CFFF715FA031CBB60BB6875
:101BA0005B007B617A687B69D318013B7B61786954
:101BB000796802F045FB031C7B617B69043B7B6118
:101BC0007B699B017B617B69C0337B617B69FF2201
:101BD00093437B617A69094B13407B61FB68191C55
:101BE0001431064A7B69081C111C1A1CFFF7B6FF4A
:101BF000BD4606B080BDC04640810400C0FF1F0046
:101C000080B582B000AF786039607A682C4B9A4218
:101C100003D07A682B4B9A4200D1C0467B68181CCF
:101C200000F052F87B681A683B681B8A01210B435D
:101C30009BB2191C3B689B7B002B02D08023DB00EE
:101C400000E000230B431A437B681A607B681A6824
:101C50003B681B7D002B02D080239B0500E0002306
:101C60001A437B681A603B689B7C002B07D03B685B
:101C7000DB7C10221343DBB21A1C7B689A653B683D
:101C80001B7B802252011A437B685A603B685A686A
:101C90003B689B687968081C111C1A1CFFF770FFD1
:101CA0003B685B7B002B02D07B681022DA603B68CC
:101CB0001B781A1C7B68DA60BD4602B080BDC04646
:101CC00000C0004000C4004080B582B000AF786022
:101CD0007A681E4B9A4203D07A681D4B9A4200D113
:101CE000C0467B681B4ADA607B6800221A607B680A
:101CF000194A5A607B6800229A607B6800225A6108
:101D00007B680022DA647B68144A9A647B6800224C
:101D10005A657A680D4B9A4203D07A680C4B9A4206
:101D200002D17B6800221A657B6800229A657A6876
:101D3000064B9A4203D07A68054B9A4202D17B68DF
:101D40000022DA65BD4602B080BDC04600C000403A
:101D500000C40040AA0E000005100000F91F00009A
:101D600080B582B000AF78600A1CFB1C1A70C046B8
:101D70007B681A6940231340FAD0FB1C1A787B68F1
:101D80005A63BD4602B080BD80B582B000AF7860B6
:101D90000A1CBB1C1A80C0467B681A69402313408A
:101DA000FAD0BB1C1A887B68DA63BD4602B080BDDE
:101DB00080B586B002AF78602C4B1B78002B01D029
:101DC00000234FE000F0BAFE031CFB60FB68002B11
:101DD00001D0FB6846E0264B0020191C00F0D8FE1D
:101DE000031CFB60FB68002B01D0FB683AE0214B31
:101DF000181C00F03DFA031CFB60FB68002B01D0AF
:101E0000FB682FE01B4B1B68002B01D10B2329E043
:101E1000174B5B689AB2184B1A80154BDB689AB265
:101E2000154B5A80144B00229A80134B0022DA8003
:101E3000114B1A88104B1A810F4B5A880E4B5A813E
:101E40000A4B01221A700C4B1B880B4A52885343D1
:101E5000002200920193002000210022002300F0C4
:101E600077F80023181CBD4604B080BDE4000020B4
:101E7000E8000020140100201801002080B582B085
:101E800000AF7860084B1B7801225340DBB2002B77
:101E900001D0012303E07B68044A1A600023181C68
:101EA000BD4602B080BDC046E400002018010020FD
:101EB00090B583B000AF041C081C111C1A1CBB1D7C
:101EC0001C803B1D1880BB1C19803B1C1A801E4BBC
:101ED0001B7801225340DBB2002B01D001232EE0FE
:101EE000BB1D1A88BB1C1B88D218184B1B889A4232
:101EF00008DC3B1D1A883B1C1B88D218134B5B88DF
:101F00009A4201DD04231AE0BB1C1B88002B03D07E
:101F10003B1C1B88002B01D1052310E00B4BBA1D85
:101F200012889A80094B3A1D1288DA80074BBA1C36
:101F300012881A81054B3A1C12885A810023181CFA
:101F4000BD4603B090BDC046E4000020180100204B
:101F500090B58DB000AF041C081C111C1A1CBB1DD1
:101F60001C803B1D1880FB1C1970BB1C1A70BB4BDE
:101F70001B7801225340DBB2002B01D0012368E122
:101F8000B74B1B68002B01D1012362E1B54B5B7C91
:101F9000002B01D00A235CE100237B62B14B9B68DC
:101FA000DB083B62AF4B1B7C012B02D1BB1C1B78B7
:101FB00004E0BB1C1B785A425341DBB2FB61FB6956
:101FC000002B01D0FF2300E000233A1C1B321370CA
:101FD000A54BD9883B1D3A1D12888A181A80A04B40
:101FE0001A683B1D1B88396A4B43D3187B612AE171
:101FF0009D4B1B891A1CBB1D1B88D31A7A6C9342FC
:1020000000D9131CFB627A6CFB6AD31A7B64964B73
:102010009988BB1DBA1D12888A181A807B6A3A6A91
:1020200053437A69D318BB62FB6A072B57D8BB1D91
:102030001B88FA6AD318FB62FB69002B26D01FE0CD
:10204000BB1D1B88DB089BB2BA6AD318BA1D128865
:10205000D20892B2B96A8A181278D1B2BA1D108821
:10206000072202400120041C9440221CD2B20A43E1
:10207000D2B2D2B21A70BB1D1A88BB1D01321A80AF
:10208000BB1D1A88FB6A9A42DAD3BBE021E0BB1D74
:102090001B88DB089BB2BA6AD318BA1D1288D20813
:1020A00092B2B96A8A181278D2B2B91D088807218B
:1020B00001400120041C8C40211CC9B2C943C9B293
:1020C0000A40D2B2D2B21A70BB1D1A88BB1D0132AF
:1020D0001A80BB1D1A88FB6A9A42D8D392E0BB1DB6
:1020E0001A88072313403B61BB1D1B88DB089BB28A
:1020F000BA6AD318BB623B69002B37D03B1C0F3345
:10210000BA6A12781A7001223B69111C99400B1CA3
:10211000DAB23B1C0E33013A1A703B1C0F333A1CE7
:102120000F32391C0E31127809780A401A703B1CA4
:102130000E331B78DB43DBB23A1C1B3212781340A0
:10214000DAB23B1C0F331B781343DAB23B1C0F335C
:102150001A70BB6A3A1C0F3212781A70BB6A0133CC
:10216000BB623A69FB6AD318083BFB62FB6ADB0877
:10217000BB60BB68002B12D03B1C1B331A78BB68BA
:10218000B96A081C111C1A1C02F0E3F9BB68DB00D9
:10219000FA6AD31AFB62BB68BA6AD318BB62FB6ADD
:1021A000002B2FD03B1C0F33BA6A12781A70FB6ACF
:1021B0000122141C9C40231CDAB23B1C0E33013A52
:1021C0001A703B1C0E331B78DB43DBB23A1C0F3218
:1021D00012781340DAB23B1C0F331A703B1C1B33CE
:1021E0003A1C0E321B7812781340D9B23B1C0F33C5
:1021F0003A1C0F3212780A431A70BB6A3A1C0F322B
:1022000012781A703B1D1A887B6AD3185A113B1D2D
:1022100019887B6ACB185911144B8900C9583B1D8A
:1022200018887B6AC0181F2303400120041C9C40AF
:10223000231C19430D4B9200D150BB1D00221A8064
:102240007B6A01337B627B6C002B00D0D0E6C046FA
:102250000023181CBD460DB090BDC046E400002010
:1022600014010020E80000201801002010020020C6
:1022700090B583B000AF78600E4B9C690D4B5968E8
:102280000C4BDA680B480C4BA0470B4B1B68002B20
:1022900001D10B230AE0084B1A687B681A60074BD0
:1022A000181CFF21102202F054F90023181CBD460F
:1022B00003B090BDE80000201401002010020020AF
:1022C00090B58BB002AF414B9B68DB08FB60404B85
:1022D0001B687B6101233B610023FB610023BB6121
:1022E00042E07A690123134003D0BB690133BB612B
:1022F00029E0BB69002B23D0364B1A68FB68F969CB
:102300004B43D318BB60314B1C6A304B5B682F4981
:10231000BA68F8690090B8690190081C111C002285
:10232000A047031C7B607B68002B01D07B6848E0E2
:10233000BA69FB69D3180133FB610023BB6102E07A
:10234000FB690133FB61FA69BB69D2181F23134093
:1023500003D07B695B087B6106E03B695A1C3A61EC
:102360001B4A9B009B587B61FA69BB69D218174BCB
:10237000DB689A42B5D3BB69002B1BD0154B1A689A
:10238000FB68F9694B43D318BB60104B1C6A0F4BB9
:102390005B680E49BA68F8690090B8690190081C3A
:1023A000111C0022A047031C7B607B68002B01D01E
:1023B0007B6806E0064B181C0021102202F0C9F8C9
:1023C0000023181CBD4609B090BDC046E80000209F
:1023D000100200201401002080B584B000AFF86026
:1023E000B9607A603B60FB681B0CDAB2BB681A709C
:1023F000FB681B0ADAB27B681A70FB68DAB23B68CA
:102400001A70BD4604B080BD80B588B000AF78605A
:102410007B68002B01D105233DE07B6800225A60D8
:102420007B681F4A9A603B1C1833181CFFF726FD77
:10243000031CFB61FB69002B01D0FB692BE0BA692F
:102440007B681A603B1C083300221A603B1C08336F
:1024500000225A60BB691B885A1E3B1C08339A60D5
:10246000BB695B885A1E3B1C0833DA607A683B1CE8
:102470000833101C191C00F017F8031CFB61FB69E2
:10248000002B01D0FB6906E07A68064B101C191C72
:1024900000F030FBFB69181CBD4608B080BDC0468B
:1024A000FFFFFF002C58000090B589B000AF7860A6
:1024B00039607B68002B02D03B68002B01D10523DB
:1024C00068E03B681A683B689B689A4205DA3B689B
:1024D0005A683B68DB689A4201DB04235AE03B6898
:1024E0001A687B681B689B889A4216DB3B685A68AF
:1024F0007B681B68DB889A420FDB3B689A687B68C5
:102500001B681B89013B9A4207DC3B68DA687B68E1
:102510001B685B89013B9A4201DD03233AE03B687B
:102520001B6898B23B685B6899B23B681B689AB2BB
:102530003B689B689BB2D3189BB201339AB23B684D
:102540005B689CB23B68DB689BB2E3189BB20133CB
:102550009BB2FFF7ADFC031CFB613B681A683B1C98
:102560000C331A603B685A683B1C0C335A603B685A
:102570009A683B1C0C339A603B68DA683B1C0C334E
:10258000DA607B683A1C0C320C3313CA13C312682E
:102590001A60FB69181CBD4609B090BD90B589B0A2
:1025A00002AF78607B68002B01D105232FE07B68A8
:1025B0005868391C0B313A1C0A323B1C093300F0B5
:1025C00043F87B68181C00F027F8031C7B617B69CB
:1025D000002B01D07B691AE07B681B681B893B617B
:1025E0007B681B685B89FB603B1C0B331A783B1CC8
:1025F0000A331B78391C093108783969FC68614352
:102600000090019100200021FFF7A2FC031C181C80
:10261000BD4607B090BDC04680B582B000AF7860BF
:102620007B68002B01D105230AE07B681B681A88B0
:102630007B681B685B8800200021FFF739FC031CC6
:10264000181CBD4602B080BD80B584B000AFF860F4
:10265000B9607A603B60F868B9687A683B68FFF7F0
:10266000BBFEBD4604B080BD90B589B002AFF86036
:10267000B9607A60FB68002B01D105232EE0FB686E
:10268000191C0C31BA687B68081C111C1A1C00F05C
:1026900067F8031C01225340DBB2002B01D0012359
:1026A0001CE0FB689868391C17313A1C16323B1C39
:1026B0001533FFF791FEBB6898B27B6899B23B1C5B
:1026C00017331A783B1C16331B783C1C15342478BE
:1026D000009401240194FFF73BFC031C181CBD4629
:1026E00007B090BD90B589B002AFF860B9607A606C
:1026F0003B60FB68002B01D105232DE0FB68191C12
:102700000C31BA687B68081C111C1A1C00F028F8F0
:10271000031C01225340DBB2002B01D001231BE03C
:102720003868391C17313A1C16323B1C1533FFF739
:1027300053FEBB6898B27B6899B23B1C17331A787A
:102740003B1C16331B783C1C153424780094012460
:102750000194FFF7FDFB031C181CBD4607B090BD9C
:1027600080B584B000AFF860B9607A60FB68002B78
:1027700013D0FB681A68BB689A420EDCFB689A6843
:10278000BB689A4209DBFB685A687B689A4204DCA2
:10279000FB68DA687B689A4201DA002300E00123D3
:1027A000181CBD4604B080BD80B58CB000AFF86089
:1027B0007A603B603B1C0B330A1C1A7000237B625F
:1027C000FB68002B01D1052327E13B1C0B331B7851
:1027D0001F2B04D93B1C0B331B787E2B01D9022302
:1027E0001BE1FA682823D35C022B1AD13B1C0B3364
:1027F0001B789AB23B1C2E33303A1A803B1C0B33A9
:102800001B783A2B03D13B1C2E330A221A803B1C27
:102810000B331B78202B0CD13B1C2E330B221A8040
:1028200007E03B1C0B331B789AB23B1C2E33203A3B
:102830001A803B1C2E331A88FB681B8C013B9A4282
:1028400001DD0223E9E0FB68DB693B62FB68DB69D1
:10285000FB61FB68DB69BB613B1C2C3300221A80E7
:10286000CEE0FA682223D35C012B02D0022B0AD0DF
:1028700014E03B1C2E331B883A6AD3181A783B1C91
:102880002A331A8014E03B1C2E331B885B00FA6944
:10289000D2183B1C2A3312881A8009E03B1C2E33C5
:1028A0001B889B00BA69D3181A683B1C2A331A800C
:1028B0003B1C283300221A8052E03B1C2A331A8822
:1028C000012313401DD03B1C28331A887B68D21883
:1028D0003B1C2C3319883B68CB18F968081C111C69
:1028E0001A1CFFF7C1FE031C7B617B69012B01D918
:1028F0007B6992E07B69002B24D17B6A01337B6288
:1029000020E03B1C38331B78002B1BD03B1C2833AA
:102910001A887B68D1183B1C2C331A883B68D21864
:10292000FB685B68F868FFF7DDFE031C7B617B6971
:10293000012B01D97B6970E07B69002B02D17B6A96
:1029400001337B623B1C2A333A1C2A32128852081C
:102950001A803B1C28333A1C2832128801321A8014
:10296000FA682423D35C3A1C283212889A42A4D3F2
:1029700027E03B1C38331B78002B1BD03B1C283333
:102980001A887B68D1183B1C2C331A883B68D218F4
:10299000FB685B68F868FFF7A5FE031C7B617B6939
:1029A000012B01D97B6938E07B69002B02D17B6A5E
:1029B00001337B623B1C28333A1C283212880132D7
:1029C0001A803B1C28331A88F9682423CB5C191C15
:1029D000F8682723C35CCB189A42CADBFA68232322
:1029E000D35C191C3B1C2E333A1C2E3212888A18D9
:1029F0001A803B1C2C331A883B1C2C3301321A8062
:102A0000FA682523D35C3A1C2C3212889A4200D2F1
:102A100027E77B6A5A425341DBB2181CBD460CB013
:102A200080BDC04690B58DB002AFF860B9607A60E5
:102A30003B6000237B62FB68002B02D0BB68002B4D
:102A400001D1052351E0FA682823D35C002B01D182
:102A500002234AE03B68FB61BB6BBB6100233B6226
:102A60003BE0BA683B6AD3181B780A2B0DD13B6850
:102A7000FB61FA682523D35C1A1CBB69D218F9687C
:102A80002623CB5CD318BB6124E0BA683B6AD31819
:102A90001978F868FA69BB693C1C3C3424780094C6
:102AA000FFF782FE031C7B617B69012B01D97B69E7
:102AB0001BE07B69002B02D17B6A01337B62FA68E1
:102AC0002423D35C1A1CF9682723CB5CD318FA693A
:102AD000D318FB613B6A01333B623A6A7B689A42D6
:102AE000BFD37B6A5A425341DBB2181CBD460BB0C0
:102AF00090BDC04680B582B000AF786039607B6819
:102B0000002B01D1052315E03B68002B08D17B6821
:102B10001C33181C0021102201F01BFD052309E0C5
:102B20007B681A1C1C323B68101C191C102201F017
:102B300007FD0023181CBD4602B080BD80B582B0E1
:102B400000AF114B7B60114B1B7801225340DBB26D
:102B5000002B14D00D4B01221A700CE07B681B680F
:102B60009847031C3B603B68002B01D03B6807E0A3
:102B70007B6804337B607B681B68002BEED10023ED
:102B8000181CBD4602B080BD04000020500100208A
:102B900080B584B000AF78603960114B1B7801229A
:102BA0005340DBB2002B02D00E4BFB6012E07B687F
:102BB000002B0DDC7B682C225A430B4BD3183A6850
:102BC000101C191C2C2201F0BBFC0023FB6001E04F
:102BD000064BFB60FB68181CBD4604B080BDC046B8
:102BE0005001002005001180240100200200118006
:102BF00080B584B000AF7860134B1B78012253403E
:102C0000DBB2002B02D0114BFB6017E0104B1B68AE
:102C1000002B11DC0E4B1B68591C0D4A11602C2235
:102C20005A430C4BD2187B68101C191C2C2201F043
:102C300087FC0023FB6001E0074BFB60FB68181C6E
:102C4000BD4604B080BDC046500100200500118083
:102C500054010020240100200100118080B58CB0B7
:102C600000AF00F061FA00F0FBF900F079FA0420FF
:102C70000C210022002300F085FA04200A21002202
:102C8000002300F07FFA00200A210022002300F038
:102C900079FA002008210022002300F073FA0020B6
:102CA00000210022002300F06DFA052003210022FC
:102CB000002300F067FA05200321402200F0B0FA5B
:102CC000031CFB62FB6A002B01D0FB6A35E03B1C56
:102CD0001C4A1A603B1C01221A743B1C00225A74C5
:102CE0003B1C80225A603B1C8022DA603B1C5A68E5
:102CF0003B1C9A603B1C144A5A613B1C134A9A6164
:102D00003B1C134ADA613B1C124A1A623B1C124AF2
:102D10005A623B1C114A9A623B1C181CFFF768FF61
:102D2000031CFB62FB6A002B06D13B1C181C012113
:102D300000F026F800F03EF8FB6A181CBD460CB007
:102D400080BDC0462C5A0000812D0000012E0000DD
:102D5000692E0000C52E0000812E0000612D0000AC
:102D600080B584B000AF78600023FB6000F0DCF930
:102D700000F076F9FB68181CBD4604B080BDC04663
:102D800080B582B000AF78600A1CFB1C1A70FB1C77
:102D90001B78002B04D00020082100F019FA03E072
:102DA0000020082100F028FA0023181CBD4602B0BC
:102DB00080BDC04680B582B000AF00200A2100F07F
:102DC00007FA062000F0BCF90C4B1B7804221343D1
:102DD000DBB21A1CBB1D1A80BB1D181C022100F09F
:102DE00069F9022000F0ACF900200A2100F004FA91
:102DF0000023181CBD4602B080BDC046580100200B
:102E000080B586B000AFF860B9607A603B60BB689F
:102E1000DB087A6853437B61BB68802B01D00E4B83
:102E200016E00E4B1A687B69D2180D4B9A4204D9F2
:102E30003B6800221A600B4B0AE0084B1A683B689B
:102E40001A60064B1A687B69D218044B1A6000237B
:102E5000181CBD4606B080BD020011800C00002089
:102E6000DC0100200100118080B582B000AF7860E5
:102E70003960024B181CBD4602B080BD04001180B1
:102E800080B586B000AFF860B9607A603B60BB681F
:102E90007B6100233B610BE07B69181C0021102241
:102EA00001F057FB7B6910337B613B6901333B6168
:102EB0003A693B689A42EFD30023181CBD4606B01E
:102EC00080BDC04680B588B000AFF860B9607A6058
:102ED0003B60BB68BB61BB6A0133BB6200200A2157
:102EE00000F076F9062000F02BF9BB6A9BB21B02BA
:102EF0009BB2012213439AB23B1C16331A803B1C2F
:102F00001633181C022100F0D5F80023FB612BE0DA
:102F1000BB69181C102100F0CDF8BB691033BB61F0
:102F2000FB6A5A1EFB699A4205D13B1C16330122EB
:102F300052421A800FE0BB6A9AB2FB699BB2D31867
:102F40009BB201339BB21B029BB2FF2213439AB286
:102F50003B1C16331A803B1C1633181C022100F050
:102F6000A9F8FB690133FB61FA69FB6A9A42CFD386
:102F7000022000F0E5F800200A2100F03DF90023CE
:102F8000181CBD4608B080BD90B585B000AF021CCE
:102F9000B9603B1C0F331A703B1C0F331B78002B9E
:102FA00011D03B1C0F331B78012B0CD03B1C0F3373
:102FB0001B78022B07D03B1C0F331B78032B02D04E
:102FC0003B1C0F331B780A483B1C0F331A78BB6835
:102FD00001210C1C9C40231C191C131CDB009B189A
:102FE0009B00C31810335960BD4605B090BDC04664
:102FF0000060004090B585B000AF021CB9603B1C7A
:103000000F331A703B1C0F331B78002B11D03B1C65
:103010000F331B78012B0CD03B1C0F331B78022B7A
:1030200007D03B1C0F331B78032B02D03B1C0F3304
:103030001B780A483B1C0F331A78BB6801210C1C13
:103040009C40231C191C131CDB009B189B00C318FD
:1030500010331960BD4605B090BDC0460060004009
:1030600090B589B000AF0023FB613B1D0D4A13CA28
:1030700013C313CA13C30C4B181C0121FDF748FFDF
:103080003B1D0A4A9A600A4A3B1D101C191CFEF798
:10309000B7FD074B0A225A65FB69181CBD4609B0EB
:1030A00090BDC046445A000000320400E06735007D
:1030B00000C0004080B584B000AF78603960002364
:1030C000FB6021E03B68012B03D07A6801231340A9
:1030D0000DD07B681B78134A101C191CFEF740FEAC
:1030E0003B68013B3B607B6801337B600CE07B68A5
:1030F0001B880C4A101C191CFEF746FE3B68023B5D
:103100003B607B6802337B603B68002BDAD1C046B2
:10311000044B1A6920231340FAD0FB68181CBD46E3
:1031200004B080BD00C0004080B582B000AF002375
:103130007B6000F021FE7B68181CBD4602B080BD9C
:1031400080B584B000AF78600023FB607B68181CFA
:1031500000F00CFFFB68181CBD4604B080BDC046E3
:1031600080B582B000AF00237B60054B181C0121A5
:10317000FDF7CEFE7B68181CBD4602B080BDC04680
:103180000082040080B586B000AFF860B9603B6093
:10319000FB1D1A7000237B61FB1D1B78002B0FD1D8
:1031A0003B1C133304221A70C046FB68D8B2B968BE
:1031B0003B1C13331A783B68FEF768FB7B6900E021
:1031C000024B181CBD4606B080BDC04601001380EE
:1031D00080B584B000AF786039600023FB607B6805
:1031E000DAB23B68101C191CFFF704FFFB68181CBF
:1031F000BD4604B080BDC04680B584B000AF7860E5
:1032000039600023FB607B68DAB23B68101C191C34
:10321000FFF7BAFEFB68181CBD4604B080BDC0466F
:1032200080B588B000AFF860B9607A600023FB61B8
:10323000FB68052B02D1BB68032B02D01B4BFB6143
:103240001FE0A0239B03BB6101237B61184B181C6B
:103250000121FDF75DFEBA697B690020111C1A1C73
:10326000FEF7C4FB134B134A9168134A0A408021AE
:1032700049000A439A600F4B0E4A926801210A43A3
:103280009A60FB69002B0CD1FB68DAB2BB68101C9A
:10329000191C04220023FEF7F9FA7B68181C00F0C1
:1032A00021F8FB69181CBD4608B080BD01001380E1
:1032B0000062040000C00C40FFF8FFFF80B582B040
:1032C00000AF7860064B181C0121FDF721FE7B68DA
:1032D000181C0B21FEF728F8BD4602B080BDC04681
:1032E0000023020080B584B000AF78603A1C0C3235
:1032F000204B111C1A1C0323081C111C1A1C01F062
:103300001FF91D4B181CFFF7D9FF1C4B181C02217D
:10331000FDF756FD194B181C0121FDF7F9FD3B1C6B
:103320000C3300221A703B1C0C3300225A703B1CD9
:103330000C3301229A703B1C0C33181CFEF7DEFB89
:103340000E4B181CFDF73EFE031C181C796800F09C
:1033500077FF031C013B1B021B0A0020191CFEF710
:103360007FFBFEF7F1FB0120FEF79EFBBD4604B09C
:1033700080BDC0465C5A00000200180070061000B4
:1033800080B582B000AF78600023181CBD4602B043
:1033900080BDC04680B582B000AF7860FEE7C04611
:1033A00080B584B000AFF860B9607A600023181C63
:1033B000BD4604B080BDC04680B586B000AFF860A1
:1033C000B9607A6000237B6111E000F07DF8031C96
:1033D0003B613B69013309D0BB685A1CBA603A694A
:1033E000D2B21A707B6901337B6100E004E07B6834
:1033F0005A1E7A60002BE8D17B69002B02DC012386
:103400005B4200E07B69181CBD4606B080BDC0462B
:1034100090B585B000AF7860194B1B68002B02D1C6
:10342000174B184A1A60164B1B68FB60144B1A683E
:103430007B68D218EFF308831C1C231C9A4214D912
:10344000114B1B689B68181C00F060FF041C0F4B9D
:10345000181C01F05BF9031C0C4A201C111C1A1CDF
:1034600000F016F8012000F03BFF054B1A687B685E
:10347000D218034B1A60FB68181CBD4605B090BDFE
:10348000DC0100202802002080000020605A00009B
:1034900080B586B000AFF860B9607A6000237B61C8
:1034A00009E0BB685A1CBA601B78181C00F014F8BD
:1034B0007B6901337B617A697B689A42F1DB7B68C7
:1034C000181CBD4606B080BD80B500AF01235B422D
:1034D000181CBD4680BDC04680B582B000AF021C3E
:1034E000FB1D1A700A4B1B68002B0AD0084B1A6888
:1034F000FB1D1B78101C191C00F00CF8FB1D1B7821
:1035000001E001235B42181CBD4602B080BDC046ED
:10351000E001002080B584B000AF78600A1CFB1C7D
:103520001A707B68FB60FA685523D35C0122534014
:10353000DBB2002B01D0334B60E0FB685B7D002BDE
:1035400004D1FA6854230121D15403E0FA685423CA
:103550000221D154FA683823D35C002B0FD0FB68CA
:10356000DB6C002B17D1FB681A6DFB685B6B013BB2
:103570009A4210D1FA6854230021D1540BE0FB6821
:10358000DB6C002B07D1FB681B6D002B03D1FA68A5
:1035900054230021D154FB1C1B780C2B0DD1FB684C
:1035A000181C00F031F8FA6854230021D154FB684C
:1035B000181C00F001FB031C20E0FA683923D35CDF
:1035C000002B08D0FB1C1B780A2B04D1FB68181CAD
:1035D0000D2100F05BF9FB1C1B78FA68101C191C0C
:1035E00000F054F9FA685423D35C032B05D0FB6830
:1035F000181C00F0E1FA031C00E00023181CBD4673
:1036000004B080BD0600128080B582B000AF786043
:103610007B685B6C002B15D07B681A6C7B68596BE0
:103620007B681B6B4B43101C00211A1C00F091FFA0
:103630007B680022DA647B6800221A657A6854236A
:103640000021D154BD4602B080BDC04680B584B0D3
:1036500000AF78600023FB6016E07B685A6CFB6863
:103660009B00D31819687B685A6CFB6801339B0078
:10367000D3181A687B681B6B081C111C1A1C00F0FD
:103680005FFFFB680133FB607B685B6B5A1EFB6866
:103690009A42E2D87B685A6C7B685B6B0D495B1879
:1036A0009B00D3181A687B681B6B101C00211A1C26
:1036B00000F04FFF7B680022DA647B685B6B5A1E68
:1036C0007B681A657A6854230021D154BD4604B042
:1036D00080BDC046FFFFFF3F80B586B000AF786079
:1036E00039603B1C0F3300221A703B681B2B0FD133
:1036F000634B181C0021042200F02BFF3B68DAB258
:103700005F4B1A707A6854230321D1540123B3E02C
:103710005B4B1B781B2B01D00023ADE0584B7B612A
:103720007B6901337B617B691B78002BF8D13B6897
:10373000DAB27B691A70524B181C00F0E7FF031CC9
:10374000BB6000233B6172E03B699A004D4BD2188D
:103750004B49BB68081C111C1A1C00F0DEFF031C3F
:10376000002B61D13B1C0F3301221A707A6854235D
:103770000321D1543B699A00424BD318181C00F026
:10378000C5FF021CBB689A424DD13B69052B3ED850
:103790003B699A003C4BD3181B689F467B6800220C
:1037A0001A657B680022DA6431E07B681B6D002BB0
:1037B00005D07B681B6D5A1E7B681A6527E026E0E2
:1037C0007B681A6D7B685B6B013B9A4205D27B6814
:1037D0001B6D5A1C7B681A6519E018E07B68DA6C6F
:1037E0007B681B6B013B9A4205D27B68DB6C5A1CE1
:1037F0007B68DA640BE00AE07B68DB6C002B05D0A9
:103800007B68DB6C5A1E7B68DA64FFE7C0461C4BA2
:10381000181C0021042200F09CFE7A685423032126
:10382000D154012328E005E03B6901333B613B694A
:10383000052B89DD3B1C0F331B7801225340DBB283
:10384000002B07D00E4B181C0021042200F081FE33
:10385000002311E0BB68032B0BD1094B181C00217E
:10386000042200F076FE7A6854230321D154012308
:1038700002E03B1C0F331B78181CBD4606B080BD10
:10388000E4010020B45D00009C5D000080B582B0C2
:1038900000AF786039603B680A2B08D00D2B02D04E
:1038A000082B27D045E07B680022DA6493E07B6830
:1038B0001B6D5A1C7B681A657B680022DA647B6882
:1038C0001A6D7B685B6B9A4213D37A683823D35C9A
:1038D000002B09D07B68181CFFF7B8FE7B685B6B78
:1038E0005A1E7B681A6504E07B68181CFFF78CFE83
:1038F00071E070E07B681B7D002B1AD07B681B7D1C
:10390000012B16D07A684923D35CFF2B08D17A6843
:1039100049230021D1547A684A230021D1545AE026
:103920007A684923FF21D1547A684A23FF21D15470
:1039300051E07A683B68101C191CFFF7CDFE031C90
:10394000002B00D047E0254B1A683B680133D318A1
:103950001B781A1C9723134001D120233B607B68FE
:10396000DA6C7B681B6B9A4207D37B680022DA64AF
:103970007B681B6D5A1C7B681A657B681A6D7B68B7
:103980005B6B9A4212D37A683823D35C002B09D040
:103990007B68181CFFF75AFE7B685B6B5A1E7B68BE
:1039A0001A6503E07B68181CFFF72EFE7B685A6CD3
:1039B0007B681B6D9B00D3181A687B68DB6CD3187F
:1039C0003A68D2B2203AD2B21A707B68DB6C5A1CC9
:1039D0007B68DA64C046BD4602B080BD1C00002092
:1039E00090B58FB002AF786039607B68DB6B7B622B
:1039F0000023BB62C1E00023FB6275E07B685A6C68
:103A00003B689B00D3181A68FB6AD2183B1C17331B
:103A100012781A703B1C17331A78BB6A64214B4327
:103A2000D2183B1C233363498A5C1A707B681B7D68
:103A3000002B08D0012B54D13B1C23333A1C2332DA
:103A40001278D2431A70FA6A131C5B009B185B0051
:103A50003B613B69FB613EE03B1C23331A78012349
:103A6000134016D0FB69DB107A6AD318FA69D210BA
:103A7000796A8A181278D1B2F869072202400120C7
:103A8000041C9440221CD2B20A43D2B2D2B21A70A1
:103A900017E0FB69DB107A6AD318FA69D210796AE9
:103AA0008A181278D2B2F869072101400120041C5B
:103AB0008C40211CC9B2C943C9B20A40D2B2D2B2A9
:103AC0001A703B1C23333A1C2332127852081A70A6
:103AD000FB690133FB613B699A1DFB699A42BBDCC0
:103AE000C046FB6A0133FB627B681A6BFB6A9A4231
:103AF00084D87B681B7D012B36D1FA6A131C5B00CE
:103B00009B185B00BB61BA6907231340FB60FB682D
:103B1000002B1BD0BB69DB107A6AD318BA69D210AC
:103B2000796A8A181278D2B20120F968041C8C4094
:103B3000211CC9B20139C9B2C9B20A40D2B2D2B24B
:103B40001A70BA69FB68D31A0833BB61BB69DB1012
:103B50007A6AD2187B689968BB69CB1ADB08101C9B
:103B6000FF211A1C00F0F5FC7B68DB68DB087A6A31
:103B7000D3187B62BB6A0133BB62BB6A072B00D8D8
:103B800039E77B685C6A7B68181D7B68D96B7B684A
:103B90001A6B131C5B009B185B003A68D200009202
:103BA000082201920022A047031C181CBD460DB03C
:103BB00090BDC0467C5A000090B587B002AF7860D7
:103BC0007A685423D35C012B00D167E0022B00D12B
:103BD00073E0002B00D072E07B685B7D002B5BD133
:103BE0000023FB6008E07A68FB68101C191CFFF7D3
:103BF000F7FEFB680133FB607B685A6BFB689A42F7
:103C0000F1D87B685B6BDA007B681B699A4242D211
:103C10007B681B7D002B02D0012B0BD015E07B684D
:103C2000DA6B7B689B68DB08101C00211A1C00F013
:103C300090FC0CE07B68DA6B7B689B68DB08101CEF
:103C4000FF211A1C00F085FC01E0204B39E07B6865
:103C50005B6BDB00FB6019E07B685C6A7B68191DAD
:103C60007B68DA6B7B689B68F868009001200190A4
:103C7000081C111C0022A047031CBB60BB68002B62
:103C800001D0BB681DE0FB680133FB607B681A69EB
:103C9000FB689A42E0D801E00C4B12E07B685B7D48
:103CA000002B08D17B681B6D7A68101C191CFFF76C
:103CB00097FE031C05E0054B03E0044B01E0C04602
:103CC0000023181CBD4605B090BDC04604001280FC
:103CD00080B582B000AF021CFB1D1A70084AFB1DA4
:103CE0001B78191C1F230B400121081C9840031C42
:103CF000191CC0235B00D150BD4602B080BDC04638
:103D000000E100E080B500AF72B6074B1B680133DD
:103D100004D0054B1B685A1C034B1A60024B1B68EE
:103D2000181CBD4680BDC046E000002080B582B0B2
:103D300000AF0B4B1B68002B0DD0094B1B685A1EA4
:103D4000074B1A60064B1B687B607B68002B00D119
:103D500062B67B6800E00023181CBD4602B080BD3F
:103D6000E000002080B500AF024B5B68181CBD4628
:103D700080BDC0460000084090B58BB000AF3B1C32
:103D8000273300221A703B1C263300221A703B1C7A
:103D9000253300221A703B1C243300221A703B1C6E
:103DA000233300221A703A1D6A4B111C1A1C03237C
:103DB000081C111C1A1C00F0C3FB0023FB6100232C
:103DC000BB6100237B6100233B61634B1A6C0423BE
:103DD000134008D1614B181C0121FDF799F83B1CD9
:103DE000263301221A703C1C0F345D4B181CFDF762
:103DF000A9F9031C23703B1C0F331B78032B03D042
:103E00003B1C243301221A70534BDA6A40231340BF
:103E100003D13B1C233301221A70514B181C032180
:103E2000FDF782FA4F4B181CFCF75EFF031CBB60CA
:103E30004C4A80235B00101C191CFCF7C1FF464B49
:103E40009A6D0123134008D1464B181C0121FDF740
:103E50005FF83B1C253301221A70FFF753FF424BDA
:103E60001A68012313401BD03F4B1B68FB613E4B7C
:103E70009B68BB613C4BDB687B613B4BDB693B6117
:103E8000394B00221A60384B0022DA61364B072288
:103E90009A610C20FFF71CFF3B1C273301221A708C
:103EA0003B1D00229A703B1D181CFDF727FE00F0F9
:103EB00077F8FFF73BFF3B1C27331B78002B18D00C
:103EC000284ABB68101C191CFCF77AFF0120FDF77B
:103ED000FFFD254BBA699A60234B7A69DA60224B61
:103EE000FA691A60204B3A69DA610020FDF7F0FDAB
:103EF00002E00020FDF7D8FD3B1C25331B78002B8A
:103F000004D0184B181C0021FDF702F83B1C243389
:103F10001B78002B07D0124A3B1C0F331B78101C58
:103F2000191CFDF701FA3B1C23331B78002B04D02E
:103F3000012000210022FDF719FB3B1C26331B78D2
:103F4000002B04D0054B181C0021FCF7E1FFBD46F7
:103F50000BB090BDCC5D000000800C40002302003F
:103F600002001800700610000000084080B582B002
:103F700000AF78607B680949002B0CD0013B882298
:103F80001202003253430A68D80AD20A5043800909
:103F900001D00138FDD8BD4602B080BD1000002020
:103FA00080B584B000AF0823BB60334B8022520140
:103FB0001A601DE000F062F8031C7B60C04600F050
:103FC0005DF8021C7B689A42F9D000F057F8031C98
:103FD0007B60294B1B68181C00F058F800F04EF865
:103FE000021C7B68D31A7B607B68002B00D005E045
:103FF000214B1B685B00204A1360DBD11E4B1B6802
:104000005A081D4B1A601C4B1B68FB6026E01A4BBC
:104010001A68FB681A43184B1A6000F02FF8031C4B
:104020007B60C04600F02AF8021C7B689A42F9D0F7
:1040300000F024F8031C7B600F4B1B68181C00F079
:1040400025F800F01BF8021C7B689A4206D0FB683A
:10405000DA43094B1B681A40074B1A60BB685A1EAB
:10406000BA60002B05D0FB685B08FB60FB68002B87
:10407000CDD1BD4604B080BD1000002080B500AF9A
:10408000FFF770FE031C181CBD4680BD80B582B0D2
:1040900000AF78607B68013BFDD8BD4602B080BDB3
:1040A000064880470649074A074B9B1A03DD043B35
:1040B000C858D050FBDCFCF71DF80000054200009A
:1040C0007C5F00000000002090000020FEE7C0465A
:1040D00080B582B000AF00F021F8031C7B60094B73
:1040E0005B681A1C0F2313407A68111CD9400B1C03
:1040F0007B60054B7A681A607B68181CBD4602B06D
:1041000080BDC04600800C402002002080B500AF7A
:10411000014B181CBD4680BD00366E0180B582B0D3
:1041200000AF2E4BDA6A2E4B13408022520193428D
:1041300015D080225201934204D88022120193426A
:1041400011D017E080229201934204D08022D20441
:1041500093420CD00EE0234B1B687B6039E0802338
:104160001B027B6035E0204B1B687B6031E01F4BFE
:104170007B602EE0194BDA68E023DB0013408022DD
:104180009200934218D080229200934206D8002BCE
:1041900018D080225200934211D016E0C022920023
:1041A000934206D08022D20093420ED1104B7B6006
:1041B0000EE0104B7B600BE00F4B7B6008E00F4B79
:1041C0007B6005E00E4B7B6002E000237B60C04615
:1041D000C0467B68181CBD4602B080BD00800C4004
:1041E000003C0004180000201400002000366E017E
:1041F000406F4001809FD500C0D8A70040B5640043
:10420000804F120080B500AFBD4680BD80B500AFC5
:1042100080231B02181CBD4680BDC04680B500AF80
:10422000FA239B00181CBD4680BDC04680B500AF78
:10423000024B1B68181CBD4680BDC04618000020FC
:10424000002934D00123002210B488422CD3012449
:104250002407A14204D2814202D209011B01F8E7DE
:10426000E400A14204D2814202D249005B00F8E797
:10427000884201D3401A1A434C08A04202D3001BC3
:104280005C0822438C08A04202D3001B9C082243F6
:10429000CC08A04202D3001BDC082243002803D034
:1042A0001B0901D00909E3E7101C10BC7047002866
:1042B00001D00020C04307B4024802A14018029078
:1042C00003BDC046190000000029F0D003B5FFF778
:1042D000B9FF0EBC4243891A1847C0467047C04612
:1042E000084B10B5041C002B02D0002100E000BFD9
:1042F000054B1868836A002B00D09847201CFFF7F5
:1043000049F8C04600000000385F0000134B70B54C
:104310001D68041C1E1C002D05D0AA69002A02D1AC
:10432000281C00F077F80E4B9C4201D16C6808E025
:104330000C4B9C4201D1AC6803E00B4B9C4200D17A
:10434000EC680C22A35E002B02D00E23E05E04E09A
:104350003368092201201A60404270BD80000020AD
:10436000D45E0000F45E0000145F0000F8B5041C89
:10437000071C4834002C12D0A5686668013E0CD496
:10438000AB89012B07D90E22AB5E013303D0381C59
:10439000291C00F063FD6835F0E72468EAE7F8BD02
:1043A000002310B5041C0360436083608181436671
:1043B000C281036143618361191C08225C3000F0F3
:1043C000C8F8054B24626362044BA362044BE362AA
:1043D000044B236310BDC046754600009D46000097
:1043E000D54600000147000070B54B1E68255D43AF
:1043F0000E1C291C743100F0B5F8041E08D00021F1
:10440000016046602A1C0C30A060683200F0A1F800
:10441000201C70BD836913B5041C002B27D1836455
:10442000C3640365124B134A1B688262984201D130
:1044300001238361201C00F01FF86060201C00F045
:104440001BF8A060201C00F017F80421E060002297
:104450006068FFF7A5FFA06809210122FFF7A0FF10
:10446000E06812210222FFF79BFF0123A36113BD25
:10447000385F00006D430000F8B51D4B071C1E6837
:10448000B269002A02D1301CFFF7C4FF4836B46875
:104490007368013B05D40C22A55E002D10D0683452
:1044A000F7E73368002B06D1381C0421FFF79CFF87
:1044B0003060002801D03668E9E70C233B6016E045
:1044C00001235B42E381201C0123A38165662560F3
:1044D000A560656025616561A5615C30291C0822C5
:1044E00000F037F86563A563A564E564201CF8BD9A
:1044F000385F000070B50E4B0E4D0024ED1AAD1064
:104500001E1CAC4204D0A300F35898470134F8E7CE
:1045100000F094FD084B094D0024ED1AAD101E1C4F
:10452000AC4204D0A300F35898470134F8E770BDBB
:1045300084000020840000208400002088000020E7
:1045400010B50023934203D0CC5CC4540133F9E787
:1045500010BD031C8218934202D019700133FAE790
:104560007047000070B50323CD1C9D430835061C21
:104570000C2D01D20C2501E0002D3FDB8D423DD3F7
:10458000204B1C681A1C211C002913D00868431BEF
:104590000DD40B2B02D90B60CC181EE08C4202D13B
:1045A000636813601AE0486860600C1C16E00C1C1D
:1045B0004968E9E7144C2068002803D1301C00F05A
:1045C00025F82060301C291C00F020F8431C15D071
:1045D000C41C03239C4384420AD12560201C0B3059
:1045E0000722231D9043C31A0BD05A42E25008E021
:1045F000211A301C00F00AF80130EED10C23336090
:10460000002070BDEC010020E801002038B5074C07
:104610000023051C081C2360FEF7FAFE431C03D18F
:104620002368002B00D02B6038BDC0462402002038
:104630000EB400B59CB01DAB04CB822202A992003F
:104640008A810A4A02908A604A6101225242CA81E2
:10465000074A086110681D9A019300F0D5F8029A84
:10466000002313701CB008BC03B01847FFFFFF7F86
:104670008000002038B50C1C0E25495F00F0C0FCFE
:10468000002803DB626D1318636503E0A289024B07
:104690001340A38138BDC046FFEFFFFFF8B51E1CD5
:1046A0008B89051C0C1C171CDA0505D50E23C95E69
:1046B0000022022300F0FEFBA289054B281C1340B8
:1046C000A3810E22A15E331C3A1C00F017FBF8BD3B
:1046D000FFEFFFFF38B50C1C0E25495F00F0EAFB29
:1046E000A389421C03D1054A1340A38104E0802220
:1046F00052011343A381606538BDC046FFEFFFFF41
:1047000008B50E23C95E00F00DFB08BD0023C25C96
:104710000133002AFBD1581E7047031C002010B53E
:1047200082420FD01C780878A04201D1012A03D11F
:1047300018780B78C01A05E0013A0028F8D0013348
:104740000131EFE710BD0000F0B58D6885B0071CA2
:104750000C1C03920193AB4245D390228B89D2006B
:1047600013423DD062690326564309692068F20F5F
:10477000401A96190290021C019801321218761004
:10478000964200D2161C381C5A050FD5311CFFF773
:10479000E9FE051E13D0029A2169FFF7D1FEA28916
:1047A000184B134080221343A38111E0321C00F008
:1047B00001FC051E0CD1381C216900F0B3FB0C2351
:1047C0003B60A389402213430120A381404217E0AC
:1047D000029B2561ED1825606661019DF61AA660B1
:1047E0000198A84200D2019D2A1C2068039900F07C
:1047F00080FBA2680020531BA36023685D1925601D
:1048000005B0F0BD7FFBFFFFF0B59FB005938B892E
:1048100003900E1C171C19060FD53269002A0CD103
:104820004021FFF79FFE30603061002803D10399DB
:104830000C230B60C9E04023736106AD00236B615C
:1048400020236B763023AB763C1C2378002B03D1DE
:10485000E21B029211D003E0252BF9D00134F4E7DA
:104860000398311C3A1C029BFFF76EFF013000D108
:10487000A6E06969029A8B186B612378002B00D13E
:104880009EE0012252426A606A4600235B32013494
:104890002B60EB60AB601370AB654E4F2178381C1A
:1048A000052200F01BFB002807D0C71B2B68012046
:1048B000B840184328600134EFE72B68D90603D5C8
:1048C0006A4620215B3211701A0703D56A462B21F4
:1048D0005B32117022782A2A01D0099B0EE0059ADA
:1048E000111D12680591002A01DB099204E0524271
:1048F000EA60022213432B60013409E02278303A47
:10490000092A04D80A214B4301349B18F6E709937E
:1049100023782E2B18D163782A2B09D1059B0234DA
:104920001A1D1B680592002B0DDA01235B420AE079
:10493000013400232278303A092A04D80A214B4353
:1049400001349B18F6E70793234F2178381C032284
:1049500000F0C4FA002806D0C71B2B684020B840DE
:1049600018432860013421781C480622671C2976E8
:1049700000F0B4FA002812D0194B002B06D1059B89
:104980000722073393430833059314E005AB0093E4
:104990000398291C321C134B00E000BF07E005AB55
:1049A00000930398291C321C0E4B00F091F80490E0
:1049B0000499013104D06A69049953186B6143E783
:1049C000B3895A0601D40B9801E0012040421FB080
:1049D000F0BDC0463C5F0000425F0000465F000043
:1049E0000000000049470000F7B5151C01930A6953
:1049F0008B68061C0C1C934200DA131C221C2B60D3
:104A000043321278002A01D001332B6020688006DF
:104A100002D52B6802332B60216806270F401FD078
:104A2000231C43331B785A1E9341226892061FD5DC
:104A3000E11840313020C870211C5A1C45310978DA
:104A4000A21840320233D17012E0221C301C0199AE
:104A500019320123089FB847013011D0009F013758
:104A60000097E0682968009F431A9F42EDDBD7E773
:104A7000221C301C01994332089FB847013002D1F3
:104A80000120404223E0206806212B68E2680140B3
:104A90000025042903D1D51AEB43DB171D40A2687A
:104AA00023699A4201DDD31AED1800270097009F71
:104AB000AF420BDA221C301C01991A320123089FE5
:104AC000B8470130DCD0009F0137EFE70020FEBD82
:104AD000F0B58BB007930D1C0B7E43350692059005
:104AE0000C1C109A04956E2B00D1A7E011D8632BF3
:104AF00022D009D8002B00D1B0E0582B00D0C0E064
:104B000045310B707B4D4EE0642B1CD0692B1AD0C5
:104B1000B7E0732B00D1A5E009D86F2B29D0702BFB
:104B200000D0AEE00E68202333430B6036E0752BD7
:104B30001FD0782B32D0A4E013680D1C191D42350C
:104B400011601B689FE0216813680E0603D5191DCC
:104B500011601E6805E04806F9D5191D1160002195
:104B60005E5E644B002E3BDA049D2D2276422A7055
:104B700036E0216813680E0603D5191D11601E6802
:104B800004E04806F9D5191D1E881160594B227E94
:104B9000039308276F2A1ED00A271CE0231C7821C4
:104BA0004533554D197011682368081D0395106031
:104BB0001E0601D50E6802E05806FBD50E88D907FF
:104BC00002D52022134323601027002E03D1226830
:104BD00020239A432260231C002243331A7001E0F1
:104BE00003930A276368A360002B03DB2568042274
:104BF00095432560002E02D1049D002B0ED0049D0C
:104C0000301C391CFFF760FB0398013D435C301CEE
:104C10002B70391CFFF714FB061EF1D1082F09D1A8
:104C20002168C90706D5626823699A4202DC013D02
:104C300030232B70049E731B23612AE008681368DD
:104C40004969050604D5181D10601B68196005E048
:104C50004606F8D5181D10601B68198000232361D3
:104C6000049D16E01368191D11601D68281CFFF7CC
:104C70004DFD63682061984200D92361206960601E
:104C800004E0251C42352B7001232361049E002380
:104C90003370079E05980096211C09AA069BFFF712
:104CA000A3FE013002D10120404221E02A1C0598D8
:104CB00006992369079DA8470130F4D02668B607F6
:104CC00005D4099BE068984212DA181C10E0002510
:104CD000E0680999431A9D42F3DA221C0598069967
:104CE00019320123079EB0470130DCD00135EFE7D0
:104CF0000BB0F0BD4D5F00005E5F000038B5084CA2
:104D0000051C00202060081C111C1A1CFEF7C0FBAB
:104D1000431C03D12368002B00D02B6038BDC04654
:104D20002402002038B5074C0023051C081C236012
:104D3000FEF726FB431C03D12368002B00D02B6019
:104D400038BDC04624020020F7B58B89051C0C1C19
:104D500019075ED46268002A02DC276C002F1ADD76
:104D6000E76A002F17D000222E682A6080225201A5
:104D70001A4001D0626D15E0281C216A0123B84752
:104D8000021C411C0ED12B68002B0BD01D2B01D017
:104D9000162B02D12E6000205EE0A38940210B4338
:104DA000A38159E0A3895F0706D56168636B521A36
:104DB000002B01D0276CD21B281C216A0023E76A34
:104DC000B847A289411C06D12B68002B03D01D2BAC
:104DD00001D0162B19D10023636023692360D70407
:104DE00005D5411C02D12A68002A00D16065616B9B
:104DF0002E600029CFD0231C4433994202D0281CB6
:104E000000F090F80020606326E040231A43A2815E
:104E100022E02669002EBED027680022BF1B019722
:104E20002660990700D16269A260019F002FB2DD60
:104E3000281C216A321C019BA76AB847002806DC9F
:104E4000A389402213430120A381404204E0019F33
:104E500036183F1A0197E8E7FEBD00000A6938B529
:104E6000051C0C1C002A01D100201CE0002804D0E5
:104E70008369002B01D1FFF7CDFA0B4B9C4201D186
:104E80006C6808E0094B9C4201D1AC6803E0084B18
:104E90009C4200D1EC680C22A35E002BE4D0281CBD
:104EA000211CFFF751FF38BDD45E0000F45E000006
:104EB000145F000038B5084C051C00202060081C59
:104EC000111C1A1CFEF76CFA431C03D12368002B3B
:104ED00000D02B6038BDC04624020020C9B2821821
:104EE000904204D003788B4202D00130F8E70020D2
:104EF000704770B5814201D300230CE08C18A042AA
:104F0000FAD28518131C013B0BD351426618F65C8C
:104F10006918CE54F7E7934203D0CC5CC4540133F4
:104F2000F9E770BD30B5002940D004390B68002B7B
:104F300000DAC9181E4A1368141C002B02D14B60FA
:104F4000116033E099420FD208680A189A4205D1DD
:104F500013685268C01808604A6000E04B60216026
:104F600024E08A4203D8131C5A68002AF9D11D682C
:104F70005C198C420BD10968691858181960904265
:104F800014D114685268091919605A600EE08C42F5
:104F900002D90C23036009E008680C18944203D17D
:104FA00014685268001908604A60596030BDC046F4
:104FB000EC010020F8B5061C0C1C151C002904D1BE
:104FC000111CFFF7CFFA041C18E0002A03D1FFF7E9
:104FD000A9FF2C1C12E000F027F8A8420ED2301CCA
:104FE000291CFFF7BFFA071E07D0211C2A1CFFF758
:104FF000A7FA301C211CFFF795FF3C1C201CF8BDB4
:1050000038B5084C051C00202060081C111C1A1C17
:10501000FEF7D2F9431C03D12368002B00D02B608C
:1050200038BDC0462402002004390B68181F002B2D
:1050300002DAC8581B18181F70470000F8B5C046A0
:10504000F8BC08BC9E467047F8B5C046F8BC08BC22
:105050009E467047253032643A253032643A253016
:105060003264000052656C6169732025643A2075D2
:105070006974000052656C6169732025643A20618F
:10508000616E0000253032643A25303264203E20C3
:1050900025642C25642C256400000000576174638E
:1050A00068646F6720526573657400009E0D000090
:1050B0000C0D00009E0D00009E0D00001E0D000056
:1050C000360D00009E0D00004E0D0000760D000014
:1050D000F20E0000E80D0000F20E0000F20E0000DB
:1050E000200E0000540E0000F20E00008A0E000098
:1050F000BE0E00009C0F00003E0F0000440F000099
:10510000380F00009C0F00009C0F00004A0F0000A9
:10511000540F00005E0F00009C0F00006A0F00009B
:105120000213000070110000D811000024120000CA
:105130007012000002130000A2120000B41200005E
:105140003E15000062130000EC130000EC13000099
:105150007A1400003E1500003E150000CA1400003D
:105160004215000042150000761300008413000071
:1051700092130000A0130000421500004215000029
:105180004215000042150000AE1300004215000059
:10519000461500000014000006140000161400005C
:1051A00046150000461500002614000046150000B4
:1051B0004615000046150000461500003814000092
:1051C000C8150000BA1500009E15000090150000DB
:1051D000AC150000DA1500002816000000040A0AC9
:1051E0000403060608020000000000000E040E1F63
:1051F000081F0C1F0E0E00001000010E0E0E0F0EE9
:10520000071F1F0E110E1C110111110E0F0E0F1E84
:105210001F11111111111F0E000E040002000100D8
:1052200010000C000104080106000000000000004E
:10523000020000000000000C040600000000000056
:1052400000040A0A1E1309040404040400000000F8
:10525000110611080C0102101111060608000211B6
:10526000101111110901011111040809011B11117B
:1052700011111101041111111111100200080A007D
:10528000040001001000121E0100000104000000D3
:1052900000000000020000000000000204080200FC
:1052A0000000000000040A1F01080502020815049E
:1052B00000000010190410040A0F0108111106065D
:1052C000041F04101011110111010101110408053E
:1052D0000115131111111101041111110A11080204
:1052E00001081100080E0D0E160E02110D060C0914
:1052F000040B0D0E0F160D0E0711111111111F02C7
:1053000004081500000000000004000A0E0402005A
:1053100002080E1F001F00081504080809100F04DA
:105320000E1E00000200080816110F01110F0F1DBC
:105330001F040803011515110F110F0E041111158B
:10534000040A0402020800000010130119110711D9
:105350001304080504151311111913010211111179
:105360000A11080104100800000000000000001FDE
:1053700010021500020815040600000413040410AE
:105380001F10110211100606041F0404151F11013D
:105390001101011111040805011119110115051060
:1053A000041111150A04020204080000001E110174
:1053B000111F021E11040803041511110F1E010E06
:1053C00002111115041E0402040800000000000070
:1053D0000000000A0F190900040404040400060276
:1053E000110402110811110211080604080002003C
:1053F00015111111090101111104090901111111EE
:105400000109091004110A1511040102080800001D
:1054100000111111110102101104090504111111DB
:105420000110011012190A150A10020204080000E6
:10543000000000000004000A041816000802000022
:10544000020006010E0E1F0E080E0E020E060002CE
:10545000100001040E110F0E071F010E110E061190
:105460001F11110E0116110F040E040A11041F0E54
:10547000100E001F001E0F0E1E0E020E110E06094A
:105480000E11110E0110010F0C16040A110E1F0C43
:105490000406000000000000000000000000000002
:1054A00000000000000000000000000000000000FC
:1054B00000000000000000000000000000000000EC
:1054C00000000000000000000000000000000000DC
:1054D00000000000000000000000000000000000CC
:1054E00000000000000000000000000000000000BC
:1054F000000000000000000000000000DC5100007F
:1055000020030164060802000100000000186C6C12
:1055100010CE3808600C0000000000007C307C7C5D
:10552000C6FE7CFE7C7C000070001C7C7C7C7E7C4B
:105530007EFEFE7CC63C78C606C6C67C7E7C7E7C33
:105540007EC6C6C6C6C6FE7C007C10000C000600E7
:1055500060003800060000060C000000000000009B
:10556000000000000000003018188C00000000004F
:1055700000186CFEFC6A2C1830186C18000000C073
:10558000C638C6C6C606C6C0C6C61818387C38C6D1
:10559000C6C6C6C6C60606C6C618306606EECEC65F
:1055A000C6C6C6C618C6C6C6C6C6C00C0660380083
:1055B0000C00060060000C00061830060C0000000D
:1055C0000000000018000000000000181830D6008D
:1055D00000000000001848FE162E2C18183038184D
:1055E00000000060C63060C0C6060660C6C6181857
:1055F0001C7C70C6F6C6C606C6060606C618303639
:1056000006FEDEC6C6C6C60618C6C6C66CC6600C92
:105610000C606C00043C3E3C7C3C3C3C3E00006624
:105620000C6E3E3C3E3C363C186666C666667E188E
:1056300018306200000000000018006C7C10DC00D4
:105640001830FE7E1C7E0030C6303070FE7E7E300C
:105650007CFC00000E00E070F6FE7E06C61E1EF604
:10566000FE18301E06D6F6C67EC67E7C18C6C6D686
:1056700038FC300C1860C6000060660666660C6672
:10568000661830360CD6666666666E067C6666C63A
:105690003C66300C0060000000000000000000FECE
:1056A000D0E866001830387E1C7E1C18C63018C042
:1056B000C0C0C618C6C018181C7C703076C6C60696
:1056C000C60606C6C618303606C6E6C606B6C6C044
:1056D00018C6C6FE6CC0180C30600000007C660660
:1056E000667E0C7C6618301E0CD666663E56063CFE
:1056F000186666D6187C18181830000000000000E4
:10570000001800FE7EAC660030186C1818001C0CE7
:10571000C6300CC6C0C6C60CC6C61818387C3800C1
:1057200006C6C6C6C60606C6C618366606C6C6C6B7
:105730000666C6C618C66CEEC6C00C0C606000FEDD
:105740000066660666060C60661836360CC6666627
:105750000626066018663CD63C600C18183000001F
:10576000000000000018006C10E6DC00600C00185F
:105770000C001C067C78FE7CC07C7C067C7C000CCB
:1057800070001C307CC67E7C7EFE06FCC63C1CC6BF
:10579000FEC6C67C06DCC67C187C38C6C67EFE7C8F
:1057A000C07C00FE007C3E3C7C3C0C3E66701C666F
:1057B00038C6663C065C063E707C18FC663E7E3051
:1057C00018180000000000000000000000000000A9
:1057D00000000000000000000000000000000000C9
:1057E00000000000000000000000000000000000B9
:1057F00000000000000000000000000000000000A9
:105800000000000000000000000000000000000098
:105810000000000000000000000000000000000088
:105820000000000000000000000000000C55000017
:1058300020030164080802000100000000000000CD
:105840000000000000000000000000000000000058
:105850000000000000000000000000000000000048
:10586000000000000000000000000000C003000372
:10587000C007E003000FF81F001FFC1FE007E00354
:1058800000000000F00FE003E00FF00F800FF81FA2
:10589000C03FFC1FF80FF00700000000781EFC035B
:1058A000701C380E800F3800E0310C1C381C380E8C
:1058B00080010000381CBC033838181CC00F3800A9
:1058C00070000C1C1C381C1CC00300001C3880031A
:1058D0003838001CE00E38003800000E1C381C1848
:1058E000C00300001C3880033838001CE00EB807E5
:1058F0003800000E1C381C38800100001C38800362
:10590000003C000E700EF80FDC07000E381C1C382F
:10591000000000001C388003001CC007700E381CFB
:10592000FC0F0007F00F1C3C000000001C38800337
:10593000000EC007380E18387C1C0007F00F383EE8
:10594000000000001C3880030007001E1C0E0038F9
:105950003C3C0007381CF03F000000001C3880036E
:105960008003003CFC3F00383C3880071C38E03B9B
:10597000800100001C388003C0010038FC3F003863
:105980001C3880031C38003CC00300001C38800316
:10599000E0000038000E00381C3880031C38001C62
:1059A000C0030000381C800370000038000E00386F
:1059B000383880031C38000E80010000781E8003F8
:1059C00038000C1C000E0C1C381CC001381C8C0F3D
:1059D00000000000F00FFC7FFC3FFC1FC03FFC0FED
:1059E000F01FC001F81FFC0300000000C003FC7F93
:1059F000FC3FF007C03FF007C007C001E007F80018
:105A00000000000000000000000000000000000096
:105A10000000000000000000000000003C580000F2
:105A2000E001020C101405000200000053686172CE
:105A300070204C53303133423744483033202331C7
:105A400000000000050000000000000040420F00C0
:105A5000050100000000000000000000010001003E
:105A60004865617020616E6420737461636B2063AC
:105A70006F6C6C6973696F6E0A00000000040A0A9B
:105A80000403060608020000000000000E040E1FBA
:105A9000081F0C1F0E0E00001000010E0E0E0F0E40
:105AA000071F1F0E110E1C110111110E0F0E0F1EDC
:105AB0001F11111111111F0E000E04000200010030
:105AC00010000C00010408010600000000000000A6
:105AD000020000000000000C0406000000000000AE
