:1000000000000220850F0000B10F0000B10F0000BA
:10001000B10F0000B10F0000B10F0000B10F0000E0
:10002000B10F0000B10F0000B10F0000B10F0000D0
:10003000B10F0000B10F0000B10F000085030000F8
:10004000B10F0000B10F0000B10F0000B10F0000B0
:10005000B10F0000B10F0000B10F0000B10F0000A0
:10006000B10F0000B10F0000B10F0000B10F000090
:10007000B10F0000B10F0000B10F0000B10F000080
:10008000B10F0000B10F0000B10F0000B10F000070
:10009000B10F0000B10F0000B10F0000B10F000060
:1000A000B10F0000B10F0000B10F0000B10F000050
:1000B000B10F0000B10F0000B10F0000B10F000040
:1000C000B10F0000B10F0000B10F0000B10F000030
:1000D000B10F0000B10F0000B10F000010B5054CCA
:1000E000237833B9044B13B10448AFF300800123E4
:1000F000237010BD740000200000000010130000E9
:1001000008B5064B1BB106480649AFF30080064808
:10011000036813B1054B03B1984708BD0000000008
:100120001013000078000020700000200000000084
:10013000154B002B08BF134B9D46A3F5803A0021B9
:100140008B460F461348144A121A01F0C7F80F4B9A
:10015000002B00D098470E4B002B00D09847002072
:10016000002104000D000D48002802D00C48AFF318
:10017000008001F08DF82000290000F025F901F041
:1001800073F800BF0000080000000220000000001B
:100190000000000074000020A80000200000000003
:1001A0000000000080B400AF1D4B1A6840F2E73336
:1001B0009A422AD11A4B00221A601A4B1B683B2B19
:1001C0001DD1184B00221A60174B1B683B2B10D116
:1001D000154B00221A60154B1B68172B03D1134BCC
:1001E00000221A6016E0114B1B685A1C0F4B1A6054
:1001F00010E00D4B1B685A1C0B4B1A600AE0094BB0
:100200001B685A1C074B1A6004E0054B1B685A1CFC
:10021000034B1A6001231846BD465DF8047B704706
:1002200098000020900000209C00002094000020F6
:1002300080B400AF034B1B681846BD465DF8047BD5
:10024000704700BF9400002080B400AF034B1B68D0
:100250001846BD465DF8047B704700BF9C00002037
:1002600080B400AF034B1B681846BD465DF8047BA5
:10027000704700BF9000002080B485B000AFF860E8
:10028000B9607A60064BFA681A60064BBA681A6061
:10029000054B7A681A601437BD465DF8047B7047D9
:1002A000940000209C0000209000002080B483B0C7
:1002B00000AF03463960FB7197F90730002B0BDA6A
:1002C0000D49FB7903F00F03043B3A68D2B25201A7
:1002D000D2B20B441A7609E0084997F907303A6818
:1002E000D2B25201D2B20B4483F800230C37BD4680
:1002F0005DF8047B704700BF00ED00E000E100E026
:1003000080B582B000AF78607B68013BB3F1807F3D
:1003100001D301230FE00A4B7A68013A5A604FF08B
:10032000FF300721FFF7C2FF054B00229A60044B04
:1003300007221A60002318460837BD4680BD00BF5B
:1003400010E000E080B582B000AF0C4B1B687B6012
:100350003B46184600F0DCFD7B681B0E0F2B0AD9CC
:100360003B78032B07D1064B054A126822F0500256
:1003700042F010021A600837BD4680BDFC81E00FD4
:10038000C0800C4080B500AF034B1B685A1C024B69
:100390001A60FFF707FF80BDA000002080B485B081
:1003A00000AF7860074B1B68FB6000BF054B1A6805
:1003B000FB68D21A7B689A42F8D31437BD465DF8C1
:1003C000047B7047A000002080B582B000AFFFF72B
:1003D000B9FF2748012100F093FA00F031FF2548CA
:1003E00000F006FB0246244BA3FB02139B091846B0
:1003F000FFF786FF0346002B00D0FEE700237B605B
:1004000009E07B68032019460422002300F0F8FC71
:100410007B6801337B607B68062BF2DD02200021C4
:100420000422002300F0ECFC13203B213722FFF7CD
:1004300023FFFFF7FDFE0346184600F077F8FA2089
:10044000FFF7ACFFFFF700FF0346184600F06EF819
:10045000FA20FFF7A3FFFFF703FF0346184600F05B
:1004600065F8FA20FFF79AFF002000F05FF8E0E758
:1004700000D2040050000200D34D621080B483B05B
:1004800000AF03463960FB71FB79002B0DD0FB797F
:10049000012B0AD0FB79022B07D0FB79032B04D068
:1004A000FB79042B01D0FB79052B0948FA793B68CD
:1004B000012101FA03F319461346DB0013449B00A4
:1004C0000344103359600C37BD465DF8047B704718
:1004D0000060004080B483B000AF03463960FB7118
:1004E000FB79002B0DD0FB79012B0AD0FB79022B75
:1004F00007D0FB79032B04D0FB79042B01D0FB79C7
:10050000052B0948FA793B68012101FA03F31946E2
:100510001346DB0013449B000344103319600C376F
:10052000BD465DF8047B70470060004080B584B034
:1005300000AF78600023FB601AE07B6803F00103E2
:10054000BB60BB68002B05D1FB6803201946FFF791
:1005500095FF07E0BB68012B04D1FB680320194617
:10056000FFF7B8FF7B685B107B60FB680133FB60C3
:10057000FB68062BE1DD7B68002B04D10220002103
:10058000FFF77CFF06E07B68012B03D102200021EE
:10059000FFF7A0FF1037BD4680BD00BF80B487B015
:1005A00000AFF860B9607A60FB6803F10473DA00A9
:1005B000BB6813449B007B617B697A681A601C37B7
:1005C000BD465DF8047B704780B487B000AF7860AB
:1005D0007B68002B04D07B68B3F5004F00D800BFC8
:1005E0007B683B613B69B3FA83F3FB60FB68DBB27A
:1005F000C3F11F037B617B6918461C37BD465DF85C
:10060000047B704780B400AF054BDB6C03F47F03C1
:100610001B0CDBB21846BD465DF8047B704700BF7B
:10062000B081E00F80B483B000AF1A4B5B6903F474
:10063000E063B3F5007F14D0B3F5007F05D8002B3D
:1006400015D0B3F5807F0FD01AE0B3F5C06F14D08A
:10065000B3F5E06F0ED0B3F5407F11D10E4B7B6048
:1006600011E00E4B7B600EE00D4B7B600BE00D4B01
:100670007B6008E00C4B7B6005E00C4B7B6002E08C
:1006800000237B6000BF7B6818460C37BD465DF8D1
:10069000047B704700800C4040420F00C0CF6A00CE
:1006A000C0D8A700809FD500406F4001003FAB013C
:1006B00080B582B000AF124800F09AFA0346FB7092
:1006C000FB78072B0FD0082B11D100F0A5FC786028
:1006D0000C4B1B6803F4E0339B0B01337A68B2FBCD
:1006E000F3F37B6006E0FFF79DFF786002E00023F4
:1006F0007B6000BF7B6818460837BD4680BD00BFE1
:1007000006000C0000800C4080B584B000AF78601B
:100710000023BB607B683A4A934203D0394A934234
:1007200000D000E000BF786800F062FA0346FB608A
:100730007B68334A934203D0324A934206D00CE09E
:10074000314B9B6A03F00303FB6006E02E4B9B6A70
:1007500003F00C039B08FB6000BFFB68032B47D82A
:1007600001A252F823F000BFB9070000790700008A
:10077000810700008907000000F0CCFCB8603AE077
:1007800000F0DCFCB86036E01F4B5B6803F480735C
:10079000002B05D11C4B1B6803F08043002B05D0B8
:1007A00000F016FC03469B08BB6024E000F010FC40
:1007B00003465B08BB601EE00023BB607A68104BF9
:1007C0009A4203D07A680F4B9A4210D10E4B9A6A24
:1007D00079680B4B994201D1102300E0142322FACF
:1007E00003F3002B03D000F09FFCB86003E002E0AD
:1007F0000023BB6000BFBB6818461037BD4680BDF4
:100800000200180003001A0000800C4080B582B07E
:1008100000AFFFF7F7FE0346482B23D04A2B23D126
:10082000144B1B699BB203F03F039BB21B02FB807E
:10083000104B9B699BB203F0F0039AB2FB88134301
:10084000FB800C4BDB6903F0F0031B099AB2FB88B9
:100850001343FB80FB88B3F5017F01D3064B04E013
:10086000064B02E0054B00E0002318460837BD4662
:1008700080BD00BFD0FF0FE000366E010048E801E8
:1008800080B483B000AF7860094B5B6D03F0010367
:10089000002B00D006E000BF054B1A6D7B681340AB
:1008A000002BF9D10C37BD465DF8047B704700BFC3
:1008B00000800C4080B582B000AF104800F098F97D
:1008C0000346FB70FB78032B07D0082B09D0022BC3
:1008D0000BD100F033FC78600AE000F01BFC78607C
:1008E00006E000F099FB786002E000237B6000BF27
:1008F0007B6818460837BD4680BD00BF072320002F
:1009000090B587B000AF78600B46FB7000233B6169
:100910007B681B0A03F00F03013B092B52D801A28D
:1009200052F823F07B090000810900004D09000006
:10093000C5090000C50900008709000091090000F1
:10094000C5090000C50900009B0900001F4B7B6121
:100950001F4800F04DF80446FFF758FF03469C423D
:100960000AD91C481E210122FFF718FE1A48082147
:100970000122FFF713FE13E012E0184B7B610FE03A
:10098000174B7B610CE0174B7B6101233B6107E058
:10099000154B7B6110233B6102E0144B7B6100BF70
:1009A0007B681B0B03F01F03FB603B69002B02D02D
:1009B0003869FFF765FFFB787869F9681A46FFF731
:1009C000EDFD00E000BF1C37BD4690BD40800C40EF
:1009D0005000020000800C4004800C4008800C4055
:1009E00044800C4058800C4060800C4078800C4063
:1009F00090B585B000AF78607B6803F47813B3F5E9
:100A0000A01F00F0C080B3F5A01F1AD8B3F5402F87
:100A100000F0D480B3F5402F08D8B3F5003F51D093
:100A2000B3F5802F38D0002B28D0D3E0B3F5801F4A
:100A300051D0B3F5901F5CD0B3F5602F00F0C280A9
:100A4000C8E0B3F5001F00F0C180B3F5001F0BD85C
:100A5000B3F5C01F3AD0B3F5D01F00F08F80B3F5C7
:100A6000B01F00F09D80B5E0B3F5181F62D0B3F55C
:100A7000201F76D0B3F5101F49D0ABE000F0CCFAC0
:100A8000F860584B1B6803F4E0339B0B0133FA68A2
:100A9000B2FBF3F3FB60A0E000F0BEFAF860514B4C
:100AA0001B6803F4E0339B0B0133FA68B2FBF3F3EA
:100AB000FB604C4B9B6803F00F03FA6822FA03F3C8
:100AC000FB608AE000F084FAF86086E04648FFF7B1
:100AD0001BFEF86081E04448FFF716FEF860414BCA
:100AE0009B6E03F0F0031B09FA6822FA03F3FB6024
:100AF00073E03D48FFF708FEF8603A4B9B6E03F445
:100B000070631B0AFA6822FA03F3FB6065E036485B
:100B1000FFF7FAFDF860334B9B6E03F440531C0B58
:100B20001020FFF751FD03462344FA6822FA03F32D
:100B3000FB6052E02C48FFF7E7FDF860294B9B6E05
:100B400003F440531B0BFA6822FA03F3FB60254BB6
:100B5000DB6F03F007030133FA68B2FBF3F3FB60CA
:100B60003BE02148FFF7D0FDF8601E4B9B6E03F081
:100B70000303FA6822FA03F3FB602EE01B48FFF739
:100B8000C3FDF86029E01948FFF7BEFDF860154B7A
:100B90001B6F03F00303FA6822FA03F3FB601CE007
:100BA0001248FFF7B1FDF8600E4B1B6F03F03003E6
:100BB0001B09FA6822FA03F3FB600EE0FFF778FDE9
:100BC000F8600AE0FFF72EFDF86006E0FFF772FE1E
:100BD000F86002E00023FB6000BFFB681846143792
:100BE000BD4690BD00800C400200180003001A00B2
:100BF00080B485B000AF78600123FB737B6803F09D
:100C00000F03BB60BB68013B062B00F2958001A27D
:100C100052F823F0310C0000670C0000A30C000018
:100C2000390D0000390D0000DF0C0000050D00003B
:100C3000464BDB6A03F47053B3F5805F09D0B3F51C
:100C4000005F03D0B3F5006F06D008E00223FB730A
:100C500008E00323FB7305E00423FB7302E0052394
:100C6000FB7300BF6BE0394B9B6A03F00303022B5D
:100C700006D0032B07D0012B08D10323FB730FE011
:100C80000223FB730CE00623FB7309E02F4B9B6AE6
:100C900003F48033002B02D00923FB7300E000BF74
:100CA0004DE02A4B9B6A03F00C03082B06D00C2B5B
:100CB00007D0042B08D10323FB730FE00223FB733F
:100CC0000CE00623FB7309E0204B9B6A03F48013BE
:100CD000002B02D00923FB7300E000BF2FE00723A5
:100CE000FB731A4B1B6803F08053002B03D0B3F146
:100CF000805F03D023E00723FB7302E00823FB732C
:100D000000BF1CE0114BDB6A03F46033B3F5803F96
:100D100008D0B3F5003F08D0B3F5004F08D1082341
:100D2000FB7308E00223FB7305E00323FB7302E07F
:100D30000123FB7300BF02E00023FB7300BFFB7BBA
:100D400018461437BD465DF8047B704700800C40A0
:100D500080B483B000AF03463960FB71FB79002B90
:100D60000DD0FB79012B0AD0FB79022B07D0FB7940
:100D7000032B04D0FB79042B01D0FB79052B094808
:100D8000FA793B68012101FA03F319461346DB00A7
:100D900013449B000344103359600C37BD465DF883
:100DA000047B70470060004080B483B000AF03460E
:100DB0003960FB71FB79002B0DD0FB79012B0AD038
:100DC000FB79022B07D0FB79032B04D0FB79042B92
:100DD00001D0FB79052B0948FA793B68012101FA1A
:100DE00003F319461346DB0013449B0003441033FE
:100DF00019600C37BD465DF8047B70470060004009
:100E000090B585B000AFB9607B600346FB731346B5
:100E1000BB73FB7B002B0DD0FB7B012B0AD0FB7B34
:100E2000022B07D0FB7B032B04D0FB7B042B01D0D0
:100E3000FB7B052BBB7B002B0DD07B68002B05D0EB
:100E4000FB7B1846B968FFF7AFFF04E0FB7B184651
:100E5000B968FFF77DFFBB68072B1DD82B48FA7BCD
:100E60002A4CF97B0B46DB000B449B00234459685A
:100E7000BB689B000F2404FA03F3DB431940BC7BDF
:100E8000BB689B0004FA03F319431346DB001344C9
:100E90009B000344596024E01C48FA7B1B4CF97BFF
:100EA0000B46DB000B449B00234408331968BB68E6
:100EB00003F18043083B9B000F2404FA03F3DB4358
:100EC0001940BC7BBB6803F18043083B9B0004FADC
:100ED00003F319431346DB0013449B000344083318
:100EE0001960BB7B002B0DD17B68002B05D0FB7BF1
:100EF0001846B968FFF758FF04E0FB7B1846B9684D
:100F0000FFF726FF1437BD4690BD00BF00600040CC
:100F100080B485B000AF7860194B5B69DBB203F039
:100F20000F03DBB29B00FB73154B1B6903F0C0037F
:100F30009B09DAB2FB7B1343FB737B68FA7B9A70E5
:100F40000F4B1B69DBB203F03F03DAB27B685A70C8
:100F50000B4B9B69DBB223F00F03FB73084BDB6980
:100F600003F0F0031B09DAB2FB7B1343FB737B68CE
:100F7000FA7B1A701437BD465DF8047B704700BFDA
:100F8000D0FF0FE0064880470649074A074B9A42C0
:100F9000BEBF51F8040B42F8040BF8E7FFF7C8F89E
:100FA000091100001C130000000000207400002044
:100FB000FEE700BF80B400AF044BDB6C1B0EDBB25E
:100FC0001846BD465DF8047B704700BFB081E00F56
:100FD00080B582B000AF00F01FF878600C4B1B6842
:100FE00003F4E0339B0B01337A68B2FBF3F37B60CD
:100FF000074B5B6803F00F037A6822FA03F37B6008
:10100000044B7A681A607B6818460837BD4680BD75
:1010100000800C40A400002080B582B000AF2F4BB0
:10102000DB6A03F47053B3F5805F0AD0B3F5005F59
:1010300003D0B3F5006F08D00BE0294B1B687B6031
:1010400047E04FF400437B6043E0264B1B687B6026
:101050003FE0224BDB6803F4E063B3F5007F1BD075
:10106000B3F5007F05D8002B24D0B3F5807F16D0D0
:101070002BE0B3F5806F09D0B3F5A06F03D0B3F5C3
:10108000407F06D021E0184B7B6021E0174B7B604E
:101090001EE0174B7B601BE0164B7B6018E0FFF7F0
:1010A00089FF0346122B02D9134B7B6010E0134BD0
:1010B0007B600DE0FFF77EFF0346122B02D9104B39
:1010C0007B6005E00F4B7B6002E000237B6000BF8C
:1010D00000BF7B6818460837BD4680BD00800C40C5
:1010E0000400002000000020003FAB01406F4001E1
:1010F000809FD500C0D8A70040B56400C0CF6A006B
:10110000804F120040420F0080B400AFBD465DF832
:10111000047B704780B400AF4FF400431846BD46CF
:101120005DF8047B704700BF80B400AF4FF47A7362
:101130001846BD465DF8047B704700BF80B400AF21
:10114000034B1B681846BD465DF8047B704700BF23
:101150000400002080B400AF314B314A526C42F49D
:1011600000525A642F4B2F4AD2F8202142F0040239
:10117000C3F820212B4B2B4AD2F8202122F44072B5
:10118000C3F82021274B274AD2F8B82022F47062F6
:10119000C3F8B820234B234AD2F8B82042F4806227
:1011A000C3F8B8201E4B10221A6200BF1C4BDB6A2A
:1011B00003F02003002BF9D01B4B1B4A126842F0AE
:1011C00001021A60184B184AD26842F08072DA6045
:1011D000164B174A1A60174B0F221A61154B022241
:1011E000C3F8F020134B4FF48072C3F804234FF080
:1011F0006043114AC3F8B02F4FF060430F4AC3F861
:10120000802E4FF060434FF06042D2F8002E42F043
:101210000102C3F8002EBD465DF8047B704700BF95
:1012200000800C4000600040F0ED00E0001000E0A5
:10123000FF130140000004E055CEACC509000100D9
:1012400080B582B000AF4FF07E637B607B681B6827
:10125000002B01D1002302E0FFF77CFF0123184699
:101260000837BD4680BD00BF08B5074B044613B123
:101270000021AFF30080054B1868836A03B19847DB
:10128000204600F033F800BF000000000C130000FF
:1012900070B50E4B0E4D0024ED1AAD101E46AC423B
:1012A00004D056F8242090470134F8E700F020F8E5
:1012B000084D094B0024ED1AAD101E46AC4204D077
:1012C00056F8242090470134F8E770BD68000020EC
:1012D000680000206C0000206800002002440346E3
:1012E000934202D003F8011BFAE77047FEE700BF04
:1012F000F8B500BFF8BC08BC9E467047F8B500BF03
:10130000F8BC08BC9E46704743000000080000205F
:0413100000000000D9
:081314001CEEFF7F0100000048
:10131C00006CDC02008000000000000000000000F7
:10132C0000000000000000000000000000000000B1
:10133C000000000000000000081300000000000086
:10134C000000000000000000000000000000000091
:10135C000000000000000000000000000000000081
:10136C000000000000000000000000000000000071
:10137C00000000000000000001010000DD00000082
:04138C00000000005D
:0400000300000F8565
:00000001FF
