:100000000020002039080000650800006508000095
:10001000650800006508000065080000650800002C
:10002000650800006508000065080000650800001C
:10003000650800006508000065080000F501000083
:1000400065080000650800006508000065080000FC
:1000500065080000650800006508000065080000EC
:1000600065080000650800006508000065080000DC
:1000700065080000650800006508000065080000CC
:1000800065080000650800006508000065080000BC
:100090006508000010B5064C2378002B07D1054BEE
:1000A000002B02D0044800E000BF0123237010BDE4
:1000B0007400002000000000940B000008B5084BFD
:1000C000002B03D00748084900E000BF0748036839
:1000D000002B03D0064B002B00D0984708BDC0462C
:1000E00000000000940B0000780000207000002049
:1000F00000000000164B002B00D1144B9D464022FF
:1001000092029A1A924600218B460F461348144ACF
:10011000121A00F0FFFC0F4B002B00D098470E4B3B
:10012000002B00D098470020002104000D000D484E
:10013000002802D00C4800E000BF00F0C5FC200001
:10014000290000F061F800F0A9FCC046000008009A
:1001500000200020000000000000000074000020CB
:10016000A800002000000000000000000C4B0D491A
:100170001A688A4202D001321A6070470021196061
:10018000094B1A683B2AF6D11960084B1A683B2ABA
:10019000F1D11960064B1A68172AECD11960ECE707
:1001A00098000020E7030000900000209C00002041
:1001B00094000020014B18687047C046940000204E
:1001C000014B18687047C0469C000020014B18681E
:1001D0007047C04690000020034B1860034B196025
:1001E000034B1A607047C046940000209C0000201A
:1001F0009000002008B5034B1A6801321A60FFF71F
:10020000B5FF08BDA0000020324B10B51B681B0EC7
:10021000812B07D8304A314B1A60314B314A19686B
:100220000A401A600121304800F0C4F82F4800F05D
:1002300079F9FA21890000F0E1FB2D4B0138984251
:1002400000D9FEE72B4B2C4A5860106AC0210002EF
:10025000000A09060143116200229A6007221A600F
:100260000024211C032004220023013400F086FA1C
:10027000072CF6D1022000210422002300F07EFA90
:1002800013203B213722FFF7A7FF1C4CFFF792FFFB
:1002900000F036F8226823689B1AF92BFBD9FFF788
:1002A0008FFF00F02DF8226823689B1AF92BFBD9E9
:1002B000FFF78CFF00F024F8226823689B1AF92BC3
:1002C000FBD9002000F01CF8226823689B1AF92B48
:1002D000FBD9DBE7FC81E00F0500000418600C404F
:1002E000E4800C40FFFFFFFE00820400500002008B
:1002F000FFFFFF0010E000E000ED00E0A0000020A4
:10030000012303424DD02A4AD3674310DA0743D56D
:10031000274A0221D1675B10DA0738D5244A042125
:10032000D1675B10DA072DD5214A0821D1675B1010
:10033000DA0722D51E4A1021D1675B10DA0717D5DC
:100340001B4A2021D1675B10DA0707D5184A4021E4
:10035000D1675B1008D0012B27D07047144940208B
:10036000802288505B10F6D1114B0122DA65F4E748
:100370000F49202080228850E5E70D491020802277
:100380008850DAE70A49082080228850CFE70849D8
:10039000042080228850C4E705490220802288502A
:1003A000B9E7034980228B50AFE7014A9365D4E750
:1003B00000600040030570B51B0F0A2B13D8164AC6
:1003C0009B00D3589F46154A1024154DC0036B6DF2
:1003D000C00EDE0708D5136801248440A343814082
:1003E000181C0843106070BD2B6D2342F3D02B6D99
:1003F0002342F9D1EFE70B4AC003C00EEBE70A4AEC
:10040000FAE780246400094ADFE7094AF4E7094A69
:10041000F2E70124084AD8E7400B000060800C4056
:1004200000800C4008800C4044800C4064800C40EC
:1004300078800C4040800C4058800C400F231840BE
:10044000072857D8334B80001B589F46324BE0207B
:10045000DB6AC002184080239B0298424CD0802364
:10046000DB02984254D02D4BC01843425841013012
:100470007047294BDA6A2A4B13408022520193427B
:100480003AD03FD98022022092019342F0D08022BC
:100490000A20D2049342EBD00520E9E71E4A03214B
:1004A000936A0B40022B2BD0032B27D0012B23D098
:1004B000936A0B20DA03DBD40120D9E7164A0C211A
:1004C000936A0B40082B1BD00C2B17D0042B13D096
:1004D000936A0B20DA02CBD4EEE70F4B30209B6AF5
:1004E0001840102808D02038434258410130BFE757
:1004F0000720BDE70020BBE70320B9E70620B7E7E8
:100500000220B5E78022042012019342B0D0C3E755
:100510000920ADE76C0B000000800C400000FFFFDD
:10052000003C0004F8239B031840E02310B51B0394
:10053000984200D1B6E02AD9C0235B03984200D18B
:100540009CE045D880235B03984200D177E0A0234C
:100550005B03984250D17F48FFF770FF7E4A936A51
:100560001B079B0F022B00D1EAE0032B00D1C1E057
:10057000012B00D1E1E0936A00201B0D01D000F0B7
:1005800033FA754B03221B6F1340D84056E080238B
:100590009B02984200D16EE000D869E08023DB0224
:1005A00098423ED0C0231B03984225D16B48FFF7E9
:1005B00045FF072800D1A7E008281DD100F0B6F9B3
:1005C000654B1968C903490F013100F017FA35E08E
:1005D000D0235B03984211D080239B0398420BD118
:1005E0005F48FFF72BFF032800D16DE0082800D1FA
:1005F0007DE0022800D16AE000201FE05548FFF7A7
:100600001DFF554A936A1B079B0F022B5FD0032BDC
:1006100000D168E0012B57D0936A00201B0D0DD04C
:100620003DE04D4C00F082F92168C903490F0131CA
:1006300000F0E4F9A3680F221340D84010BD4948E8
:10064000FFF7FCFE444A0321936A0B40022B7AD049
:10065000032B53D0012B79D0936A00201B0C01D0BF
:1006600000F0C2F93C4B0F229B6E1340D840E5E7E7
:100670000028A3D0C0E700F0F7F8DFE73948FFF71C
:10068000DDFE354A0321936A0B40022B1FD0032B5A
:1006900029D0012B18D0936A00201B0CCED000F07B
:1006A000A3F9CBE72C4BE0215B69C90080220B400A
:1006B000920093423DD00DD8002B23D080225200CF
:1006C000934299D12848B9E700F08AF9B6E700F0DB
:1006D0008FF9B3E7C022920093422CD08B4200D016
:1006E0008AE72248AAE700F0BFF84008A6E700F032
:1006F0001DF9A3E700F0B8F8400842E700F0B4F8AD
:100700004008AFE71A4899E7134B5A69E023DB002A
:1007100013408022920093420BD0CDD9C022920088
:10072000934208D0E022D200934200D064E70F4801
:1007300084E7104882E7104880E700F051F920E78D
:1007400000F056F91DE700F053F98BE700F048F987
:1007500088E7C04603001A0000800C4006000C0029
:100760000733200002001800C0D8A700406F4001E6
:10077000809FD500C0CF6A0040420F00F0B54F46C1
:100780004646C0B4C400002A09D0C400012625187A
:100790008E40AD00002B3DD0244FED192E61251861
:1007A000AD00072920D8214EAD196F688E00B846DC
:1007B0000F27B740B1464646BE43B446171C4E46C7
:1007C000B74066463E436E60002A09D1002B25D112
:1007D00001238B40191C2018154B8000C018416064
:1007E0000CBC90469946F0BD104FED19AE68B0466E
:1007F000104E8F19BF00B9460F273E1C4F46BE4012
:100800004746B743BC464E46171CB74066463E4374
:10081000AE60D9E7064FED196E60C0E72018034FB0
:10082000012380008B40C0190361D9E700600040BC
:1008300010600040F8FFFF3F064880470649074A1E
:10084000074B9B1A03DD043BC858D050FBDCFFF775
:1008500051FC0000DD090000A00B0000000000209A
:1008600074000020FEE7C046254BDA6A254B134092
:100870008022520193422ED014D9802292019342B9
:100880000DD08022D204934213D11F4A1C4B0F205B
:100890005B6818401D4BC240101C1A6070471C4B0F
:1008A0001A68F3E780221201934202D1194B1A68A9
:1008B000ECE7134BDA68E023DB0013408022920060
:1008C000934215D00AD8002B16D0802252009342B2
:1008D00010D1114ADAE780221202D7E7C022920033
:1008E00093420BD08022D200934203D10B4ACDE732
:1008F0000B4ACBE70022C9E70A4AC7E70A4AC5E71D
:1009000000800C40003C000400366E01A400002072
:10091000000000200400002040B56400406F40014A
:10092000C0D8A700804F1200809FD500214BDA6A03
:10093000214B134080225201934226D00CD98022B1
:100940009201934205D08022D20493420BD11B48DE
:1009500070471B4B1868FBE780221201934202D1BB
:10096000184B1868F4E7134BDA68E023DB001340F8
:1009700080229200934215D00AD8002B16D08022F4
:100980005200934210D11048E2E780200002DFE7D6
:10099000C022920093420BD08022D200934203D116
:1009A0000A48D5E70A48D3E70020D1E70948CFE74E
:1009B0000948CDE700800C40003C000400366E0181
:1009C000000000200400002040B56400406F40019A
:1009D000C0D8A700804F1200809FD5007047C04646
:1009E000802000027047C046FA2080007047C04651
:1009F000014B18687047C04600000020002934D021
:100A00000123002210B488422CD301242407A142E0
:100A100004D2814202D209011B01F8E7E400A1429D
:100A200004D2814202D249005B00F8E7884201D338
:100A3000401A1A434C08A04202D3001B5C08224310
:100A40008C08A04202D3001B9C082243CC08A04281
:100A500002D3001BDC082243002803D01B0901D06D
:100A60000909E3E7101C10BC7047002801D00020E2
:100A7000C04307B4024802A14018029003BDC0461B
:100A8000190000000029F0D003B5FFF7B9FF0EBC34
:100A90004243891A1847C0467047C046084B10B5F4
:100AA000041C002B02D0002100E000BF054B186899
:100AB000836A002B00D09847201C00F033F8C04612
:100AC00000000000900B000070B50E4B0E4D00248E
:100AD000ED1AAD101E1CAC4204D0A300F358984789
:100AE0000134F8E700F020F8084B094D0024ED1A16
:100AF000AD101E1CAC4204D0A300F358984701343B
:100B0000F8E770BD68000020680000206800002041
:100B10006C000020031C8218934202D0197001332C
:100B2000FAE77047FEE7C046F8B5C046F8BC08BC17
:100B30009E467047F8B5C046F8BC08BC9E46704754
:100B4000E6030000F6030000FE0300000E040000B0
:100B5000E6030000E603000012040000C6030000E4
:100B600002040000E60300000A040000F404000090
:100B7000720400009C040000BC040000DA040000C1
:100B8000F4040000F00400004C04000043000000E6
:080B9000080000200000000035
:080B98005CF5FF7F0100000085
:100BA0000080000000366E01000000000000000020
:100BB0000000000000000000000000000000000035
:100BC00000000000000000008C0B0000000000008E
:100BD0000000000000000000000000000000000015
:100BE0000000000000000000000000000000000005
:100BF00000000000000000000000000000000000F5
:100C00000000000000000000BD0000009500000092
:040C100000000000E0
:0400000300000839B8
:00000001FF
