:1000000000200020552A0000812A0000812A0000DB
:10001000812A0000812A0000812A0000812A000034
:10002000812A0000812A0000812A0000812A000024
:10003000812A0000812A0000812A0000B903000003
:10004000812A0000CD030000812A0000812A0000DF
:10005000812A0000812A000005040000812A000096
:10006000812A0000812A0000812A0000812A0000E4
:10007000812A0000812A0000812A0000812A0000D4
:10008000812A0000812A0000812A0000812A0000C4
:10009000812A000010B5064C2378002B07D1054BB0
:1000A000002B02D0044800E000BF0123237010BDE4
:1000B00090000020000000002049000008B5084B17
:1000C000002B03D00748084900E000BF0748036839
:1000D000002B03D0064B002B00D0984708BDC0462C
:1000E0000000000020490000940000208C00002047
:1000F00000000000164B002B00D1144B9D464022FF
:1001000092029A1A924600218B460F461348144ACF
:10011000121A02F00EFF0F4B002B00D098470E4B27
:10012000002B00D098470020002104000D000D484E
:10013000002802D00C4800E000BF02F0CBFE2000F7
:10014000290000F07BF902F0BBFDC046000008006A
:1001500000200020000000000000000090000020AF
:10016000200200200000000000000000074B1A7869
:10017000002A05D01A78012A05D000221A7070478B
:1001800001221A70FBE702221A70F8E7AC00002087
:10019000014B1878C0B27047AC00002008B501F0E0
:1001A00087FB002800D0FEE7002001F0DBF80028E4
:1001B00000D0FEE7034801F08DF9002800D0FEE7EB
:1001C00008BDC046B000002070B5174C86B00028AE
:1001D0000AD0201C154901F059FB00236360144B21
:1001E000201CA36001F0BCF900F0C6F8061C00F06A
:1001F000C9F8051C00F0CCF8321C2B1C00900D49EE
:1002000002A802F005FF02A802F070FF3423009359
:100210000123021C019302A9201C01F015FA01F030
:10022000F1F806B070BDC046B000002004420000E6
:10023000FFFFFF00343A000070B5124D041C82B07D
:10024000161C281C022914D0032916D00E4901F0CF
:100250001DFB201C02F04AFFF6000123021C019343
:10026000211C0096281C01F0EFF901F0CBF802B038
:1002700070BD064901F00AFBEBE7054901F006FBFA
:10028000E7E7C046B0000020A43B0000D43E0000D9
:1002900004420000F0B51B4B5F4656464D464446AF
:1002A0009846194BF0B49946184B87B09B46184BAB
:1002B000051C2026002401279A4602A851462F42F9
:1002C00000D05946221C02F0A3FE4946404601F0E8
:1002D000DDFA02A802F00AFF0134021C009602A90E
:1002E00001230197404601F0AFF96D1001F08AF843
:1002F0000836082CE1D107B03CBC90469946A2468E
:10030000AB46F0BDB0000020D43E0000543A0000DF
:10031000443A000008B50448044B4360002383605E
:1003200001F01EF908BDC046B0000020FFFFFF002D
:100330000C4B0D491A688A4202D001321A6070478C
:1003400000211960094B1A683B2AF6D11960084B45
:100350001A683B2AF1D11960064B1A68172AECD1AA
:100360001960ECE7F4010020E7030000EC01002035
:10037000F8010020F0010020014B18687047C046CA
:10038000F0010020014B18687047C046F8010020BA
:10039000014B18687047C046EC010020034B186001
:1003A000034B1960034B1A607047C046F0010020F0
:1003B000F8010020EC01002008B5034B1A68013257
:1003C0001A60FFF7B5FF08BD000200200A4B8A2221
:1003D000520010B59C588E2252009C50A30505D4A3
:1003E000630502D5054B33221A6010BDFFF7BEFE30
:1003F000034B01221A70F3E7006000400402002062
:10040000000000200A4B8A22520010B59C588E2210
:1004100052009C50A30505D4630502D5054B332239
:100420001A6010BDFFF7A2FE034B01221A70F3E71A
:10043000006000400402002000000020F0B54F469C
:100440004646C0B4514B89B01B681B0E812B07D8A0
:100450004F4A504B1A60504B504A19680A401A6074
:100460004F4800F06BFAFA21890002F0D9FB4D4B9E
:100470000138984200D9FEE74B4B4C4A5860106A4D
:10048000C0210002000A09060143116200229A609D
:1004900007221A60FFF782FE4548012100F096F915
:1004A0000124022009210222012300F03DFD0094D5
:1004B000022009210022012300F0DEFC02200A2193
:1004C0000222012300F030FD00940A2100220123C2
:1004D000022000F0D1FC374BC021022249005A50C3
:1004E0001A6040225A5000241A60211C0320042262
:1004F0000023013400F018FD072CF6D10023022060
:100500000021042200F010FD372213203B21FFF7C9
:1005100045FF294AAA231360284B294C9146984647
:10052000012704260625FFF733FE002806D1207890
:10053000FFF74AFEFFF72CFE0028F8D0FFF728FE51
:100540002378012810D0002B15D141460097019641
:10055000029504A813223B2302F05AFD04A80221AD
:100560000422FFF769FEDEE7002B09D14A46106836
:10057000FFF790FED7E7FFF7CDFE00232370E4E7F7
:10058000FFF7C8FE00232370F0E7C046FC81E00FB0
:100590000500000418600C40E4800C40FFFFFFFEE3
:1005A00050000200FFFFFF0010E000E000ED00E05F
:1005B0000082040000E100E004020020643A000030
:1005C0000000002003061B0F082B03D8134A9B00D2
:1005D000D3589F4601207047114B9842FAD1114BD6
:1005E00003201B6F184001238340181CF3E70D4BB9
:1005F0001868C003400F0130EDE70A4B9B680F20DD
:10060000184001238340181CE5E7064B5B68F6E7BA
:10061000054B9842DED1034B9B6EF0E77C3A00001D
:100620008007140000800C4070061000F8B5030627
:100630000C1C1B0F082B3AD85B4A9B00D3589F46D3
:1006400002F082FA594B5A4AD96BDA635A68594A0E
:10065000594D801800225E68171C854257410720BB
:100660008643301C38435860002900D0DA63534B6E
:10067000013C18685249A203041C0C4014431C603E
:1006800002F000FA494B4A4AD96BDA635A68494A80
:10069000494C801800225D68161C84425641072090
:1006A0008543281C30435860002900D0DA63F8BD28
:1006B000444B9842FBD141494B6DDA0768D51F2165
:1006C000002C08DB80231B0600225B08013223423A
:1006D000FBD01F21891A394B03201A6F82430A432A
:1006E0001A67E4E71F20002908DB80231B0600228D
:1006F0005B0801322342FBD01F20801A2F4B0F21B1
:100700009A688A4302439A60D1E702F01DFA274BA8
:10071000274AD96B274FDA635A68274D0022C01940
:100720005E68171C8542574107208643301C3843BA
:100730005860002900D0DA63002C33DB80231B06CD
:1007400000225B0801322342FBD01F20801A1B4B82
:100750000F215A688A4302435A6091E71A4B984224
:10076000A5D116494B6DDF0717D51F21002C08DBDB
:1007700080231B0600225B0801322342FBD01F218D
:10078000891A0E4B0F209A6E82430A439A668EE7AF
:1007900040220B6D1A42FCD191E704220B6D1A42E4
:1007A000FCD1E2E71F20D2E7A03A000000000C4095
:1007B000711B0000FFDB0BFFFF23F40000800C40E7
:1007C000FF3FFEFF8007140070061000030570B5A0
:1007D0001B0F0A2B13D8164A9B00D3589F46154A65
:1007E0001024154DC0036B6DC00EDE0708D51368CD
:1007F00001248440A3438140181C0843106070BD4D
:100800002B6D2342F3D02B6D2342F9D1EFE70B4A36
:10081000C003C00EEBE70A4AFAE780246400094AE5
:10082000DFE7094AF4E7094AF2E70124084AD8E772
:10083000C43A000060800C4000800C4008800C40EE
:1008400044800C4064800C4078800C4040800C4018
:1008500058800C400F231840072857D8334B80008E
:100860001B589F46324BE020DB6AC00218408023B1
:100870009B0298424CD08023DB02984254D02D4BEF
:10088000C0184342584101307047294BDA6A2A4B5D
:1008900013408022520193423AD03FD98022022055
:1008A00092019342F0D080220A20D2049342EBD0EE
:1008B0000520E9E71E4A0321936A0B40022B2BD047
:1008C000032B27D0012B23D0936A0B20DA03DBD430
:1008D0000120D9E7164A0C21936A0B40082B1BD044
:1008E0000C2B17D0042B13D0936A0B20DA02CBD435
:1008F000EEE70F4B30209B6A1840102808D02038B4
:10090000434258410130BFE70720BDE70020BBE765
:100910000320B9E70620B7E70220B5E780220420CC
:1009200012019342B0D0C3E70920ADE7F03A0000CE
:1009300000800C400000FFFF003C0004F8239B03F4
:100940001840E02310B51B03984200D1B6E02AD925
:10095000C0235B03984200D19CE045D880235B0311
:10096000984200D177E0A0235B03984250D17F48A2
:10097000FFF770FF7E4A936A1B079B0F022B00D183
:10098000EAE0032B00D1C1E0012B00D1E1E0936A42
:1009900000201B0D01D002F039F9754B03221B6FAB
:1009A0001340D84056E080239B02984200D16EE06D
:1009B00000D869E08023DB0298423ED0C0231B03AD
:1009C000984225D16B48FFF745FF072800D1A7E0E3
:1009D00008281DD102F0BCF8654B1968C903490FFE
:1009E000013102F01DF935E0D0235B03984211D0AC
:1009F00080239B0398420BD15F48FFF72BFF03280E
:100A000000D16DE0082800D17DE0022800D16AE025
:100A100000201FE05548FFF71DFF554A936A1B074A
:100A20009B0F022B5FD0032B00D168E0012B57D026
:100A3000936A00201B0D0DD03DE04D4C02F088F86C
:100A40002168C903490F013102F0EAF8A3680F22B7
:100A50001340D84010BD4948FFF7FCFE444A03212B
:100A6000936A0B40022B7AD0032B53D0012B79D001
:100A7000936A00201B0C01D002F0C8F83C4B0F22F7
:100A80009B6E1340D840E5E70028A3D0C0E701F0F3
:100A9000F9FFDFE73948FFF7DDFE354A0321936AA6
:100AA0000B40022B1FD0032B29D0012B18D0936AA7
:100AB00000201B0CCED002F0A9F8CBE72C4BE02194
:100AC0005B69C90080220B40920093423DD00DD853
:100AD000002B23D080225200934299D12848B9E7B5
:100AE00002F090F8B6E702F095F8B3E7C022920062
:100AF00093422CD08B4200D08AE72248AAE701F02B
:100B0000C1FF4008A6E702F023F8A3E701F0BAFF0F
:100B1000400842E701F0B6FF4008AFE71A4899E7FE
:100B2000134B5A69E023DB0013408022920093426A
:100B30000BD0CDD9C0229200934208D0E022D2003F
:100B4000934200D064E70F4884E7104882E71048DA
:100B500080E702F057F820E702F05CF81DE702F0AA
:100B600059F88BE702F04EF888E7C04603001A00F8
:100B700000800C4006000C00073320000200180023
:100B8000C0D8A700406F4001809FD500C0CF6A0049
:100B900040420F00F8B50F240440072C42D8874A82
:100BA000A300D3589F4603220224042384490B62E6
:100BB00001219140834A13680B42FCD000F052F9A6
:100BC00001F0C2FF804B814AD96BDA635A68804AD0
:100BD000804D801800225E68171C8542574107200F
:100BE0008643301C38435860002900D0DA63744BC8
:100BF0005C6200F037F901F045FF734B734AD96B23
:100C0000DA635A68724A734C801800225D68161CB9
:100C10008442564107208543281C304358600029F0
:100C200000D0DA63F8BD032940D009295DD002293C
:100C3000F8D18022624B52001A62624980229200EF
:100C40000B681342FCD000F00DF95D49402380226F
:100C50004B625202CB6A1342FCD0E3E7022911D067
:100C6000032936D00129DDD1002018E00B29D9D87D
:100C7000594B89005B589F460A29D3D8574B8900A6
:100C80005B589F4680224E4B52001A624D4980228B
:100C900092000B681342FCD000F0E4F82020484B8F
:100CA00030219A6A8A4302439A62BBE7444B40224E
:100CB00044491A6280220B681A42FCD000F0D2F834
:100CC0003F49602380224B629202CB6A1342FCD0E0
:100CD000A8E73B4B40223B491A6280220B681A422C
:100CE000FCD000F0BFF81020D9E78022344BD200AE
:100CF0001A6234498022D2030B681342FCD000F000
:100D0000B1F82F49802380224B62D202CB6A134272
:100D1000FCD087E78022802352035B020021022C53
:100D200043D0274B2E49986A01400A439A6279E7DB
:100D30002C4B042219680A431A6003210C22002359
:100D4000EDE71F4B40221F491A6280220B681A42AE
:100D5000FCD000F087F8042200230121DFE7802285
:100D6000174B52001A621749802292000B681342F7
:100D7000FCD000F077F8082200230221CFE7002200
:100D800000230021CBE7802316220524DB000DE79A
:100D900007220324402309E78023092204245B005F
:100DA00004E701220124012300E7054A0B43906A6E
:100DB0000D4908400343936234E7C046103B0000EE
:100DC00000800C402C800C4000000C40711B000087
:100DD000FFDB0BFFFF23F400303B0000603B000013
:100DE000F3FFEFFF40800C40FCFFFEFF10B505282D
:100DF00007D8194B80001B589F46184A136200F011
:100E000031F810BD0324082304200029F5D0134B2A
:100E10001862002AF3D00121114AA14013680B4245
:100E2000FCD000F01FF8ECE7012402230120ECE7DE
:100E3000052420231020E8E78023802016241B01AE
:100E4000C000E2E78023802009249B004000DCE70B
:100E5000072480234020D8E78C3B000000800C4012
:100E60002C800C40024BDA6A024B1A607047C04675
:100E700000800C40DC000020F0B54E465746454649
:100E8000E0B408AC267807293AD9234F82246400BD
:100E9000A2463D1C5544B9462C680F1C083FA44689
:100EA000BF000F24251CBD406446AC43B840071C5E
:100EB0004D46201C554438432860184D01242F68A6
:100EC0008C40E0430740BC46171C8F4062463A43C3
:100ED0002A60134A1D1C17688D4007403B1C2B439A
:100EE00013600D4A8E235B00D4500E4B8E401A685F
:100EF0001040304318601CBC90469946A246F0BD95
:100F0000054CA14680246400A2464F4657443D68E4
:100F10008F00AC46C5E7C046006000400861004055
:100F20000C61004010610040F0B54F464646C0B429
:100F3000C400002A09D0C400012625188E40AD0047
:100F4000002B3DD0244FED192E612518AD00072947
:100F500020D8214EAD196F688E00B8460F27B740D4
:100F6000B1464646BE43B446171C4E46B740664699
:100F70003E436E60002A09D1002B25D101238B400E
:100F8000191C2018154B8000C01841600CBC9046FD
:100F90009946F0BD104FED19AE68B046104E8F194E
:100FA000BF00B9460F273E1C4F46BE404746B743D9
:100FB000BC464E46171CB74066463E43AE60D9E776
:100FC000064FED196E60C0E72018034F0123800023
:100FD0008B40C0190361D9E70060004010600040F9
:100FE000F8FFFF3F07231A4080235B051A43FC23C9
:100FF0009B0319400430024B11438000C1507047DD
:1010000000C00C40002804D0012801D1024B196017
:101010007047024B1960FBE70C00084008000840CD
:10102000034B01211A688A43104318607047C04679
:1010300000000840002802D1034B18627047024BA1
:1010400001221A62FAE7C04600000840427803789D
:10105000002A01D0022213438278002A01D0042200
:101060001343014A1360704700000840044B0122FB
:10107000196891431960196891430A431A607047CF
:10108000000008402B4B2C4A70B5C360002303605E
:1010900042602A4A83604361C3648264284A041C14
:1010A0000D1C436590423FD0264A90423CD0836558
:1010B0002A8A01231343AA7B2168501E824192028F
:1010C0000B43134323602B7D2268591E8B415B0722
:1010D00013432360AB7C002B03D0EA7C1023134323
:1010E000A3652A7B80235B01686813436360AE6855
:1010F000002802D11448FFF721FC731E4000181885
:10110000311C01F08DFD114B80014038626918409F
:101110000F4B1340184360616B7B002B01D01023F1
:10112000E3602B78E36070BD2365A3650023E3656E
:10113000BEE7C046AA0E000005100000F91F00001F
:1011400000C0004000C400404081040000FF1F00B8
:101150003F00E0FF402203691A42FCD04163704720
:10116000402203691A42FCD0C1637047044B1A78CD
:101170000123002A02D0034B03600023181C704790
:101180002001002014010020F0B50F4C2578012427
:10119000002D05D00D4D86182F880424BE4201DD98
:1011A000201CF0BD6F88CE18BE42F9DC0524002A51
:1011B000F6D0002BF4D009041B0408431A436860DE
:1011C000AA600024ECE7C0462001002014010020A2
:1011D000F0B544465F4656464D46F0B4021C5C48A6
:1011E00089B004780120002C08D05A4C2468002CC7
:1011F00004D05948457C002D07D00A2009B03CBCDA
:1012000090469946A246AB46F0BD8568007CED0845
:101210000495012801D058424341581E8341DBB256
:101220004E4807935B42DBB20693C388139DC918EF
:10123000049B89B24B4380460591E418002D00D1F0
:1012400084E0474900208B46072701268246A946AD
:1012500040460589AD1A4D4500D94D464046838824
:101260004946491BD31889469BB2072D3AD807999E
:10127000ED18002933D0AB420DD2391C1940DA08E1
:10128000301CA2188840011C1078013301439BB226
:1012900011709D42F1D8059B1F251A1C5244531111
:1012A0009B002A40301C59469040C958021C5D469C
:1012B0000A430120EA50049D8244484664190028EC
:1012C00044D00022C4E7381C1840DA08311CA218A8
:1012D0008140081C11780133814311709BB29D42FB
:1012E000F1D8D8E73A1C1A40DB08E3180293002A29
:1012F0000ED01878331C9340013B0699DBB299431A
:10130000034002980B430370083A01300290AD1875
:10131000E90803910ED1002DBDD0301C0299A840E0
:10132000051C0B78013D069AEDB2AB4315401D43F9
:101330000D70B0E70A1C0298069901F0FAFD039AB5
:10134000D300ED1A029B9B180293E4E7002055E7B7
:1013500020010020E4000020E8000020140100200B
:1013600008020020F0B5474680B4214C82B02378B3
:101370000020002B03D002B004BC9046F0BD00F06A
:1013800097FA0028F7D11B4D291C00F0ADFA061E74
:10139000F1D1194A281C90464346EA686968AF694A
:1013A000B847424613680B20002BE4D0FF211022DF
:1013B000124801F0BEFDEA686968114B90B28FB225
:1013C000588058811F809E80DE801F8101232370FA
:1013D00009041304090C1B0C4B43009601930020D5
:1013E000002100220023FFF7F3FE0020C3E7C046E0
:1013F00020010020E8000020E40000200802002076
:1014000014010020F0B55F4656464D464446F0B400
:101410002D492E4F8C688946BA463D682C4FE4080A
:101420004A4685B01F210394D3680126002200207C
:101430000024BB4688469C420ED201272F421BD077
:101440000132141847466D082742F4D1B1005746BF
:101450007D5801369C42F0D3002A25D10023514605
:101460000B604B608B60CB60002005B03CBC9046AD
:101470009946A246AB46F0BD002A01D10130E0E713
:10148000039F59464743096800900192CF19484687
:10149000391C00224368076AB8470028E5D149464D
:1014A000601CCB680022CCE7039B094943430968D1
:1014B0004C46C918636800900192246A484600228D
:1014C000A0470028CAD0D0E7E8000020080200208A
:1014D000E4000020F0B5474680B4051C82B0052426
:1014E000002808D0002343601B4B836001A8FFF74E
:1014F0003DFE041E04D0201C02B004BC9046F0BD8A
:10150000019904240A882960561E4B88002EF2DDBA
:101510005F1E002FEFDD888803240028EBD1C888E8
:1015200080460028E7D108898642E4DA49898F425B
:10153000E1DA00209BB292B2011CFFF725FE434680
:10154000EB602B616E61AF61041ED4D1281C03498E
:1015500000F09CF9CFE7C046FFFFFF00D43E00003B
:1015600030B5041C83B00520002C18D0236800205F
:101570001A8800215B886568FFF706FE00280ED1F7
:1015800021682A0C2B0AEDB2009548890989D2B24C
:101590004143DBB2019100200021FFF719FE03B0A7
:1015A00030BDC04670B5041C82B00E1C151C052051
:1015B000002C07D0201C0C3000F030F8031C012058
:1015C000002B01D102B070BDA27A637A247AB6B240
:1015D0000190A9B20094301CFFF7FAFDF2E7C04673
:1015E000F0B50E1C83B0151C1F1C0524002805D067
:1015F0000C3000F013F80124002802D1201C03B0A5
:10160000F0BD3A0C3B0AFFB20194B0B2A9B2D2B21B
:10161000DBB20097FFF7DCFD041CEFE7031C10B5FD
:101620000020002B0ED01C688C420BDC9C68A14271
:1016300008DC5968914205DCDB68D00FD91793426A
:101640004841C0B210BDC046F0B55F464D46564653
:101650004446F0B489B0994612AB071C01CB1B7805
:101660000293002F0DD000290BD02823FB5C022011
:10167000002B08D109B03CBC90469946A246AB4627
:10168000F0BD0520F6E7002A00D1F2E052180E1C4A
:101690004C46002192460691C846019433780A2BA5
:1016A0004CD01A1C203AD1B25E2901D90220E1E7C0
:1016B0002820395C02297CD092B203923B8C934261
:1016C000F4DD2521F8697B5C0590002B00D1D5E085
:1016D00024200024002101223B5C07960491464609
:1016E0009146A04622203A5C012A6BD0022A6DD195
:1016F000039805994200555A002B00D1BBE0029A8D
:101700000024002A67D1129883460498834404E099
:101710000134A4B26D089C4224D249462942F7D034
:101720003119381C5A46FFF73DFF0128A2D800287E
:1017300015D10122242090443B5CE9E72520129931
:101740003A5C2623FB5C5218D318019A12939046F8
:1017500001365645A2D1069A504250418AE72421CB
:101760007B5CD5E7211C2722BA5C9A188A4206DDE9
:101770000298002859D10134A4B2A242FBDC2321F3
:101780000398795C411889B20391049925200131AD
:1017900089B20491395C04988142A3D84446231C41
:1017A000591E8B410699B046C918079E0691904470
:1017B000CEE73A2B59D0202B33D0303B9BB203934A
:1017C0001A1C7BE70599039A8D5C95E703980599A8
:1017D00082008D5A90E7129A9346049A93440EE041
:1017E0007B68FFF7FDFE012800D943E7002813D0EE
:1017F00024203B5C0134A4B26D089C42B2D24B461B
:101800003119381C5A462B42EAD0FFF7CBFE01288B
:1018100000D92FE70028EBD1012124228844BB5CAA
:10182000E8E70B230B22039348E7129A27259346F8
:10183000049A934408E024203B5C7A5D0134A4B20E
:101840009A18211E91429ADA7118381C5A467B6800
:10185000FFF7C6FE012800D90CE70028EBD12422AF
:101860000121BB5C88447A5DE8E70A210A220391E2
:1018700024E70120FEE60021002474E72423FA5C1B
:101880002723FB5CD218904462E7C04608B50028C5
:1018900007D01C301022002905D001F041FB0020A8
:1018A00008BD0520FCE701F044FB0520F8E7C04631
:1018B0000B4B10B51A78002A10D10A4C01221A706D
:1018C0002368002B0AD0043404E00434231F1B686F
:1018D000002B03D098470028F7D010BD0020FCE76C
:1018E000540100200400002008B50A4B1B78002B8F
:1018F00001D1094808BD002801DD0848FAE72C237A
:101900005843074B2C221B18081C191C01F008FB1C
:101910000020EFE754010020050011800200118033
:101920002801002008B50C4B011C1B78002B01D1AD
:101930000A4808BD0A4A1368002B01DD0948F8E788
:10194000581C10602C20434307482C22C01801F07B
:10195000E7FA0020EDE7C0465401002005001180A1
:1019600024010020010011802801002010B58029E9
:1019700001D0094810BD0949094C086812018218B4
:101980008034A24203D900221A600648F2E71860A8
:101990000A600020EEE7C046020011800C00002023
:1019A0005801002001001180004870470400118098
:1019B00008B500F029F900F0E5F8002008BDC046A0
:1019C00070B50D1C1E1C0024002B08D0281C002103
:1019D0001022013401F0ADFA1035B442F6D10020E6
:1019E00070BDC046F0B54F464646C0B40D1C83B02E
:1019F0000A2100200B9E00F02BF9062000F00AF9C6
:101A00000A9B684601339BB21A029946012313438D
:101A100002216A46138000F0D5F80123FF22771EC9
:101A2000002499449046002E15D0281C102100F067
:101A3000C9F81035A7421BD04A4613191B0242466B
:101A400013439BB26A46684602210134138000F0BA
:101A5000B9F8B442E9D1022000F0DCF80A210020F4
:101A600000F006F9002003B00CBC90469946F0BD8A
:101A7000004BE7E7FFFF000008B50020002904D174
:101A8000082100F0F5F8002008BD082100F0E0F87A
:101A9000F9E7C04610B58CB000F0B6F800F072F867
:101AA00000F0BEF80C2100220023042000F0C2F850
:101AB0000A2100220023042000F0BCF80A210022A1
:101AC0000023002000F0B6F80821002200230020A7
:101AD00000F0B0F8002100220023002000F0AAF856
:101AE000032100220023052000F0A4F80520032193
:101AF000402200F0CDF8041E02D0201C0CB010BD16
:101B0000194A01A801920122027480224260C26037
:101B10008260164A44744261154A8261154AC26164
:101B2000154A0262154A4262154A8262FFF7FAFEBE
:101B3000041EE2D10821002000F08AF80A210020CA
:101B400000F086F8062000F065F8684604230221BC
:101B50000230038000F036F8022000F05BF80A2122
:101B6000002000F085F8C8E7F4430000791A00006F
:101B70006D190000A9190000E5190000C119000045
:101B8000B119000030B50B4A87B06B4623CA23C396
:101B900023CA23C3084D09480121FEF717FE084B4D
:101BA000281C69460293FFF76DFA0A2300206B6533
:101BB00007B030BD0C44000000C0004000320400FB
:101BC000E067350070B5051C0C1C0126002C0BD0FD
:101BD000012C01D035420ED029780A48013CFFF78C
:101BE000B9FA0135002CF3D1064920220B691A42BB
:101BF000FCD0002070BD29880248FFF7B1FA023CF2
:101C00000235E3E700C0004008B500F013FE0020F5
:101C100008BDC04608B500F009FF002008BDC04659
:101C200008B503480121FEF7D1FD002008BDC046DC
:101C30000082040008B5002A01D0044808BDC0B2E3
:101C40000422FFF771F90020F8E7C0460100138075
:101C5000FF23184001238B40191CC3001818034BA5
:101C60008000C018016100207047C046006000403D
:101C7000FF23184001238B40191CC3001818034B85
:101C80008000C018416000207047C04610600040CE
:101C900070B5141C82B0052802D0294802B070BD6E
:101CA0000329FAD127480121FEF790FDA021002049
:101CB00089030122FFF796F9234B244A99680126EC
:101CC0000A40802149000A439A609A6805203243FD
:101CD0009A60032100230422FFF726F91C4901AD75
:101CE00003221831281C01F01BF91A480121FEF7C4
:101CF0006DFD19480B21FEF74DFF18480221FEF734
:101D000095FC01211548FEF761FD0023281C2B706E
:101D10006B70AE70FFF79AF91048FEF70FFE211CAA
:101D200000F07EFF411E0902090A0020FFF76AF950
:101D3000FFF79CF90120FFF773F90020AEE7C046DA
:101D4000010013800062040000C00C40FFF8FFFF98
:101D50000C4400000023020002001800700610006E
:101D600000207047FEE7C0460020704770B50E1C8B
:101D7000151C0024002A04D10DE030550134A54281
:101D800007D000F043F8431CF7D1002C03D0201CEF
:101D900070BD281CFCE701204042F9E7104A38B525
:101DA0001368002B07D01818EFF30881884205D874
:101DB0001060181C38BD0B4B1360F4E70A4B1B680E
:101DC000986800F093FF094C251C193520780134E0
:101DD00000F020F8AC42F9D1012000F071FFC046BC
:101DE000D8010020200200208000002028440000AC
:101DF00070B5161C0C1C8D18002A05DD20780134E6
:101E000000F008F8AC42F9D1301C70BD012040420E
:101E10007047C046064B10B5041C1868002804D053
:101E2000211C00F03BFB201C10BD01204042FBE7C1
:101E3000DC010020F0B556464D4644465F46F0B4FE
:101E400087B005918900061CC56B8846006BA749C1
:101E500082460027894601245146002900D141E1EC
:101E6000337D301C9C4661460023BC460022039112
:101E7000071C6FE0DE10AE19072003961840367875
:101E8000211C814003988E430670049E591C7008E3
:101E90008B46044200D086E0C9108A465E46072180
:101EA0000E40AA44211CB1405646367840088E4365
:101EB00051460E70C0B29E1CB346044200D085E06D
:101EC000F610B246594607263140AA44261C8E40D9
:101ED000514609784008B14356463170D91C8B46AB
:101EE000044200D084E0C9108A465E4607210E40B5
:101EF000AA44211CB1405646367840088E435146CC
:101F00000E701E1DB346044200D083E0F610B246A8
:101F1000594607263140AA44261C8E40514609786E
:101F2000B143564631700226591D064200D082E068
:101F3000C810072628183140261C8E400178B1436E
:101F400001703E7D386B039682460132063352455E
:101F500000D382E07E6C40463158CB46885CE34437
:101F60005E46305C04900398002805D00128ECD12F
:101F70000499C843C0B20490049E344200D179E76A
:101F8000DE10AE1903960398072119400078261C2D
:101F90008E4030430399049E0870591C70088B468C
:101FA000044200D178E7CE10B24607263140AA4459
:101FB000261C8E405146097840080E4351460E704B
:101FC000C0B29E1CB346044200D179E7F1108A46A4
:101FD00007210E40AA44211CB140564636784008DD
:101FE000314356463170D91C8B46044200D17AE702
:101FF000CE10B24607263140AA44261C8E405146D8
:10200000097840080E4351460E701E1DB346044227
:1020100000D17BE7F1108A4607210E40AA44211C1B
:10202000B140564636783143564631700226591D26
:10203000064200D17CE7C810072628183140261C2C
:102040008E40017801320E430670386B3E7D824629
:1020500003960633524500D27CE703993B1C1E1CB5
:1020600067468C466346012B1DD0F0686437C30871
:10207000ED18C8239B009F4200D0EDE6059C524618
:102080005300E200F16B0092082201925344301D8C
:102090005B00746A0022A04707B03CBC904699469A
:1020A000A246AB46F0BD53009A18520007231340D6
:1020B0000DD06046D1109840491901388246087801
:1020C0008B4651460140083258460170D21AB16819
:1020D000D0108A1AD2082818FF2100F02AFF326B8C
:1020E0009246C2E7327D94460022BBE75C44000082
:1020F000F0B5474680B45423C35C82B0041C012B66
:102100001CD0002B07D00020022B00D1254802B0A4
:1021100004BC9046F0BD437D002BF7D1436B002BF0
:1021200008D00025291C201CFFF784FE636B0135B5
:10213000AB42F7D82269DB00934207D3637D002BC3
:10214000E4D1216D201CFFF775FEE0E7237D002B15
:1021500020D0012BDAD1A668E06BF208FF2100F055
:10216000E8FE626B2369D5009D42E7D20126271D58
:10217000B04603E022690135AA42DFD94246019206
:102180000095381CE16B0022A368666AB0470028FE
:10219000F0D0BCE7A368E06BDA08002100F0C9FECC
:1021A000DFE7C04604001280F0B5454657464E466C
:1021B000E0B4041C0D1E0A2D3AD00D2931D0082997
:1021C00022D01B2900D107E1B04F3B781B2B5DD0FB
:1021D000AF4B68221B685B195B789343984600D02D
:1021E000A0E0E16C226B914200D3C8E0206D636BEC
:1021F000834200D89AE0656C80002B5842465A54BE
:10220000E36C0133E3640EE0037D012BDCD9492349
:10221000C25CFF2A00D1C8E0FF22C2544A23C25444
:1022200001E00023C3641CBC90469946A246F0BD61
:10223000036D0022C264426B013303659342F2D303
:102240003823C55C002D00D1A0E0012A0DD0002567
:10225000636CAA0098589B185968226B00F060FEC6
:10226000626B0135531E9D42F2D38A49636C52184A
:102270009200D0580021226B00F05BFE626B0023BD
:10228000013A22655422E364A354CCE77B1C191C59
:1022900001335A1E1678002EF9D10D70381C00F04B
:1022A00025FF7D4980464246381C894600F025FFBF
:1022B000002800D198E004229246CA44381C5146B6
:1022C000424600F01AFF002800D19CE008239A46FD
:1022D000CA44381C5146424600F00FFF002800D186
:1022E000A5E00C218A46CA44381C5146424600F0FB
:1022F00004FF002800D1B8E010229246CA44381CDE
:102300005146424600F0F9FE002800D19DE014231A
:102310009944381C4946424600F0EFFE002878D028
:102320003E6055E7203DEDB2A8465AE73825665D88
:10233000002E3FD0012B0FD0002600E0226B616CF5
:10234000B700C859C919496800F0EAFD636B013646
:102350005A1E9642F2D3226B4E495B18616C9B0069
:102360005858002100F0E5FD606B0023013854222D
:102370002065E364656CA354800000213DE7206D77
:1023800000230130E3642065002130E7416C00291F
:1023900000D148E7036B00215A43006C00F0C9FDEF
:1023A0005423E5642565E5543DE70022C2544A23E1
:1023B000C25438E7656C8000002D00D11DE75A43F8
:1023C0000021206C00F0B5FD5423E6642665656CA1
:1023D000E6540021002010E72C4B00221A601970EF
:1023E00003225423C2541EE7484603225423E254D6
:1023F00000F07CFE804508D04346032B00D012E756
:1024000000233B600FE75046EFE700232365E364BA
:10241000F6E703225423E254484600F067FE804565
:10242000EAD1E36C002BEBD0013BE364E8E7032245
:102430005423E254504600F059FE8045DCD1236D10
:10244000002BDDD0013B2365DAE703225423E2545D
:10245000504600F04BFE8045CED1226BE36C013A32
:102460009342CDD20133E364CAE703225423E254FA
:10247000504600F03BFE8045BED1626B236D013AB1
:102480009342BDD201332365BAE7C046E001002084
:102490001C000020FFFFFF3F44440000F8B54D46FC
:1024A00044465F465646F0B45523C35C041C0D1CDD
:1024B000002B06D1C9483CBC90469946A246AB4683
:1024C000F8BD437D5A1E934101335422835438236F
:1024D000C35C002B63D0C36C002B04D1416B006D37
:1024E0000139884261D00C2D00D10AE13922A25C69
:1024F000002A5CD00A2D00D126E10D2D00D1A5E0E7
:10250000082D00D193E0A8461B2D00D135E1B44F32
:102510003A781B2A00D1AAE0B24A126855196F789E
:102520006822974300D096E0226B9A4200D896E04A
:10253000206D616B814223D83825665D002E00D165
:102540000AE101290DD00025636CAE0098599B1952
:10255000596800F0E5FC616B01354B1E226B9D4212
:10256000F2D3A14BC918636C8900C858002100F050
:10257000E0FC606B002301385422E3642065A3541F
:10258000656C80002A58D754E36C0133E36454230C
:10259000E35C032B49D0201CFFF7AAFD8BE7C36C3B
:1025A000002BA0D1016D00299DD1A3549BE70A2DDA
:1025B000A3D1236D0022E264626B01332365934251
:1025C000E5D33823E55C002D00D1AEE0012A0DD023
:1025D0000025636CAA0098589B185968226B00F07C
:1025E0009FFC626B0135531E9D42F2D37E48616CA5
:1025F000121892005058226B002100F09AFC626B76
:102600000023013A22655422E364A354C3E75046F1
:1026100003225423E25400F069FD814500D1B7E064
:102620004846032801D100233B60002043E7227D78
:10263000012A00D88DE04923E25CFF2A15D0FF2251
:10264000E2544A23E2545423E35CA2E70023E36408
:102650005423E35C9DE74746203FFFB264E7206DCB
:1026600000230130E364206563E70022E8E77B1C78
:10267000191C01335A1E1678002EF9D10D70381C22
:1026800000F034FD594981464A46381C8A4600F01C
:1026900034FD0028BBD004229346D344381C59464D
:1026A0004A4600F02AFD002870D008239B46D344F8
:1026B000381C59464A4600F020FD002800D1A9E008
:1026C0000C208346D344381C59464A4600F015FD79
:1026D000002800D18CE010218B46D344381C594689
:1026E0004A4600F00AFD002866D014229244381CA5
:1026F00051464A4600F001FD00284DD03E60E36C93
:102700000AE7626C002A09D0236B626B206C5A4383
:10271000002100F00EFC0023E36423650022542313
:10272000E254201CFFF7E4FCC5E6636C002B00D1EB
:102730002DE7206B00214243206C00F0FAFB54236C
:10274000E5642565E55426E7201C0D21FFF72CFDE7
:102750002FE708218846DAE6656C002D00D110E7E6
:102760004A43206C002100F0E4FB5423E664266514
:10277000656CE6540020002304E7194B00221A6020
:102780001D7003225423E254002094E658463FE78C
:1027900000232365E36446E703225423E2545046B2
:1027A00000F0A4FC814500D03AE7E36C002B00D197
:1027B00039E7013BE36436E703225423E2545846E9
:1027C00000F094FC814500D02AE7226BE36C013ACB
:1027D000934200D327E70133E36424E70600128025
:1027E000E00100201C000020FFFFFF3F44440000E8
:1027F00003225423E254584600F078FC814500D06F
:102800000EE7626B236D013A934200D30BE701336D
:10281000236508E703225423E254584600F066FC7F
:10282000814500D0FCE6236D002B00D1FBE6013B87
:102830002365F8E6F0B55F4656464D464446F0B48B
:1028400089B0714906A8032200F06AFB6F4B002192
:102850001B6C8B465A0700D4CFE06D48FDF7FAFF9A
:102860006A4C4022E36A03211A400190684890466E
:10287000FEF790F96748FDF7A5FE802182464900E2
:102880006448FDF7D3FEA36D0027D90700D4AEE05E
:1028900072B6614C23685A1C01D0013323605F4B30
:1028A0001A68D10700D47FE01A6899680292DA6842
:1028B0000391D9690492002205911A60DA61072216
:1028C0009A618021564AC02349015B00D150012200
:1028D000914600236A4606A89376FEF7B7FB514857
:1028E00080235B014D4A036003685B0003600BD0EB
:1028F000516853689942FCD0484B59680368013BC2
:10290000FDD853689942EFD00368444A5B080360DE
:1029100006680825760814D00368334303605168BD
:1029200053689942FCD03D4B59680368013BFDD880
:102930005368994202D00368B3430360013D002D00
:10294000E8D12368002B03D0013B2360002B4CD03F
:102950004B46002B31D051462E48FDF767FE012033
:10296000FEF768FB03992D4B049A9960DA6002998F
:10297000059A19600020DA61FEF75CFB002F21D177
:10298000019B032B25D14146002929D05A46002A14
:1029900003D025480021FDF719FF09B03CBC904643
:1029A0009946A246AB46F0BD0023002100220593C4
:1029B00004910392029399468BE70020FEF730FBC7
:1029C000002FDDD013480021FDF700FF019B032BF2
:1029D000D9D0191C0E48FEF7DDF841460029D5D1A3
:1029E00001200022FEF702FAD0E762B6B0E70948FC
:1029F0000121FDF7EBFE01274AE70B480121FDF716
:102A0000E5FE01239B4628E77C47000000800C4040
:102A10000200180070061000E000002000000840CE
:102A200000E100E01000002000230200031C084920
:102A3000002B0CD0013B88221202003253430A685B
:102A4000D80AD20A5043800901D00138FDD8704716
:102A500010000020064880470649074A074B9B1A8A
:102A600003DD043BC858D050FBDCFDF743FB0000FE
:102A7000012C00002C4900000000002090000020E4
:102A8000FEE7C046254BDA6A254B134080225201EF
:102A900093422ED014D98022920193420DD08022ED
:102AA000D204934213D11F4A1C4B0F205B6818407D
:102AB0001D4BC240101C1A6070471C4B1A68F3E78C
:102AC00080221201934202D1194B1A68ECE7134B92
:102AD000DA68E023DB00134080229200934215D095
:102AE0000AD8002B16D080225200934210D1114AEE
:102AF000DAE780221202D7E7C022920093420BD07D
:102B00008022D200934203D10B4ACDE70B4ACBE798
:102B10000022C9E70A4AC7E70A4AC5E700800C4015
:102B2000003C000400366E01180200201400002052
:102B30001800002040B56400406F4001C0D8A700D5
:102B4000804F1200809FD5000048704700366E010C
:102B5000214BDA6A214B134080225201934226D046
:102B60000CD980229201934205D08022D204934254
:102B70000BD11B4870471B4B1868FBE780221201E2
:102B8000934202D1184B1868F4E7134BDA68E0233C
:102B9000DB00134080229200934215D00AD8002B0C
:102BA00016D080225200934210D11048E2E78020D4
:102BB0000002DFE7C022920093420BD08022D200B5
:102BC000934203D10A48D5E70A48D3E70020D1E76A
:102BD0000948CFE70948CDE700800C40003C0004DD
:102BE00000366E01140000201800002040B564007B
:102BF000406F4001C0D8A700804F1200809FD500D1
:102C00007047C046802000027047C046FA2080000E
:102C10007047C046014B18687047C046140000203A
:102C2000002934D00123002210B488422CD301247F
:102C30002407A14204D2814202D209011B01F8E714
:102C4000E400A14204D2814202D249005B00F8E7CD
:102C5000884201D3401A1A434C08A04202D3001BF9
:102C60005C0822438C08A04202D3001B9C0822432C
:102C7000CC08A04202D3001BDC082243002803D06A
:102C80001B0901D00909E3E7101C10BC704700289C
:102C900001D00020C04307B4024802A140180290AE
:102CA00003BDC046190000000029F0D003B5FFF7AE
:102CB000B9FF0EBC4243891A1847C0467047C04648
:102CC000084B10B5041C002B02D0002100E000BF0F
:102CD000054B1868836A002B00D09847201CFFF72B
:102CE00041F8C04600000000E8480000134B70B5F2
:102CF0001D68041C1E1C002D05D0AA69002A02D1E3
:102D0000281C00F077F80E4B9C4201D16C6808E05B
:102D10000C4B9C4201D1AC6803E00B4B9C4200D1B0
:102D2000EC680C22A35E002B02D00E23E05E04E0D0
:102D30003368092201201A60404270BD80000020E3
:102D400084480000A4480000C4480000F8B5041CF2
:102D5000071C4834002C12D0A5686668013E0CD4CC
:102D6000AB89012B07D90E22AB5E013303D0381C8F
:102D7000291C00F063FD6835F0E72468EAE7F8BD38
:102D8000002310B5041C03604360836081814366A7
:102D9000C281036143618361191C08225C3000F029
:102DA000C8F8054B24626362044BA362044BE362E0
:102DB000044B236310BDC046553000007D30000039
:102DC000B5300000E130000070B54B1E68255D4352
:102DD0000E1C291C743100F0B5F8041E08D0002127
:102DE000016046602A1C0C30A060683200F0A1F837
:102DF000201C70BD836913B5041C002B27D183648C
:102E0000C3640365124B134A1B688262984201D166
:102E100001238361201C00F01FF86060201C00F07B
:102E20001BF8A060201C00F017F80421E0600022CD
:102E30006068FFF7A5FFA06809210122FFF7A0FF46
:102E4000E06812210222FFF79BFF0123A36113BD5B
:102E5000E84800004D2D0000F8B51D4B071C1E680A
:102E6000B269002A02D1301CFFF7C4FF4836B468AB
:102E70007368013B05D40C22A55E002D10D0683488
:102E8000F7E73368002B06D1381C0421FFF79CFFBD
:102E90003060002801D03668E9E70C233B6016E07B
:102EA00001235B42E381201C0123A3816566256029
:102EB000A560656025616561A5615C30291C0822FB
:102EC00000F037F86563A563A564E564201CF8BDD0
:102ED000E848000070B50E4B0E4D0024ED1AAD1001
:102EE0001E1CAC4204D0A300F35898470134F8E705
:102EF00000F094FD084B094D0024ED1AAD101E1C86
:102F0000AC4204D0A300F35898470134F8E770BDF1
:102F1000840000208400002084000020880000201D
:102F200010B50023934203D0CC5CC4540133F9E7BD
:102F300010BD031C8218934202D019700133FAE7C6
:102F40007047000070B50323CD1C9D430835061C57
:102F50000C2D01D20C2501E0002D3FDB8D423DD32D
:102F6000204B1C681A1C211C002913D00868431B25
:102F70000DD40B2B02D90B60CC181EE08C4202D171
:102F8000636813601AE0486860600C1C16E00C1C53
:102F90004968E9E7144C2068002803D1301C00F090
:102FA00025F82060301C291C00F020F8431C15D0A7
:102FB000C41C03239C4384420AD12560201C0B308F
:102FC0000722231D9043C31A0BD05A42E25008E057
:102FD000211A301C00F00AF80130EED10C233360C6
:102FE000002070BDE8010020E401002038B5074C46
:102FF0000023051C081C2360FEF7D0FE431C03D1F0
:103000002368002B00D02B6038BDC0461C02002076
:103010000EB400B59CB01DAB04CB822202A9920075
:103020008A810A4A02908A604A6101225242CA8118
:10303000074A086110681D9A019300F0D5F8029ABA
:10304000002313701CB008BC03B01847FFFFFF7FBC
:103050008000002038B50C1C0E25495F00F0C0FC34
:10306000002803DB626D1318636503E0A289024B3D
:103070001340A38138BDC046FFEFFFFFF8B51E1C0B
:103080008B89051C0C1C171CDA0505D50E23C95E9F
:103090000022022300F0FEFBA289054B281C1340EE
:1030A000A3810E22A15E331C3A1C00F017FBF8BD71
:1030B000FFEFFFFF38B50C1C0E25495F00F0EAFB5F
:1030C000A389421C03D1054A1340A38104E0802256
:1030D00052011343A381606538BDC046FFEFFFFF77
:1030E00008B50E23C95E00F00DFB08BD0023C25CCD
:1030F0000133002AFBD1581E7047031C002010B575
:1031000082420FD01C780878A04201D1012A03D155
:1031100018780B78C01A05E0013A0028F8D001337E
:103120000131EFE710BD0000F0B58D6885B0071CD8
:103130000C1C03920193AB4245D390228B89D200A1
:1031400013423DD062690326564309692068F20F95
:10315000401A96190290021C01980132121876103A
:10316000964200D2161C381C5A050FD5311CFFF7A9
:10317000E9FE051E13D0029A2169FFF7D1FEA2894C
:10318000184B134080221343A38111E0321C00F03E
:1031900001FC051E0CD1381C216900F0B3FB0C2387
:1031A0003B60A389402213430120A381404217E0E2
:1031B000029B2561ED1825606661019DF61AA660E7
:1031C0000198A84200D2019D2A1C2068039900F0B2
:1031D00080FBA2680020531BA36023685D19256053
:1031E00005B0F0BD7FFBFFFFF0B59FB005938B8965
:1031F00003900E1C171C19060FD53269002A0CD13A
:103200004021FFF79FFE30603061002803D1039911
:103210000C230B60C9E04023736106AD00236B6192
:1032200020236B763023AB763C1C2378002B03D114
:10323000E21B029211D003E0252BF9D00134F4E710
:103240000398311C3A1C029BFFF76EFF013000D13E
:10325000A6E06969029A8B186B612378002B00D174
:103260009EE0012252426A606A4600235B320134CA
:103270002B60EB60AB601370AB654E4F2178381C50
:10328000052200F01BFB002807D0C71B2B6801207C
:10329000B840184328600134EFE72B68D90603D5FE
:1032A0006A4620215B3211701A0703D56A462B212A
:1032B0005B32117022782A2A01D0099B0EE0059A10
:1032C000111D12680591002A01DB099204E05242A7
:1032D000EA60022213432B60013409E02278303A7D
:1032E000092A04D80A214B4301349B18F6E70993B5
:1032F00023782E2B18D163782A2B09D1059B023411
:103300001A1D1B680592002B0DDA01235B420AE0AF
:10331000013400232278303A092A04D80A214B4389
:1033200001349B18F6E70793234F2178381C0322BA
:1033300000F0C4FA002806D0C71B2B684020B84014
:1033400018432860013421781C480622671C29761E
:1033500000F0B4FA002812D0194B002B06D1059BBF
:103360000722073393430833059314E005AB00931A
:103370000398291C321C134B00E000BF07E005AB8B
:1033800000930398291C321C0E4B00F091F8049016
:103390000499013104D06A69049953186B6143E7B9
:1033A000B3895A0601D40B9801E0012040421FB0B6
:1033B000F0BDC046EC480000F2480000F6480000AE
:1033C0000000000029310000F7B5151C01930A69BF
:1033D0008B68061C0C1C934200DA131C221C2B6009
:1033E00043321278002A01D001332B602068800616
:1033F00002D52B6802332B60216806270F401FD0AF
:10340000231C43331B785A1E9341226892061FD512
:10341000E11840313020C870211C5A1C4531097810
:10342000A21840320233D17012E0221C301C0199E4
:1034300019320123089FB847013011D0009F01378E
:103440000097E0682968009F431A9F42EDDBD7E7A9
:10345000221C301C01994332089FB847013002D129
:103460000120404223E0206806212B68E2680140E9
:103470000025042903D1D51AEB43DB171D40A268B0
:1034800023699A4201DDD31AED1800270097009FA7
:10349000AF420BDA221C301C01991A320123089F1B
:1034A000B8470130DCD0009F0137EFE70020FEBDB8
:1034B000F0B58BB007930D1C0B7E4335069205903B
:1034C0000C1C109A04956E2B00D1A7E011D8632B29
:1034D00022D009D8002B00D1B0E0582B00D0C0E09A
:1034E00045310B707B4D4EE0642B1CD0692B1AD0FC
:1034F000B7E0732B00D1A5E009D86F2B29D0702B32
:1035000000D0AEE00E68202333430B6036E0752B0D
:103510001FD0782B32D0A4E013680D1C191D423542
:1035200011601B689FE0216813680E0603D5191D02
:1035300011601E6805E04806F9D5191D11600021CB
:103540005E5E644B002E3BDA049D2D2276422A708B
:1035500036E0216813680E0603D5191D11601E6838
:1035600004E04806F9D5191D1E881160594B227ECA
:10357000039308276F2A1ED00A271CE0231C7821FA
:103580004533554D197011682368081D0395106067
:103590001E0601D50E6802E05806FBD50E88D90735
:1035A00002D52022134323601027002E03D1226866
:1035B00020239A432260231C002243331A7001E027
:1035C00003930A276368A360002B03DB25680422AA
:1035D00095432560002E02D1049D002B0ED0049D42
:1035E000301C391CFFF760FB0398013D435C301C25
:1035F0002B70391CFFF714FB061EF1D1082F09D1DF
:103600002168C90706D5626823699A4202DC013D38
:1036100030232B70049E731B23612AE00868136813
:103620004969050604D5181D10601B68196005E07E
:103630004606F8D5181D10601B6819800023236109
:10364000049D16E01368191D11601D68281CFFF702
:103650004DFD63682061984200D923612069606054
:1036600004E0251C42352B7001232361049E0023B6
:103670003370079E05980096211C09AA069BFFF748
:10368000A3FE013002D10120404221E02A1C05980E
:1036900006992369079DA8470130F4D02668B6072C
:1036A00005D4099BE068984212DA181C10E0002546
:1036B000E0680999431A9D42F3DA221C059806999D
:1036C00019320123079EB0470130DCD00135EFE706
:1036D0000BB0F0BDFD4800000E49000038B5084CA5
:1036E000051C00202060081C111C1A1CFEF780FB22
:1036F000431C03D12368002B00D02B6038BDC0468B
:103700001C02002038B5074C0023051C081C236050
:10371000FEF726FB431C03D12368002B00D02B604F
:1037200038BDC0461C020020F7B58B89051C0C1C57
:1037300019075ED46268002A02DC276C002F1ADDAC
:10374000E76A002F17D000222E682A6080225201DB
:103750001A4001D0626D15E0281C216A0123B84788
:10376000021C411C0ED12B68002B0BD01D2B01D04D
:10377000162B02D12E6000205EE0A38940210B436E
:10378000A38159E0A3895F0706D56168636B521A6C
:10379000002B01D0276CD21B281C216A0023E76A6A
:1037A000B847A289411C06D12B68002B03D01D2BE2
:1037B00001D0162B19D10023636023692360D7043D
:1037C00005D5411C02D12A68002A00D16065616BD1
:1037D0002E600029CFD0231C4433994202D0281CEC
:1037E00000F090F80020606326E040231A43A28195
:1037F00022E02669002EBED027680022BF1B019759
:103800002660990700D16269A260019F002FB2DD96
:10381000281C216A321C019BA76AB847002806DCD5
:10382000A389402213430120A381404204E0019F69
:1038300036183F1A0197E8E7FEBD00000A6938B55F
:10384000051C0C1C002A01D100201CE0002804D01B
:103850008369002B01D1FFF7CDFA0B4B9C4201D1BC
:103860006C6808E0094B9C4201D1AC6803E0084B4E
:103870009C4200D1EC680C22A35E002BE4D0281CF3
:10388000211CFFF751FF38BD84480000A448000008
:10389000C448000038B5084C051C00202060081CF6
:1038A000111C1A1CFEF760FA431C03D12368002B7D
:1038B00000D02B6038BDC0461C020020C9B282185F
:1038C000904204D003788B4202D00130F8E7002008
:1038D000704770B5814201D300230CE08C18A042E0
:1038E000FAD28518131C013B0BD351426618F65CC3
:1038F0006918CE54F7E7934203D0CC5CC45401332B
:10390000F9E770BD30B5002940D004390B68002BB1
:1039100000DAC9181E4A1368141C002B02D14B6030
:10392000116033E099420FD208680A189A4205D113
:1039300013685268C01808604A6000E04B6021605C
:1039400024E08A4203D8131C5A68002AF9D11D6862
:103950005C198C420BD1096869185818196090429B
:1039600014D114685268091919605A600EE08C422B
:1039700002D90C23036009E008680C18944203D1B3
:1039800014685268001908604A60596030BDC0462A
:10399000E8010020F8B5061C0C1C151C002904D1F8
:1039A000111CFFF7CFFA041C18E0002A03D1FFF71F
:1039B000A9FF2C1C12E000F027F8A8420ED2301C00
:1039C000291CFFF7BFFA071E07D0211C2A1CFFF78E
:1039D000A7FA301C211CFFF795FF3C1C201CF8BDEA
:1039E00038B5084C051C00202060081C111C1A1C4E
:1039F000FEF7BCF9431C03D12368002B00D02B60D9
:103A000038BDC0461C02002004390B68181F002B6B
:103A100002DAC8581B18181F70470000F8B5C046D6
:103A2000F8BC08BC9E467047F8B5C046F8BC08BC58
:103A30009E467047253032643A253032643A25304C
:103A40003264000052656C6169732025643A207508
:103A50006974000052656C6169732025643A2061C5
:103A6000616E0000253032643A25303264203E20F9
:103A700025642C25642C256400000000D40500007A
:103A8000EE050000D4050000D4050000FA05000092
:103A90000A060000D405000010060000D80500004A
:103AA000AE06000040060000AE060000AE060000B4
:103AB000E40600000A070000AE0600005C070000F4
:103AC000B0060000FE0700000E0800001608000007
:103AD00026080000FE070000FE0700002A0800007C
:103AE000DE0700001A080000FE07000022080000A0
:103AF0000C0900008A080000B4080000D408000087
:103B0000F20800000C090000080900006408000029
:103B1000240C0000780C00006C0C00006C0C000001
:103B20005C0C0000240C0000240C0000260C00009B
:103B3000240C00007E0D00005E0D0000420D000010
:103B4000240C0000240C0000300D0000240C0000A8
:103B5000240C0000240C0000240C0000140D0000B4
:103B6000240C0000240C0000980D0000900D0000B3
:103B7000A60B0000A20D0000240C0000240C000085
:103B8000240C0000240C0000860D0000440E0000F0
:103B9000500E0000040E0000280E0000300E000041
:103BA000380E0000B43B0000200301640608020048
:103BB0000100000000040A0A0403060608020000CF
:103BC000000000000E040E1F081F0C1F0E0E000048
:103BD0001000010E0E0E0F0E071F1F0E110E1C11EE
:103BE0000111110E0F0E0F1E1F11111111111F0EB9
:103BF000000E04000200010010000C000104080186
:103C00000600000000000000020000000000000CA0
:103C1000040600000000000000040A0A1E13090444
:103C20000404040400000000110611080C01021035
:103C300011110606080002111011111109010111DC
:103C400011040809011B11111111110104111111A5
:103C50001111100200080A00040001001000121ED9
:103C6000010000010400000000000000020000004C
:103C700000000002040802000000000000040A1F07
:103C800001080502020815040000001019041004C0
:103C90000A0F010811110606041F0410101111016A
:103CA0001101010111040805011513111111110170
:103CB000041111110A11080201081100080E0D0E5D
:103CC000160E02110D060C09040B0D0E0F160D0E2B
:103CD0000711111111111F02040815000000000046
:103CE0000004000A0E04020002080E1F001F000854
:103CF0001504080809100F040E1E00000200080831
:103D000016110F01110F0F1D1F04080301151511C6
:103D10000F110F0E04111115040A0402020800000D
:103D200000101301191107111304080504151311CC
:103D300011191301021111110A11080104100800D0
:103D4000000000000000001F10021500020815040A
:103D500006000004130404101F10110211100606BF
:103D6000041F0404151F110111010111110408059C
:103D70000111191101150510041111150A0402028F
:103D800004080000001E1101111F021E1104080387
:103D9000041511110F1E010E02111115041E04024B
:103DA00004080000000000000000000A0F190900CC
:103DB0000404040404000602110402110811110293
:103DC0001108060408000200151111110901011162
:103DD00011040909011111110109091004110A1531
:103DE0001104010208080000001111111101021054
:103DF00011040905041111110110011012190A15FD
:103E00000A10020204080000000000000004000A7A
:103E10000418160008020000020006010E0E1F0E14
:103E2000080E0E020E060002100001040E110F0E05
:103E3000071F010E110E06111F11110E0116110F91
:103E4000040E040A11041F0E100E001F001E0F0E98
:103E50001E0E020E110E06090E11110E0110010F99
:103E60000C16040A110E1F0C0406000000000000CE
:103E70000000000000000000000000000000000042
:103E80000000000000000000000000000000000032
:103E90000000000000000000000000000000000022
:103EA0000000000000000000000000000000000012
:103EB0000000000000000000000000000000000002
:103EC00000000000000000000000000000000000F2
:103ED00000000000E43E0000200301640808020026
:103EE0000100000000186C6C10CE3808600C000057
:103EF000000000007C307C7CC6FE7CFE7C7C0000E8
:103F000070001C7C7C7C7E7C7EFEFE7CC63C78C681
:103F100006C6C67C7E7C7E7C7EC6C6C6C6C6FE7CC9
:103F2000007C10000C00060060003800060000064F
:103F30000C00000000000000000000000000003045
:103F400018188C000000000000186CFEFC6A2C1889
:103F500030186C18000000C0C638C6C6C606C6C0F9
:103F6000C6C61818387C38C6C6C6C6C6C60606C633
:103F7000C618306606EECEC6C6C6C6C618C6C6C6C3
:103F8000C6C6C00C066038000C00060060000C00BD
:103F9000061830060C0000000000000018000000A9
:103FA000000000181830D60000000000001848FE7D
:103FB000162E2C181830381800000060C63060C06B
:103FC000C6060660C6C618181C7C70C6F6C6C606AD
:103FD000C6060606C618303606FEDEC6C6C6C606C5
:103FE00018C6C6C66CC6600C0C606C00043C3E3C37
:103FF0007C3C3C3C3E0000660C6E3E3C3E3C363C0D
:10400000186666C666667E181830620000000000FA
:104010000018006C7C10DC001830FE7E1C7E003026
:10402000C6303070FE7E7E307CFC00000E00E070FA
:10403000F6FE7E06C61E1EF6FE18301E06D6F6C614
:104040007EC67E7C18C6C6D638FC300C1860C6000A
:104050000060660666660C66661830360CD66666C4
:1040600066666E067C6666C63C66300C00600000C4
:1040700000000000000000FED0E866001830387E26
:104080001C7E1C18C63018C0C0C0C618C6C0181880
:104090001C7C703076C6C606C60606C6C618303604
:1040A00006C6E6C606B6C6C018C6C6FE6CC0180C64
:1040B00030600000007C6606667E0C7C6618301E50
:1040C0000CD666663E56063C186666D6187C1818EE
:1040D0001830000000000000001800FE7EAC6600F2
:1040E00030186C1818001C0CC6300CC6C0C6C60CA4
:1040F000C6C61818387C380006C6C6C6C60606C628
:10410000C618366606C6C6C60666C6C618C66CEEAD
:10411000C6C00C0C606000FE0066660666060C6099
:10412000661836360CC666660626066018663CD6E5
:104130003C600C1818300000000000000018006CF3
:1041400010E6DC00600C00180C001C067C78FE7C7D
:10415000C07C7C067C7C000C70001C307CC67E7CA5
:104160007EFE06FCC63C1CC6FEC6C67C06DCC67CC3
:10417000187C38C6C67EFE7CC07C00FE007C3E3CBF
:104180007C3C0C3E66701C6638C6663C065C063E8F
:10419000707C18FC663E7E3018180000000000009D
:1041A000000000000000000000000000000000000F
:1041B00000000000000000000000000000000000FF
:1041C00000000000000000000000000000000000EF
:1041D00000000000000000000000000000000000DF
:1041E00000000000000000000000000000000000CF
:1041F00000000000000000000000000000000000BF
:104200000000000014420000E001020C1014050040
:10421000020000000000000000000000000000009C
:10422000000000000000000000000000000000008E
:10423000000000000000000000000000000000007E
:1042400000000000C0030003C007E003000FF81FD8
:10425000001FFC1FE007E00300000000F00FE00378
:10426000E00FF00F800FF81FC03FFC1FF80FF007A2
:1042700000000000781EFC03701C380E800F380010
:10428000E0310C1C381C380E80010000381CBC03C7
:104290003838181CC00F380070000C1C1C381C1C4F
:1042A000C00300001C3880033838001CE00E3800C2
:1042B0003800000E1C381C18C00300001C38800396
:1042C0003838001CE00EB8073800000E1C381C38C7
:1042D000800100001C388003003C000E700EF80FB7
:1042E000DC07000E381C1C38000000001C3880035E
:1042F000001CC007700E381CFC0F0007F00F1C3CA0
:10430000000000001C388003000EC007380E18386B
:104310007C1C0007F00F383E000000001C388003B2
:104320000007001E1C0E00383C3C0007381CF03F04
:10433000000000001C3880038003003CFC3F003874
:104340003C3880071C38E03B800100001C388003AB
:10435000C0010038FC3F00381C3880031C38003C8A
:10436000C00300001C388003E0000038000E003855
:104370001C3880031C38001CC0030000381C80035C
:1043800070000038000E0038383880031C38000EEA
:1043900080010000781E800338000C1C000E0C1CED
:1043A000381CC001381C8C0F00000000F00FFC7F8F
:1043B000FC3FFC1FC03FFC0FF01FC001F81FFC03B7
:1043C00000000000C003FC7FFC3FF007C03FF00787
:1043D000C007C001E007F800000000000000000076
:1043E00000000000000000000000000000000000CD
:1043F000000000005368617270204C53303133422A
:10440000374448303320233100000000050000000D
:104410000000000040420F00050100000000000005
:1044200000000000010001004865617020616E64B9
:1044300020737461636B20636F6C6C6973696F6E5A
:104440000A0000001B5B48001B4800001B410000E5
:104450001B4200001B4300001B44000000040A0A2A
:104460000403060608020000000000000E040E1FF0
:10447000081F0C1F0E0E00001000010E0E0E0F0E76
:10448000071F1F0E110E1C110111110E0F0E0F1E12
:104490001F11111111111F0E000E04000200010066
:1044A00010000C00010408010600000000000000DC
:1044B000020000000000000C0406000000000000E4
:1044C00000040A0A1E130904040404040000000086
:1044D000110611080C010210111106060800021144
:1044E000101111110901011111040809011B111109
:1044F00011111101041111111111100200080A000B
:10450000040001001000121E010000010400000060
:104510000000000002000000000000020408020089
:104520000000000000040A1F01080502020815042B
:1045300000000010190410040A0F010811110606EA
:10454000041F0410101111011101010111040805CB
:104550000115131111111101041111110A11080291
:1045600001081100080E0D0E160E02110D060C09A1
:10457000040B0D0E0F160D0E0711111111111F0254
:1045800004081500000000000004000A0E040200E8
:1045900002080E1F001F00081504080809100F0468
:1045A0000E1E00000200080816110F01110F0F1D4A
:1045B0001F040803011515110F110F0E0411111519
:1045C000040A040202080000001013011911071167
:1045D0001304080504151311111913010211111107
:1045E0000A11080104100800000000000000001F6C
:1045F000100215000208150406000004130404103C
:104600001F10110211100606041F0404151F1101CA
:1046100011010111110408050111191101150510ED
:10462000041111150A04020204080000001E110101
:10463000111F021E11040803041511110F1E010E93
:1046400002111115041E04020408000000000000FD
:104650000000000A0F190900040404040400060203
:1046600011040211081111021108060408000200C9
:10467000151111110901011111040909011111117B
:104680000109091004110A151104010208080000AB
:104690000011111111010210110409050411111169
:1046A0000110011012190A150A1002020408000074
:1046B000000000000004000A0418160008020000B0
:1046C000020006010E0E1F0E080E0E020E0600025C
:1046D000100001040E110F0E071F010E110E06111E
:1046E0001F11110E0116110F040E040A11041F0EE2
:1046F000100E001F001E0F0E1E0E020E110E0609D8
:104700000E11110E0110010F0C16040A110E1F0CD0
:10471000040600000000000000000000000000008F
:104720000000000000000000000000000000000089
:104730000000000000000000000000000000000079
:104740000000000000000000000000000000000069
:104750000000000000000000000000000000000059
:104760000000000000000000000000000000000049
:104770000000000000000000000000000100010037
:104780000020202020202020202028282828282021
:104790002020202020202020202020202020202019
:1047A0002088101010101010101010101010101081
:1047B0001004040404040404040404101010101071
:1047C000101041414141414101010101010101013B
:1047D000010101010101010101010101101010108D
:1047E000101042424242424202020202020202020D
:1047F0000202020202020202020202021010101061
:104800002000000000000000000000000000000088
:104810000000000000000000000000000000000098
:104820000000000000000000000000000000000088
:104830000000000000000000000000000000000078
:104840000000000000000000000000000000000068
:104850000000000000000000000000000000000058
:104860000000000000000000000000000000000048
:104870000000000000000000000000000000000038
:104880000000000000000000000000000000000028
:104890000000000000000000000000000000000018
:1048A0000000000000000000000000000000000008
:1048B00000000000000000000000000000000000F8
:1048C00000000000000000000000000000000000E8
:1048D00000000000000000000000000000000000D8
:1048E000000000004300000020000020232D302B9A
:1048F0002000686C4C0065666745464700303132E1
:104900003334353637383941424344454600303137
:104910003233343536373839616263646566000096
:044920000000000093
:08492400D0B7FF7F0100000085
:10492C0001000000951A0000000000005801002052
:10493C00001000000080000000366E01804700006F
:10494C000000000084480000A4480000C448000097
:10495C00000000000000000000000000000000004B
:10496C00E44800000000000000000000000000000F
:10497C00000000000000000000000000000000002B
:10498C00000000000000000000000000000000001B
:10499C00000000000000000000000000000000000B
:1049AC0020000020BD000000950000000000000069
:0400000300002A557A
:00000001FF
