:1000000000000220890C0000B50C0000B50C0000B7
:10001000B50C0000B50C0000B50C0000B50C0000DC
:10002000B50C0000B50C0000B50C0000B50C0000CC
:10003000B50C0000B50C0000B50C00007D020000FE
:10004000B50C0000B50C0000B50C0000B50C0000AC
:10005000B50C0000B50C0000B50C0000B50C00009C
:10006000B50C0000B50C0000B50C0000B50C00008C
:10007000B50C0000B50C0000B50C0000B50C00007C
:10008000B50C0000B50C0000B50C0000B50C00006C
:10009000B50C0000B50C0000B50C0000B50C00005C
:1000A000B50C0000B50C0000B50C0000B50C00004C
:1000B000B50C0000B50C0000B50C0000B50C00003C
:1000C000B50C0000B50C0000B50C0000B50C00002C
:1000D000B50C0000B50C0000B50C000010B5054CC7
:1000E000237833B9044B13B10448AFF300800123E4
:1000F000237010BD7400002000000000E01200001A
:1001000008B5064B1BB106480649AFF30080064808
:10011000036813B1054B03B1984708BD0000000008
:10012000E0120000780000207000002000000000B5
:10013000154B002B08BF134B9D46A3F5803A0021B9
:100140008B460F461348144A121A01F007F80F4B5A
:10015000002B00D098470E4B002B00D09847002072
:10016000002104000D000D48002802D00C48AFF318
:10017000008000F0CDFF2000290000F0A3F800F07F
:10018000B3FF00BF000008000000022000000000D4
:100190000000000074000020980000200000000013
:1001A0000000000080B483B000AF03463960FB71EB
:1001B00097F90730002B0BDA0D49FB7903F00F0399
:1001C000043B3A68D2B25201D2B20B441A7609E02B
:1001D000084997F907303A68D2B25201D2B20B44BB
:1001E00083F800230C37BD465DF8047B704700BFE1
:1001F00000ED00E000E100E080B582B000AF786083
:100200007B68013BB3F1807F01D301230FE00A4BF0
:100210007A68013A5A604FF0FF300721FFF7C2FFBA
:10022000054B00229A60044B07221A6000231846EF
:100230000837BD4680BD00BF10E000E080B582B049
:1002400000AF0C4B1B687B603B46184600F0DCFCA3
:100250007B681B0E0F2B0AD93B78032B07D1064B6B
:10026000054A126822F0500242F010021A60083764
:10027000BD4680BDFC81E00FC0800C4080B400AF63
:10028000044B1B685A1C034B1A60BD465DF8047B87
:10029000704700BF9000002080B485B000AF786048
:1002A000074B1B68FB6000BF054B1A68FB68D21A3E
:1002B0007B689A42F8D31437BD465DF8047B7047DB
:1002C0009000002080B500AFFFF7B8FF00F0F8FE07
:1002D0000F4800F037FA02460E4BA3FB02139B09AE
:1002E0001846FFF789FF0346002B00D0FEE700F019
:1002F000FFFD002000F02AFE002000F049FE012052
:1003000000F046FE4FF47A70FFF7C6FFF4E700BF37
:1003100020000400D34D621080B483B000AF786039
:100320003960FEE780B487B000AFF860B9607A60EA
:10033000FB6803F10473DA00BB6813449B007B6124
:100340007B697A681A601C37BD465DF8047B70478C
:1003500080B582B000AF1E4BDB6C03F47F031B0C37
:10036000FB71FB794A2B04D04B2B26D0482B22D093
:1003700025E0184B1B699BB203F03F039BB21B02A5
:10038000BB80144B9B699BB203F0F0039AB2BB880D
:100390001343BB800F4BDB6903F0F0031B099AB2D8
:1003A000BB881343BB80BB88B3F5017F01D30A4BE5
:1003B0000AE00A4B08E0094B06E0074B04E0084856
:1003C0008221FFF7A9FF002318460837BD4680BDEC
:1003D000B081E00FD0FF0FE000366E010048E80169
:1003E0008811000080B586B000AF78607B68002B74
:1003F00003D07B68B3F5004F04D90A4840F20F11CF
:10040000FFF78AFF7B683B613B69B3FA83F3FB60CC
:10041000FB68DBB2C3F11F037B617B6918461837A9
:10042000BD4680BD8811000080B582B000AF104885
:1004300000F08EFA0346FB70FB78032B07D0082BE5
:1004400009D0022B0BD100F0FBFC78600AE000F031
:10045000E3FC786006E000F061FC786002E00023D5
:100460007B6000BF7B6818460837BD4680BD00BF73
:1004700005231C0080B483B000AF1A4B5B6903F402
:10048000E063B3F5007F14D0B3F5007F05D8002BEF
:1004900015D0B3F5807F0FD01AE0B3F5C06F14D03C
:1004A000B3F5E06F0ED0B3F5407F11D10E4B7B60FA
:1004B00011E00E4B7B600EE00D4B7B600BE00D4BB3
:1004C0007B6008E00C4B7B6005E00C4B7B6002E03E
:1004D00000237B6000BF7B6818460C37BD465DF883
:1004E000047B704700800C4040420F00C0CF6A0080
:1004F000C0D8A700809FD500406F4001003FAB01EE
:1005000080B582B000AF144800F022FA0346FB70B9
:10051000FB78072B0FD0082B11D100F0FFFB786080
:100520000E4B1B6803F4E0339B0B01337A68B2FB7C
:10053000F3F37B600BE0FFF79DFF786007E008486E
:100540004FF4CB71FFF7E8FE00237B6000BF7B68B0
:1005500018460837BD4680BD0400180000800C40D6
:100560008811000080B584B000AF78607B68002BF4
:1005700007D07B68012B04D0284840F2AD11FFF76B
:10058000CBFE274B9A6A7B685B0022FA03F303F0E9
:100590000303032B3AD801A252F823F0ED05000023
:1005A000AD050000B5050000BD05000000F034FCFD
:1005B000F8602EE000F044FCF8602AE0184B5B681D
:1005C00003F48073002B05D1154B1B6803F08043A7
:1005D000002B05D000F07EFB03469B08FB6018E073
:1005E00000F078FB03465B08FB6012E00C4B9A6A54
:1005F0007B6804339B0022FA03F3002B03D000F046
:1006000015FCF86005E00023FB6002E00023FB60BE
:1006100000BFFB6818461037BD4680BD881100003A
:1006200000800C4080B483B000AF7860094B5B6DF4
:1006300003F00103002B00D006E000BF054B1A6D4C
:100640007B681340002BF9D10C37BD465DF8047B65
:10065000704700BF00800C4090B587B000AF786055
:100660000B46FB7000233B617B681B0A03F00F0302
:10067000013B052B38D801A252F823F09506000063
:100680009B060000A1060000CF060000D90600006E
:10069000E3060000214B7B612CE0214B7B6129E0CC
:1006A000204B7B61204800F04DF80446FFF750FED8
:1006B00003469C420AD91D481E210122FFF732FE43
:1006C0001B4808210122FFF72DFE13E012E0194B11
:1006D0007B6101233B610DE0174B7B6110233B6184
:1006E00008E0164B7B6105E0154840F24741FFF7F3
:1006F00013FE10E07B681B0B03F01F03FB603B69DC
:10070000002B02D03869FFF78DFFFB787869F96814
:100710001A46FFF707FE1C37BD4690BD08800C4007
:1007200044800C4040800C402000040000800C40BD
:1007300004800C4058800C4060800C4078800C4055
:100740008811000090B585B000AF78607B6803F435
:100750007813B3F5602F00F09980B3F5602F18D8A7
:10076000B3F5C02F5ED0B3F5C02F08D8B3F5003F66
:100770003ED0B3F5802F51D0002B2BD0D6E0B3F56F
:10078000202F62D0B3F5402F6DD0B3F5002F4ED09F
:10079000CCE0B3F5B01F00F0AF80B3F5B01F0CD8BC
:1007A000B3F5901F00F09680B3F5A01F00F097807E
:1007B000B3F5801F00F08180B8E0B3F5D01F00F0E2
:1007C000AD80B3F5E01F00F0AD80B3F5C01F00F0C1
:1007D000A180ABE000F0A2FAF8605B4B1B6803F469
:1007E000E0339B0B0133FA68B2FBF3F3FB60A5E047
:1007F00000F094FAF860544B1B6803F4E0339B0B51
:100800000133FA68B2FBF3F3FB604F4B9B6803F0D4
:100810000F03FA6822FA03F3FB608FE000F05AFA44
:10082000F8608BE00020FFF79DFEF86086E0002076
:10083000FFF798FEF860444B9B6E03F0F0031B0932
:10084000FA6822FA03F3FB6078E00020FFF78AFEE3
:10085000F8603D4B9B6E03F470631B0AFA6822FA42
:1008600003F3FB606AE00020FFF77CFEF860364B84
:100870009B6E03F440531C0B1020FFF7B3FD03469F
:100880002344FA6822FA03F3FB6057E00020FFF7E5
:1008900069FEF8602C4B9B6E03F440531B0BFA6807
:1008A00022FA03F3FB60284BDB6F03F007030133ED
:1008B000FA68B2FBF3F3FB6040E00020FFF752FE62
:1008C000F860214B9B6E03F00303FA6822FA03F3EE
:1008D000FB6033E00120FFF745FEF8602EE00120C9
:1008E000FFF740FEF860184B1B6F03F00303FA6834
:1008F00022FA03F3FB6021E00120FFF733FEF860EA
:10090000114B1B6F03F030031B09FA6822FA03F343
:10091000FB6013E0FFF7F4FDF8600FE0FFF7AAFDBE
:10092000F8600BE0FFF780FDF86007E0074840F251
:10093000F141FFF7F1FC0023FB6000BFFB681846A4
:100940001437BD4690BD00BF00800C4088110000E8
:1009500080B586B000AF78600123FB754FF470530B
:100960003B617B6803F00F03FB60FB68013B042BDA
:1009700000F2938001A252F823F000BF9109000019
:10098000C7090000030A00003F0A0000650A0000D2
:10099000484BDA6A3B691340B3F5805F09D0B3F581
:1009A000005F03D0B3F5006F06D008E00223FB75AB
:1009B00008E00323FB7505E00423FB7502E0052333
:1009C000FB7500BF71E03B4B9B6A03F00303022BF6
:1009D00006D0032B07D0012B08D10323FB750FE0B2
:1009E0000223FB750CE00623FB7509E0314B9B6A83
:1009F00003F48033002B02D00923FB7500E000BF15
:100A000053E02C4B9B6A03F00C03082B06D00C2BF5
:100A100007D0042B08D10323FB750FE00223FB75DD
:100A20000CE00623FB7509E0224B9B6A03F480135C
:100A3000002B02D00923FB7500E000BF35E007233F
:100A4000FB751C4B1B6803F08053002B03D0B3F1E4
:100A5000805F03D029E00723FB7502E00823FB75C4
:100A600000BF22E0134BDB6A03F46033B3F5803F31
:100A700006D0B3F5003F06D0B3F5004F06D008E02E
:100A80000223FB7508E00323FB7505E00823FB75D3
:100A900002E00123FB7500BF07E0074840F2D15197
:100AA000FFF73AFC0023FB7500BFFB7D18461837A3
:100AB000BD4680BD00800C408811000090B585B017
:100AC00000AFB9607B600346FB731346BB73FB7BCF
:100AD000052B02D8BB680F2B03D94948CC21FFF75F
:100AE0001BFCBB7B002B1FD07B68002B0ED0454826
:100AF000FA7BBB68012101FA03F319461346DB00B8
:100B000013449B000344103319600DE03D48FA7B09
:100B1000BB68012101FA03F319461346DB001344B5
:100B20009B00034410335960BB68072B1DD8354820
:100B3000FA7B344CF97B0B46DB000B449B002344CF
:100B40005968BB689B000F2404FA03F3DB43194088
:100B5000BC7BBB689B0004FA03F319431346DB001C
:100B600013449B000344596024E02648FA7B254C3B
:100B7000F97B0B46DB000B449B00234408331968C8
:100B8000BB6803F18043083B9B000F2404FA03F386
:100B9000DB431940BC7BBB6803F18043083B9B00EF
:100BA00004FA03F319431346DB0013449B00034488
:100BB00008331960BB7B002B1FD17B68002B0ED044
:100BC0001048FA7BBB68012101FA03F3194613466A
:100BD000DB0013449B000344103319600DE0094807
:100BE000FA7BBB68012101FA03F319461346DB00C7
:100BF00013449B000344103359601437BD4690BD25
:100C0000D81100000060004080B584B000AF78606B
:100C10007B68002B03D11A483F21FFF77DFB194B5E
:100C20005B69DBB203F00F03DBB29B00FB73154B78
:100C30001B6903F0C0039B09DAB2FB7B1343FB7310
:100C40007B68FA7B9A700F4B1B69DBB203F03F03A2
:100C5000DAB27B685A700B4B9B69DBB223F00F034F
:100C6000FB73084BDB6903F0F0031B09DAB2FB7B73
:100C70001343FB737B68FA7B1A701037BD4680BD47
:100C800028120000D0FF0FE0064880470649074AB7
:100C9000074B9A42BEBF51F8040B42F8040BF8E729
:100CA000FFF746FA0D0E0000EC12000000000020D5
:100CB00074000020FEE700BF80B400AF044BDB6C83
:100CC0001B0EDBB21846BD465DF8047B704700BFC3
:100CD000B081E00F80B582B000AF00F01FF87860FF
:100CE0000C4B1B6803F4E0339B0B01337A68B2FBB7
:100CF000F3F37B60074B5B6803F00F037A6822FA1B
:100D000003F37B60044B7A681A607B6818460837E7
:100D1000BD4680BD00800C409400002080B582B0AC
:100D200000AF2F4BDB6A03F47053B3F5805F0AD03A
:100D3000B3F5005F03D0B3F5006F08D00BE0294B8B
:100D40001B687B6047E04FF400437B6043E0264B29
:100D50001B687B603FE0224BDB6803F4E063B3F584
:100D6000007F1BD0B3F5007F05D8002B24D0B3F54E
:100D7000807F16D02BE0B3F5806F09D0B3F5A06F5C
:100D800003D0B3F5407F06D021E0184B7B6021E013
:100D9000174B7B601EE0174B7B601BE0164B7B60A4
:100DA00018E0FFF789FF0346122B02D9134B7B6033
:100DB00010E0134B7B600DE0FFF77EFF0346122B24
:100DC00002D9104B7B6005E00F4B7B6002E00023F3
:100DD0007B6000BF00BF7B6818460837BD4680BDFA
:100DE00000800C400400002000000020003FAB0108
:100DF000406F4001809FD500C0D8A70040B5640077
:100E0000C0CF6A00804F120040420F0080B400AF94
:100E1000BD465DF8047B704780B400AF4FF40043DB
:100E20001846BD465DF8047B704700BF80B400AF34
:100E30004FF47A731846BD465DF8047B704700BFD7
:100E400080B400AF034B1B681846BD465DF8047BB9
:100E5000704700BF0400002080B582B000AF034699
:100E60003960FB71FB79052B02D83B680F2B04D945
:100E70000A4840F20B21FFF74FFA0948FA793B681C
:100E8000012101FA03F319461346DB0013449B00CA
:100E90000344103319600837BD4680BD7812000046
:100EA0000060004080B582B000AF03463960FB713E
:100EB000FB79052B02D83B680F2B04D90A4840F276
:100EC0002221FFF729FA0948FA793B68012101FA42
:100ED00003F319461346DB0013449B000344183305
:100EE00019600837BD4680BD7812000000600040E0
:100EF00080B582B000AF12480121FFF7ADFB114869
:100F00000121FFF7A9FB00237B6011E00E4B7A68FB
:100F100013F832200C497B68DB000B445B681046F9
:100F2000194604220023FFF7C9FD7B6801337B606B
:100F30007B68012BEADD002318460837BD4680BDDB
:100F40001081020000D20200C812000080B582B0F9
:100F500000AF78607B68002B11DB7B68012B0EDC17
:100F60000A4B7A6813F8322008497B68DB000B448F
:100F70005B6810461946FFF76FFF002301E04FF052
:100F8000FF3318460837BD4680BD00BFC8120000B9
:100F900080B582B000AF78607B68002B11DB7B6886
:100FA000012B0EDC0A4B7A6813F8322008497B6863
:100FB000DB000B445B6810461946FFF773FF002304
:100FC00001E04FF0FF3318460837BD4680BD00BF33
:100FD000C812000080B400AF314B314A526C42F469
:100FE00000525A642F4B2F4AD2F8202142F00402BB
:100FF000C3F820212B4B2B4AD2F8202122F4407237
:10100000C3F82021274B274AD2F8B82022F4706277
:10101000C3F8B820234B234AD2F8B82042F48062A8
:10102000C3F8B8201E4B10221A6200BF1C4BDB6AAB
:1010300003F02003002BF9D01B4B1B4A126842F02F
:1010400001021A60184B184AD26842F08072DA60C6
:10105000164B174A1A60174B0F221A61154B0222C2
:10106000C3F8F020134B4FF48072C3F804234FF001
:101070006043114AC3F8B02F4FF060430F4AC3F8E2
:10108000802E4FF060434FF06042D2F8002E42F0C5
:101090000102C3F8002EBD465DF8047B704700BF17
:1010A00000800C4000600040F0ED00E0001000E027
:1010B000FF130140000004E055CEACC5090001005B
:1010C00080B582B000AF4FF07E637B607B681B68A9
:1010D000002B01D1002302E0FFF77CFF012318461B
:1010E0000837BD4680BD00BF08B5074B044613B1A5
:1010F0000021AFF30080054B1868836A03B198475D
:10110000204600F033F800BF00000000DC120000B1
:1011100070B50E4B0E4D0024ED1AAD101E46AC42BC
:1011200004D056F8242090470134F8E700F020F866
:10113000084D094B0024ED1AAD101E46AC4204D0F8
:1011400056F8242090470134F8E770BD680000206D
:10115000680000206C000020680000200244034664
:10116000934202D003F8011BFAE77047FEE700BF85
:10117000F8B500BFF8BC08BC9E467047F8B500BF84
:10118000F8BC08BC9E4670472F4170706C69636163
:1011900074696F6E732F53696D706C6963697479CC
:1011A00053747564696F5F76332F646576656C6F11
:1011B0007065722F73646B732F65666D33322F7693
:1011C000322F656D6C69622F7372632F656D5F637B
:1011D0006D752E63000000002F4170706C696361B3
:1011E00074696F6E732F53696D706C69636974797C
:1011F00053747564696F5F76332F646576656C6FC1
:101200007065722F73646B732F65666D33322F7642
:10121000322F656D6C69622F7372632F656D5F6726
:1012200070696F2E630000002F4170706C696361FC
:1012300074696F6E732F53696D706C69636974792B
:1012400053747564696F5F76332F646576656C6F70
:101250007065722F73646B732F65666D33322F76F2
:10126000322F656D6C69622F7372632F656D5F73CA
:10127000797374656D2E63002F4170706C696361C2
:1012800074696F6E732F53696D706C6963697479DB
:1012900053747564696F5F76332F646576656C6F20
:1012A0007065722F73646B732F65666D33322F76A2
:1012B000322F656D6C69622F696E632F656D5F6794
:1012C00070696F2E6800000004000000020000003A
:1012D000040000000300000043000000080000209C
:0412E000000000000A
:0812E4004CEEFF7F0100000049
:1012EC00006CDC0200800000000000000000000028
:1012FC0000000000000000000000000000000000E2
:10130C000000000000000000D812000000000000E7
:10131C0000000000000000000000000000000000C1
:10132C0000000000000000000000000000000000B1
:10133C0000000000000000000000000000000000A1
:10134C00000000000000000001010000DD000000B2
:04135C00000000008D
:0400000300000C8964
:00000001FF
